{"contracts/FlameBornEngine.sol":{"FlameBornEngine":{"abi":[{"inputs":[{"internalType":"address","name":"admin","type":"address"},{"internalType":"contract IFlameBornToken","name":"_token","type":"address"},{"internalType":"contract IHealthIDNFT","name":"_credentialNFT","type":"address"},{"internalType":"uint256","name":"_actorReward","type":"uint256"},{"internalType":"uint256","name":"_donationRewardRate","type":"uint256"}],"stateMutability":"nonpayable","type":"constructor"},{"inputs":[],"name":"AccessControlBadConfirmation","type":"error"},{"inputs":[{"internalType":"address","name":"account","type":"address"},{"internalType":"bytes32","name":"neededRole","type":"bytes32"}],"name":"AccessControlUnauthorizedAccount","type":"error"},{"inputs":[],"name":"FailedCall","type":"error"},{"inputs":[{"internalType":"uint256","name":"balance","type":"uint256"},{"internalType":"uint256","name":"needed","type":"uint256"}],"name":"InsufficientBalance","type":"error"},{"anonymous":false,"inputs":[{"indexed":true,"internalType":"address","name":"actor","type":"address"},{"indexed":false,"internalType":"enum FlameBornEngine.ActorRole","name":"role","type":"uint8"},{"indexed":false,"internalType":"string","name":"name","type":"string"}],"name":"ActorVerified","type":"event"},{"anonymous":false,"inputs":[{"indexed":true,"internalType":"address","name":"donor","type":"address"},{"indexed":false,"internalType":"uint256","name":"amountETH","type":"uint256"},{"indexed":false,"internalType":"uint256","name":"rewardFLB","type":"uint256"}],"name":"DonationReceived","type":"event"},{"anonymous":false,"inputs":[{"indexed":true,"internalType":"address","name":"user","type":"address"},{"indexed":false,"internalType":"string","name":"questId","type":"string"},{"indexed":false,"internalType":"uint256","name":"reward","type":"uint256"}],"name":"QuestRewarded","type":"event"},{"anonymous":false,"inputs":[{"indexed":true,"internalType":"bytes32","name":"role","type":"bytes32"},{"indexed":true,"internalType":"bytes32","name":"previousAdminRole","type":"bytes32"},{"indexed":true,"internalType":"bytes32","name":"newAdminRole","type":"bytes32"}],"name":"RoleAdminChanged","type":"event"},{"anonymous":false,"inputs":[{"indexed":true,"internalType":"bytes32","name":"role","type":"bytes32"},{"indexed":true,"internalType":"address","name":"account","type":"address"},{"indexed":true,"internalType":"address","name":"sender","type":"address"}],"name":"RoleGranted","type":"event"},{"anonymous":false,"inputs":[{"indexed":true,"internalType":"bytes32","name":"role","type":"bytes32"},{"indexed":true,"internalType":"address","name":"account","type":"address"},{"indexed":true,"internalType":"address","name":"sender","type":"address"}],"name":"RoleRevoked","type":"event"},{"inputs":[],"name":"DEFAULT_ADMIN_ROLE","outputs":[{"internalType":"bytes32","name":"","type":"bytes32"}],"stateMutability":"view","type":"function"},{"inputs":[],"name":"QUEST_ADMIN_ROLE","outputs":[{"internalType":"bytes32","name":"","type":"bytes32"}],"stateMutability":"view","type":"function"},{"inputs":[],"name":"REGISTRAR_ROLE","outputs":[{"internalType":"bytes32","name":"","type":"bytes32"}],"stateMutability":"view","type":"function"},{"inputs":[],"name":"actorReward","outputs":[{"internalType":"uint256","name":"","type":"uint256"}],"stateMutability":"view","type":"function"},{"inputs":[{"internalType":"address","name":"","type":"address"}],"name":"actors","outputs":[{"internalType":"bool","name":"verified","type":"bool"},{"internalType":"enum FlameBornEngine.ActorRole","name":"role","type":"uint8"},{"internalType":"string","name":"name","type":"string"},{"internalType":"string","name":"licenseId","type":"string"},{"internalType":"string","name":"phone","type":"string"}],"stateMutability":"view","type":"function"},{"inputs":[{"internalType":"address","name":"user","type":"address"},{"internalType":"uint256","name":"reward","type":"uint256"},{"internalType":"string","name":"questId","type":"string"}],"name":"awardQuest","outputs":[],"stateMutability":"nonpayable","type":"function"},{"inputs":[],"name":"credentialNFT","outputs":[{"internalType":"contract IHealthIDNFT","name":"","type":"address"}],"stateMutability":"view","type":"function"},{"inputs":[],"name":"donate","outputs":[],"stateMutability":"payable","type":"function"},{"inputs":[],"name":"donationRewardRate","outputs":[{"internalType":"uint256","name":"","type":"uint256"}],"stateMutability":"view","type":"function"},{"inputs":[{"internalType":"address","name":"","type":"address"}],"name":"donorBalances","outputs":[{"internalType":"uint256","name":"","type":"uint256"}],"stateMutability":"view","type":"function"},{"inputs":[{"internalType":"address","name":"actor","type":"address"}],"name":"getActor","outputs":[{"internalType":"bool","name":"verified","type":"bool"},{"internalType":"enum FlameBornEngine.ActorRole","name":"role","type":"uint8"},{"internalType":"string","name":"name","type":"string"},{"internalType":"string","name":"licenseId","type":"string"},{"internalType":"string","name":"phone","type":"string"}],"stateMutability":"view","type":"function"},{"inputs":[{"internalType":"bytes32","name":"role","type":"bytes32"}],"name":"getRoleAdmin","outputs":[{"internalType":"bytes32","name":"","type":"bytes32"}],"stateMutability":"view","type":"function"},{"inputs":[{"internalType":"bytes32","name":"role","type":"bytes32"},{"internalType":"address","name":"account","type":"address"}],"name":"grantRole","outputs":[],"stateMutability":"nonpayable","type":"function"},{"inputs":[{"internalType":"bytes32","name":"role","type":"bytes32"},{"internalType":"address","name":"account","type":"address"}],"name":"hasRole","outputs":[{"internalType":"bool","name":"","type":"bool"}],"stateMutability":"view","type":"function"},{"inputs":[{"internalType":"address","name":"actor","type":"address"}],"name":"isVerifiedActor","outputs":[{"internalType":"bool","name":"","type":"bool"}],"stateMutability":"view","type":"function"},{"inputs":[{"internalType":"address","name":"","type":"address"}],"name":"questRewards","outputs":[{"internalType":"uint256","name":"","type":"uint256"}],"stateMutability":"view","type":"function"},{"inputs":[{"internalType":"bytes32","name":"role","type":"bytes32"},{"internalType":"address","name":"callerConfirmation","type":"address"}],"name":"renounceRole","outputs":[],"stateMutability":"nonpayable","type":"function"},{"inputs":[{"internalType":"bytes32","name":"role","type":"bytes32"},{"internalType":"address","name":"account","type":"address"}],"name":"revokeRole","outputs":[],"stateMutability":"nonpayable","type":"function"},{"inputs":[{"internalType":"bytes4","name":"interfaceId","type":"bytes4"}],"name":"supportsInterface","outputs":[{"internalType":"bool","name":"","type":"bool"}],"stateMutability":"view","type":"function"},{"inputs":[],"name":"token","outputs":[{"internalType":"contract IFlameBornToken","name":"","type":"address"}],"stateMutability":"view","type":"function"},{"inputs":[{"internalType":"enum FlameBornEngine.ActorRole","name":"role","type":"uint8"},{"internalType":"string","name":"name","type":"string"}],"name":"tokenURIForActor","outputs":[{"internalType":"string","name":"","type":"string"}],"stateMutability":"pure","type":"function"},{"inputs":[],"name":"totalDonations","outputs":[{"internalType":"uint256","name":"","type":"uint256"}],"stateMutability":"view","type":"function"},{"inputs":[{"internalType":"address","name":"actorAddress","type":"address"},{"internalType":"enum FlameBornEngine.ActorRole","name":"role","type":"uint8"},{"internalType":"string","name":"name","type":"string"},{"internalType":"string","name":"licenseId","type":"string"},{"internalType":"string","name":"phone","type":"string"}],"name":"verifyActor","outputs":[],"stateMutability":"nonpayable","type":"function"},{"inputs":[{"internalType":"address payable","name":"recipient","type":"address"}],"name":"withdrawDonations","outputs":[],"stateMutability":"nonpayable","type":"function"}],"evm":{"bytecode":{"linkReferences":{},"object":"61010060405234801561001157600080fd5b50604051611e23380380611e23833981016040819052610030916102d4565b6001600160a01b03851661008b5760405162461bcd60e51b815260206004820152601660248201527f41646d696e20616464726573732072657175697265640000000000000000000060448201526064015b60405180910390fd5b6001600160a01b0384166100e15760405162461bcd60e51b815260206004820152601660248201527f546f6b656e2061646472657373207265717569726564000000000000000000006044820152606401610082565b6001600160a01b0383166101375760405162461bcd60e51b815260206004820152601760248201527f43726564656e7469616c204e46542072657175697265640000000000000000006044820152606401610082565b600081116101875760405162461bcd60e51b815260206004820181905260248201527f446f6e6174696f6e207265776172642072617465206d757374206265203e20306044820152606401610082565b6001600160a01b03808516608052831660a05260c082905260e08190526101af600086610210565b506101da7fedcc084d3dcd65a1f7f23c65c46722faca6953d28e43150a467cf43e5c30923886610210565b506102057fd9fa870f425abcc65e9f66291fd387e7d8e4b1a8019d84df97822b1a0643f58586610210565b505050505050610332565b6000828152602081815260408083206001600160a01b038516845290915281205460ff166102b2576000838152602081815260408083206001600160a01b03861684529091529020805460ff1916600117905561026a3390565b6001600160a01b0316826001600160a01b0316847f2f8788117e7eff1d82e926ec794901d17c78024a50270940304540a733656f0d60405160405180910390a45060016102b6565b5060005b92915050565b6001600160a01b03811681146102d157600080fd5b50565b600080600080600060a086880312156102ec57600080fd5b85516102f7816102bc565b6020870151909550610308816102bc565b6040870151909450610319816102bc565b6060870151608090970151959894975095949392505050565b60805160a05160c05160e051611a8e610395600039600081816102e901526111060152600081816104380152610cac0152600081816103970152610c220152600081816105170152818161092f01528181610cd2015261114a0152611a8e6000f3fe60806040526004361061014b5760003560e01c806391d14854116100b6578063de2ed8931161006f578063de2ed8931461045a578063eaa66a3c14610470578063ed88c68e14610490578063f5c515be14610498578063f68e9553146104d1578063fc0c546a1461050557600080fd5b806391d1485414610365578063934fcd1b14610385578063a217fddf146103d1578063a56f5b53146103e6578063d547741f14610406578063d78360bc1461042657600080fd5b80634138d167116101085780634138d1671461026657806362158c7514610297578063624c6722146102b7578063678f9350146102d75780636b6832571461030b5780637b8c8de11461033857600080fd5b806301ffc9a714610150578063096428411461018557806314e02500146101c7578063248a9ca3146101f45780632f2ff15d1461022457806336568abe14610246575b600080fd5b34801561015c57600080fd5b5061017061016b3660046113eb565b610539565b60405190151581526020015b60405180910390f35b34801561019157600080fd5b506101b97fd9fa870f425abcc65e9f66291fd387e7d8e4b1a8019d84df97822b1a0643f58581565b60405190815260200161017c565b3480156101d357600080fd5b506101b96101e2366004611431565b60046020526000908152604090205481565b34801561020057600080fd5b506101b961020f36600461144e565b60009081526020819052604090206001015490565b34801561023057600080fd5b5061024461023f366004611467565b610570565b005b34801561025257600080fd5b50610244610261366004611467565b61059b565b34801561027257600080fd5b50610286610281366004611431565b6105d3565b60405161017c95949392919061151f565b3480156102a357600080fd5b506102446102b23660046115c2565b610823565b3480156102c357600080fd5b506102446102d2366004611632565b6109d7565b3480156102e357600080fd5b506101b97f000000000000000000000000000000000000000000000000000000000000000081565b34801561031757600080fd5b5061032b610326366004611711565b610d81565b60405161017c91906117db565b34801561034457600080fd5b506101b9610353366004611431565b60016020526000908152604090205481565b34801561037157600080fd5b50610170610380366004611467565b610dab565b34801561039157600080fd5b506103b97f000000000000000000000000000000000000000000000000000000000000000081565b6040516001600160a01b03909116815260200161017c565b3480156103dd57600080fd5b506101b9600081565b3480156103f257600080fd5b50610244610401366004611431565b610dd4565b34801561041257600080fd5b50610244610421366004611467565b610e80565b34801561043257600080fd5b506101b97f000000000000000000000000000000000000000000000000000000000000000081565b34801561046657600080fd5b506101b960025481565b34801561047c57600080fd5b5061028661048b366004611431565b610ea5565b610244611073565b3480156104a457600080fd5b506101706104b3366004611431565b6001600160a01b031660009081526003602052604090205460ff1690565b3480156104dd57600080fd5b506101b97fedcc084d3dcd65a1f7f23c65c46722faca6953d28e43150a467cf43e5c30923881565b34801561051157600080fd5b506103b97f000000000000000000000000000000000000000000000000000000000000000081565b60006001600160e01b03198216637965db0b60e01b148061056a57506301ffc9a760e01b6001600160e01b03198316145b92915050565b60008281526020819052604090206001015461058b816111ec565b61059583836111f9565b50505050565b6001600160a01b03811633146105c45760405163334bd91960e11b815260040160405180910390fd5b6105ce828261128b565b505050565b6001600160a01b0381166000908152600360209081526040808320815160a08101909252805460ff808216151584528594606094859485948894929391929184019161010090910416600581111561062d5761062d611497565b600581111561063e5761063e611497565b8152602001600182018054610652906117ee565b80601f016020809104026020016040519081016040528092919081815260200182805461067e906117ee565b80156106cb5780601f106106a0576101008083540402835291602001916106cb565b820191906000526020600020905b8154815290600101906020018083116106ae57829003601f168201915b505050505081526020016002820180546106e4906117ee565b80601f0160208091040260200160405190810160405280929190818152602001828054610710906117ee565b801561075d5780601f106107325761010080835404028352916020019161075d565b820191906000526020600020905b81548152906001019060200180831161074057829003601f168201915b50505050508152602001600382018054610776906117ee565b80601f01602080910402602001604051908101604052809291908181526020018280546107a2906117ee565b80156107ef5780601f106107c4576101008083540402835291602001916107ef565b820191906000526020600020905b8154815290600101906020018083116107d257829003601f168201915b5050509190925250508151602083015160408401516060850151608090950151929c919b5099509297509550909350505050565b7fd9fa870f425abcc65e9f66291fd387e7d8e4b1a8019d84df97822b1a0643f58561084d816111ec565b6001600160a01b0385166108975760405162461bcd60e51b815260206004820152600c60248201526b24b73b30b634b2103ab9b2b960a11b60448201526064015b60405180910390fd5b600084116108dc5760405162461bcd60e51b81526020600482015260126024820152710526577617264206d757374206265203e20360741b604482015260640161088e565b6001600160a01b0385166000908152600460205260408120805486929061090490849061183e565b90915550506040516340c10f1960e01b81526001600160a01b038681166004830152602482018690527f000000000000000000000000000000000000000000000000000000000000000016906340c10f1990604401600060405180830381600087803b15801561097357600080fd5b505af1158015610987573d6000803e3d6000fd5b50505050846001600160a01b03167ff746c75ab19937d58b2a3e0406d8d5fcd1e8ae5545a89c47e88e53497787182c8484876040516109c89392919061187a565b60405180910390a25050505050565b7fedcc084d3dcd65a1f7f23c65c46722faca6953d28e43150a467cf43e5c309238610a01816111ec565b6001600160a01b038916610a4f5760405162461bcd60e51b8152602060048201526015602482015274496e76616c6964206163746f72206164647265737360581b604482015260640161088e565b6040518060a00160405280600115158152602001896005811115610a7557610a75611497565b815260200188888080601f016020809104026020016040519081016040528093929190818152602001838380828437600092019190915250505090825250604080516020601f890181900481028201810190925287815291810191908890889081908401838280828437600092019190915250505090825250604080516020601f87018190048102820181019092528581529181019190869086908190840183828082843760009201829052509390945250506001600160a01b038c1681526003602090815260409091208351815490151560ff19821681178355928501519193509091839161ff001990911661ffff1990911617610100836005811115610b7f57610b7f611497565b021790555060408201516001820190610b9890826118ec565b5060608201516002820190610bad90826118ec565b5060808201516003820190610bc290826118ec565b509050506000610c088989898080601f016020809104026020016040519081016040528093929190818152602001838380828437600092019190915250610d8192505050565b604051631153ebfb60e21b81529091506001600160a01b037f000000000000000000000000000000000000000000000000000000000000000081169163454fafec91610c5d918e9182169086906004016119ab565b600060405180830381600087803b158015610c7757600080fd5b505af1158015610c8b573d6000803e3d6000fd5b50506040516340c10f1960e01b81526001600160a01b038d811660048301527f000000000000000000000000000000000000000000000000000000000000000060248301527f00000000000000000000000000000000000000000000000000000000000000001692506340c10f199150604401600060405180830381600087803b158015610d1857600080fd5b505af1158015610d2c573d6000803e3d6000fd5b50505050896001600160a01b03167fa8c194a0bb99fe5563599cd2f9a5c005a12a87ad542c02dd32d07fd57c1134258a8a8a604051610d6d939291906119db565b60405180910390a250505050505050505050565b606081604051602001610d9491906119fc565b604051602081830303815290604052905092915050565b6000918252602082815260408084206001600160a01b0393909316845291905290205460ff1690565b6000610ddf816111ec565b4780610e225760405162461bcd60e51b81526020600482015260126024820152714e6f2066756e647320617661696c61626c6560701b604482015260640161088e565b6001600160a01b038316610e6d5760405162461bcd60e51b8152602060048201526012602482015271149958da5c1a595b9d081c995c5d5a5c995960721b604482015260640161088e565b6105ce6001600160a01b038416826112f6565b600082815260208190526040902060010154610e9b816111ec565b610595838361128b565b6003602052600090815260409020805460018201805460ff8084169461010090940416929190610ed4906117ee565b80601f0160208091040260200160405190810160405280929190818152602001828054610f00906117ee565b8015610f4d5780601f10610f2257610100808354040283529160200191610f4d565b820191906000526020600020905b815481529060010190602001808311610f3057829003601f168201915b505050505090806002018054610f62906117ee565b80601f0160208091040260200160405190810160405280929190818152602001828054610f8e906117ee565b8015610fdb5780601f10610fb057610100808354040283529160200191610fdb565b820191906000526020600020905b815481529060010190602001808311610fbe57829003601f168201915b505050505090806003018054610ff0906117ee565b80601f016020809104026020016040519081016040528092919081815260200182805461101c906117ee565b80156110695780601f1061103e57610100808354040283529160200191611069565b820191906000526020600020905b81548152906001019060200180831161104c57829003601f168201915b5050505050905085565b600034116110c35760405162461bcd60e51b815260206004820152601f60248201527f446f6e6174696f6e206d7573742062652067726561746572207468616e203000604482015260640161088e565b34600260008282546110d5919061183e565b909155505033600090815260016020526040812080543492906110f990849061183e565b909155506000905061112b7f000000000000000000000000000000000000000000000000000000000000000034611a41565b6040516340c10f1960e01b8152336004820152602481018290529091507f00000000000000000000000000000000000000000000000000000000000000006001600160a01b0316906340c10f1990604401600060405180830381600087803b15801561119657600080fd5b505af11580156111aa573d6000803e3d6000fd5b505060408051348152602081018590523393507f4b0304ab2f313234b1cea012339c8f8c3bf2c8bb357d81a579cfdb35d2e3d03092500160405180910390a250565b6111f68133611386565b50565b60006112058383610dab565b611283576000838152602081815260408083206001600160a01b03861684529091529020805460ff1916600117905561123b3390565b6001600160a01b0316826001600160a01b0316847f2f8788117e7eff1d82e926ec794901d17c78024a50270940304540a733656f0d60405160405180910390a450600161056a565b50600061056a565b60006112978383610dab565b15611283576000838152602081815260408083206001600160a01b0386168085529252808320805460ff1916905551339286917ff6391f5c32d9c69d2a47ea670b442974b53935d1edc7fd64eb21e047a839171b9190a450600161056a565b804710156113205760405163cf47918160e01b81524760048201526024810182905260440161088e565b600080836001600160a01b03168360405160006040518083038185875af1925050503d806000811461136e576040519150601f19603f3d011682016040523d82523d6000602084013e611373565b606091505b50915091508161059557610595816113c3565b6113908282610dab565b6113bf5760405163e2517d3f60e01b81526001600160a01b03821660048201526024810183905260440161088e565b5050565b8051156113d257805160208201fd5b60405163d6bda27560e01b815260040160405180910390fd5b6000602082840312156113fd57600080fd5b81356001600160e01b03198116811461141557600080fd5b9392505050565b6001600160a01b03811681146111f657600080fd5b60006020828403121561144357600080fd5b81356114158161141c565b60006020828403121561146057600080fd5b5035919050565b6000806040838503121561147a57600080fd5b82359150602083013561148c8161141c565b809150509250929050565b634e487b7160e01b600052602160045260246000fd5b600681106114cb57634e487b7160e01b600052602160045260246000fd5b9052565b60005b838110156114ea5781810151838201526020016114d2565b50506000910152565b6000815180845261150b8160208601602086016114cf565b601f01601f19169290920160200192915050565b851515815261153160208201866114ad565b60a06040820152600061154760a08301866114f3565b828103606084015261155981866114f3565b9050828103608084015261156d81856114f3565b98975050505050505050565b60008083601f84011261158b57600080fd5b50813567ffffffffffffffff8111156115a357600080fd5b6020830191508360208285010111156115bb57600080fd5b9250929050565b600080600080606085870312156115d857600080fd5b84356115e38161141c565b935060208501359250604085013567ffffffffffffffff81111561160657600080fd5b61161287828801611579565b95989497509550505050565b80356006811061162d57600080fd5b919050565b60008060008060008060008060a0898b03121561164e57600080fd5b88356116598161141c565b975061166760208a0161161e565b9650604089013567ffffffffffffffff81111561168357600080fd5b61168f8b828c01611579565b909750955050606089013567ffffffffffffffff8111156116af57600080fd5b6116bb8b828c01611579565b909550935050608089013567ffffffffffffffff8111156116db57600080fd5b6116e78b828c01611579565b999c989b5096995094979396929594505050565b634e487b7160e01b600052604160045260246000fd5b6000806040838503121561172457600080fd5b61172d8361161e565b9150602083013567ffffffffffffffff81111561174957600080fd5b8301601f8101851361175a57600080fd5b803567ffffffffffffffff811115611774576117746116fb565b604051601f8201601f19908116603f0116810167ffffffffffffffff811182821017156117a3576117a36116fb565b6040528181528282016020018710156117bb57600080fd5b816020840160208301376000602083830101528093505050509250929050565b60208152600061141560208301846114f3565b600181811c9082168061180257607f821691505b60208210810361182257634e487b7160e01b600052602260045260246000fd5b50919050565b634e487b7160e01b600052601160045260246000fd5b8082018082111561056a5761056a611828565b81835281816020850137506000828201602090810191909152601f909101601f19169091010190565b60408152600061188e604083018587611851565b9050826020830152949350505050565b601f8211156105ce57806000526020600020601f840160051c810160208510156118c55750805b601f840160051c820191505b818110156118e557600081556001016118d1565b5050505050565b815167ffffffffffffffff811115611906576119066116fb565b61191a8161191484546117ee565b8461189e565b6020601f82116001811461194e57600083156119365750848201515b600019600385901b1c1916600184901b1784556118e5565b600084815260208120601f198516915b8281101561197e578785015182556020948501946001909201910161195e565b508482101561199c5786840151600019600387901b60f8161c191681555b50505050600190811b01905550565b60018060a01b03841681528260208201526060604082015260006119d260608301846114f3565b95945050505050565b6119e581856114ad565b6040602082015260006119d2604083018486611851565b7f68747470733a2f2f6578616d706c652e636f6d2f6d657461646174612f000000815260008251611a3481601d8501602087016114cf565b91909101601d0192915050565b808202811582820484141761056a5761056a61182856fea26469706673582212200481355ff0f9b2471a48f720fa00f63755fbc40a903dab7bb63128ac565aa6d164736f6c634300081c0033","opcodes":"PUSH2 0x100 PUSH1 0x40 MSTORE CALLVALUE DUP1 ISZERO PUSH2 0x11 JUMPI PUSH1 0x0 DUP1 REVERT JUMPDEST POP PUSH1 0x40 MLOAD PUSH2 0x1E23 CODESIZE SUB DUP1 PUSH2 0x1E23 DUP4 CODECOPY DUP2 ADD PUSH1 0x40 DUP2 SWAP1 MSTORE PUSH2 0x30 SWAP2 PUSH2 0x2D4 JUMP JUMPDEST PUSH1 0x1 PUSH1 0x1 PUSH1 0xA0 SHL SUB DUP6 AND PUSH2 0x8B JUMPI PUSH1 0x40 MLOAD PUSH3 0x461BCD PUSH1 0xE5 SHL DUP2 MSTORE PUSH1 0x20 PUSH1 0x4 DUP3 ADD MSTORE PUSH1 0x16 PUSH1 0x24 DUP3 ADD MSTORE PUSH32 0x41646D696E206164647265737320726571756972656400000000000000000000 PUSH1 0x44 DUP3 ADD MSTORE PUSH1 0x64 ADD JUMPDEST PUSH1 0x40 MLOAD DUP1 SWAP2 SUB SWAP1 REVERT JUMPDEST PUSH1 0x1 PUSH1 0x1 PUSH1 0xA0 SHL SUB DUP5 AND PUSH2 0xE1 JUMPI PUSH1 0x40 MLOAD PUSH3 0x461BCD PUSH1 0xE5 SHL DUP2 MSTORE PUSH1 0x20 PUSH1 0x4 DUP3 ADD MSTORE PUSH1 0x16 PUSH1 0x24 DUP3 ADD MSTORE PUSH32 0x546F6B656E206164647265737320726571756972656400000000000000000000 PUSH1 0x44 DUP3 ADD MSTORE PUSH1 0x64 ADD PUSH2 0x82 JUMP JUMPDEST PUSH1 0x1 PUSH1 0x1 PUSH1 0xA0 SHL SUB DUP4 AND PUSH2 0x137 JUMPI PUSH1 0x40 MLOAD PUSH3 0x461BCD PUSH1 0xE5 SHL DUP2 MSTORE PUSH1 0x20 PUSH1 0x4 DUP3 ADD MSTORE PUSH1 0x17 PUSH1 0x24 DUP3 ADD MSTORE PUSH32 0x43726564656E7469616C204E4654207265717569726564000000000000000000 PUSH1 0x44 DUP3 ADD MSTORE PUSH1 0x64 ADD PUSH2 0x82 JUMP JUMPDEST PUSH1 0x0 DUP2 GT PUSH2 0x187 JUMPI PUSH1 0x40 MLOAD PUSH3 0x461BCD PUSH1 0xE5 SHL DUP2 MSTORE PUSH1 0x20 PUSH1 0x4 DUP3 ADD DUP2 SWAP1 MSTORE PUSH1 0x24 DUP3 ADD MSTORE PUSH32 0x446F6E6174696F6E207265776172642072617465206D757374206265203E2030 PUSH1 0x44 DUP3 ADD MSTORE PUSH1 0x64 ADD PUSH2 0x82 JUMP JUMPDEST PUSH1 0x1 PUSH1 0x1 PUSH1 0xA0 SHL SUB DUP1 DUP6 AND PUSH1 0x80 MSTORE DUP4 AND PUSH1 0xA0 MSTORE PUSH1 0xC0 DUP3 SWAP1 MSTORE PUSH1 0xE0 DUP2 SWAP1 MSTORE PUSH2 0x1AF PUSH1 0x0 DUP7 PUSH2 0x210 JUMP JUMPDEST POP PUSH2 0x1DA PUSH32 0xEDCC084D3DCD65A1F7F23C65C46722FACA6953D28E43150A467CF43E5C309238 DUP7 PUSH2 0x210 JUMP JUMPDEST POP PUSH2 0x205 PUSH32 0xD9FA870F425ABCC65E9F66291FD387E7D8E4B1A8019D84DF97822B1A0643F585 DUP7 PUSH2 0x210 JUMP JUMPDEST POP POP POP POP POP POP PUSH2 0x332 JUMP JUMPDEST PUSH1 0x0 DUP3 DUP2 MSTORE PUSH1 0x20 DUP2 DUP2 MSTORE PUSH1 0x40 DUP1 DUP4 KECCAK256 PUSH1 0x1 PUSH1 0x1 PUSH1 0xA0 SHL SUB DUP6 AND DUP5 MSTORE SWAP1 SWAP2 MSTORE DUP2 KECCAK256 SLOAD PUSH1 0xFF AND PUSH2 0x2B2 JUMPI PUSH1 0x0 DUP4 DUP2 MSTORE PUSH1 0x20 DUP2 DUP2 MSTORE PUSH1 0x40 DUP1 DUP4 KECCAK256 PUSH1 0x1 PUSH1 0x1 PUSH1 0xA0 SHL SUB DUP7 AND DUP5 MSTORE SWAP1 SWAP2 MSTORE SWAP1 KECCAK256 DUP1 SLOAD PUSH1 0xFF NOT AND PUSH1 0x1 OR SWAP1 SSTORE PUSH2 0x26A CALLER SWAP1 JUMP JUMPDEST PUSH1 0x1 PUSH1 0x1 PUSH1 0xA0 SHL SUB AND DUP3 PUSH1 0x1 PUSH1 0x1 PUSH1 0xA0 SHL SUB AND DUP5 PUSH32 0x2F8788117E7EFF1D82E926EC794901D17C78024A50270940304540A733656F0D PUSH1 0x40 MLOAD PUSH1 0x40 MLOAD DUP1 SWAP2 SUB SWAP1 LOG4 POP PUSH1 0x1 PUSH2 0x2B6 JUMP JUMPDEST POP PUSH1 0x0 JUMPDEST SWAP3 SWAP2 POP POP JUMP JUMPDEST PUSH1 0x1 PUSH1 0x1 PUSH1 0xA0 SHL SUB DUP2 AND DUP2 EQ PUSH2 0x2D1 JUMPI PUSH1 0x0 DUP1 REVERT JUMPDEST POP JUMP JUMPDEST PUSH1 0x0 DUP1 PUSH1 0x0 DUP1 PUSH1 0x0 PUSH1 0xA0 DUP7 DUP9 SUB SLT ISZERO PUSH2 0x2EC JUMPI PUSH1 0x0 DUP1 REVERT JUMPDEST DUP6 MLOAD PUSH2 0x2F7 DUP2 PUSH2 0x2BC JUMP JUMPDEST PUSH1 0x20 DUP8 ADD MLOAD SWAP1 SWAP6 POP PUSH2 0x308 DUP2 PUSH2 0x2BC JUMP JUMPDEST PUSH1 0x40 DUP8 ADD MLOAD SWAP1 SWAP5 POP PUSH2 0x319 DUP2 PUSH2 0x2BC JUMP JUMPDEST PUSH1 0x60 DUP8 ADD MLOAD PUSH1 0x80 SWAP1 SWAP8 ADD MLOAD SWAP6 SWAP9 SWAP5 SWAP8 POP SWAP6 SWAP5 SWAP4 SWAP3 POP POP POP JUMP JUMPDEST PUSH1 0x80 MLOAD PUSH1 0xA0 MLOAD PUSH1 0xC0 MLOAD PUSH1 0xE0 MLOAD PUSH2 0x1A8E PUSH2 0x395 PUSH1 0x0 CODECOPY PUSH1 0x0 DUP2 DUP2 PUSH2 0x2E9 ADD MSTORE PUSH2 0x1106 ADD MSTORE PUSH1 0x0 DUP2 DUP2 PUSH2 0x438 ADD MSTORE PUSH2 0xCAC ADD MSTORE PUSH1 0x0 DUP2 DUP2 PUSH2 0x397 ADD MSTORE PUSH2 0xC22 ADD MSTORE PUSH1 0x0 DUP2 DUP2 PUSH2 0x517 ADD MSTORE DUP2 DUP2 PUSH2 0x92F ADD MSTORE DUP2 DUP2 PUSH2 0xCD2 ADD MSTORE PUSH2 0x114A ADD MSTORE PUSH2 0x1A8E PUSH1 0x0 RETURN INVALID PUSH1 0x80 PUSH1 0x40 MSTORE PUSH1 0x4 CALLDATASIZE LT PUSH2 0x14B JUMPI PUSH1 0x0 CALLDATALOAD PUSH1 0xE0 SHR DUP1 PUSH4 0x91D14854 GT PUSH2 0xB6 JUMPI DUP1 PUSH4 0xDE2ED893 GT PUSH2 0x6F JUMPI DUP1 PUSH4 0xDE2ED893 EQ PUSH2 0x45A JUMPI DUP1 PUSH4 0xEAA66A3C EQ PUSH2 0x470 JUMPI DUP1 PUSH4 0xED88C68E EQ PUSH2 0x490 JUMPI DUP1 PUSH4 0xF5C515BE EQ PUSH2 0x498 JUMPI DUP1 PUSH4 0xF68E9553 EQ PUSH2 0x4D1 JUMPI DUP1 PUSH4 0xFC0C546A EQ PUSH2 0x505 JUMPI PUSH1 0x0 DUP1 REVERT JUMPDEST DUP1 PUSH4 0x91D14854 EQ PUSH2 0x365 JUMPI DUP1 PUSH4 0x934FCD1B EQ PUSH2 0x385 JUMPI DUP1 PUSH4 0xA217FDDF EQ PUSH2 0x3D1 JUMPI DUP1 PUSH4 0xA56F5B53 EQ PUSH2 0x3E6 JUMPI DUP1 PUSH4 0xD547741F EQ PUSH2 0x406 JUMPI DUP1 PUSH4 0xD78360BC EQ PUSH2 0x426 JUMPI PUSH1 0x0 DUP1 REVERT JUMPDEST DUP1 PUSH4 0x4138D167 GT PUSH2 0x108 JUMPI DUP1 PUSH4 0x4138D167 EQ PUSH2 0x266 JUMPI DUP1 PUSH4 0x62158C75 EQ PUSH2 0x297 JUMPI DUP1 PUSH4 0x624C6722 EQ PUSH2 0x2B7 JUMPI DUP1 PUSH4 0x678F9350 EQ PUSH2 0x2D7 JUMPI DUP1 PUSH4 0x6B683257 EQ PUSH2 0x30B JUMPI DUP1 PUSH4 0x7B8C8DE1 EQ PUSH2 0x338 JUMPI PUSH1 0x0 DUP1 REVERT JUMPDEST DUP1 PUSH4 0x1FFC9A7 EQ PUSH2 0x150 JUMPI DUP1 PUSH4 0x9642841 EQ PUSH2 0x185 JUMPI DUP1 PUSH4 0x14E02500 EQ PUSH2 0x1C7 JUMPI DUP1 PUSH4 0x248A9CA3 EQ PUSH2 0x1F4 JUMPI DUP1 PUSH4 0x2F2FF15D EQ PUSH2 0x224 JUMPI DUP1 PUSH4 0x36568ABE EQ PUSH2 0x246 JUMPI JUMPDEST PUSH1 0x0 DUP1 REVERT JUMPDEST CALLVALUE DUP1 ISZERO PUSH2 0x15C JUMPI PUSH1 0x0 DUP1 REVERT JUMPDEST POP PUSH2 0x170 PUSH2 0x16B CALLDATASIZE PUSH1 0x4 PUSH2 0x13EB JUMP JUMPDEST PUSH2 0x539 JUMP JUMPDEST PUSH1 0x40 MLOAD SWAP1 ISZERO ISZERO DUP2 MSTORE PUSH1 0x20 ADD JUMPDEST PUSH1 0x40 MLOAD DUP1 SWAP2 SUB SWAP1 RETURN JUMPDEST CALLVALUE DUP1 ISZERO PUSH2 0x191 JUMPI PUSH1 0x0 DUP1 REVERT JUMPDEST POP PUSH2 0x1B9 PUSH32 0xD9FA870F425ABCC65E9F66291FD387E7D8E4B1A8019D84DF97822B1A0643F585 DUP2 JUMP JUMPDEST PUSH1 0x40 MLOAD SWAP1 DUP2 MSTORE PUSH1 0x20 ADD PUSH2 0x17C JUMP JUMPDEST CALLVALUE DUP1 ISZERO PUSH2 0x1D3 JUMPI PUSH1 0x0 DUP1 REVERT JUMPDEST POP PUSH2 0x1B9 PUSH2 0x1E2 CALLDATASIZE PUSH1 0x4 PUSH2 0x1431 JUMP JUMPDEST PUSH1 0x4 PUSH1 0x20 MSTORE PUSH1 0x0 SWAP1 DUP2 MSTORE PUSH1 0x40 SWAP1 KECCAK256 SLOAD DUP2 JUMP JUMPDEST CALLVALUE DUP1 ISZERO PUSH2 0x200 JUMPI PUSH1 0x0 DUP1 REVERT JUMPDEST POP PUSH2 0x1B9 PUSH2 0x20F CALLDATASIZE PUSH1 0x4 PUSH2 0x144E JUMP JUMPDEST PUSH1 0x0 SWAP1 DUP2 MSTORE PUSH1 0x20 DUP2 SWAP1 MSTORE PUSH1 0x40 SWAP1 KECCAK256 PUSH1 0x1 ADD SLOAD SWAP1 JUMP JUMPDEST CALLVALUE DUP1 ISZERO PUSH2 0x230 JUMPI PUSH1 0x0 DUP1 REVERT JUMPDEST POP PUSH2 0x244 PUSH2 0x23F CALLDATASIZE PUSH1 0x4 PUSH2 0x1467 JUMP JUMPDEST PUSH2 0x570 JUMP JUMPDEST STOP JUMPDEST CALLVALUE DUP1 ISZERO PUSH2 0x252 JUMPI PUSH1 0x0 DUP1 REVERT JUMPDEST POP PUSH2 0x244 PUSH2 0x261 CALLDATASIZE PUSH1 0x4 PUSH2 0x1467 JUMP JUMPDEST PUSH2 0x59B JUMP JUMPDEST CALLVALUE DUP1 ISZERO PUSH2 0x272 JUMPI PUSH1 0x0 DUP1 REVERT JUMPDEST POP PUSH2 0x286 PUSH2 0x281 CALLDATASIZE PUSH1 0x4 PUSH2 0x1431 JUMP JUMPDEST PUSH2 0x5D3 JUMP JUMPDEST PUSH1 0x40 MLOAD PUSH2 0x17C SWAP6 SWAP5 SWAP4 SWAP3 SWAP2 SWAP1 PUSH2 0x151F JUMP JUMPDEST CALLVALUE DUP1 ISZERO PUSH2 0x2A3 JUMPI PUSH1 0x0 DUP1 REVERT JUMPDEST POP PUSH2 0x244 PUSH2 0x2B2 CALLDATASIZE PUSH1 0x4 PUSH2 0x15C2 JUMP JUMPDEST PUSH2 0x823 JUMP JUMPDEST CALLVALUE DUP1 ISZERO PUSH2 0x2C3 JUMPI PUSH1 0x0 DUP1 REVERT JUMPDEST POP PUSH2 0x244 PUSH2 0x2D2 CALLDATASIZE PUSH1 0x4 PUSH2 0x1632 JUMP JUMPDEST PUSH2 0x9D7 JUMP JUMPDEST CALLVALUE DUP1 ISZERO PUSH2 0x2E3 JUMPI PUSH1 0x0 DUP1 REVERT JUMPDEST POP PUSH2 0x1B9 PUSH32 0x0 DUP2 JUMP JUMPDEST CALLVALUE DUP1 ISZERO PUSH2 0x317 JUMPI PUSH1 0x0 DUP1 REVERT JUMPDEST POP PUSH2 0x32B PUSH2 0x326 CALLDATASIZE PUSH1 0x4 PUSH2 0x1711 JUMP JUMPDEST PUSH2 0xD81 JUMP JUMPDEST PUSH1 0x40 MLOAD PUSH2 0x17C SWAP2 SWAP1 PUSH2 0x17DB JUMP JUMPDEST CALLVALUE DUP1 ISZERO PUSH2 0x344 JUMPI PUSH1 0x0 DUP1 REVERT JUMPDEST POP PUSH2 0x1B9 PUSH2 0x353 CALLDATASIZE PUSH1 0x4 PUSH2 0x1431 JUMP JUMPDEST PUSH1 0x1 PUSH1 0x20 MSTORE PUSH1 0x0 SWAP1 DUP2 MSTORE PUSH1 0x40 SWAP1 KECCAK256 SLOAD DUP2 JUMP JUMPDEST CALLVALUE DUP1 ISZERO PUSH2 0x371 JUMPI PUSH1 0x0 DUP1 REVERT JUMPDEST POP PUSH2 0x170 PUSH2 0x380 CALLDATASIZE PUSH1 0x4 PUSH2 0x1467 JUMP JUMPDEST PUSH2 0xDAB JUMP JUMPDEST CALLVALUE DUP1 ISZERO PUSH2 0x391 JUMPI PUSH1 0x0 DUP1 REVERT JUMPDEST POP PUSH2 0x3B9 PUSH32 0x0 DUP2 JUMP JUMPDEST PUSH1 0x40 MLOAD PUSH1 0x1 PUSH1 0x1 PUSH1 0xA0 SHL SUB SWAP1 SWAP2 AND DUP2 MSTORE PUSH1 0x20 ADD PUSH2 0x17C JUMP JUMPDEST CALLVALUE DUP1 ISZERO PUSH2 0x3DD JUMPI PUSH1 0x0 DUP1 REVERT JUMPDEST POP PUSH2 0x1B9 PUSH1 0x0 DUP2 JUMP JUMPDEST CALLVALUE DUP1 ISZERO PUSH2 0x3F2 JUMPI PUSH1 0x0 DUP1 REVERT JUMPDEST POP PUSH2 0x244 PUSH2 0x401 CALLDATASIZE PUSH1 0x4 PUSH2 0x1431 JUMP JUMPDEST PUSH2 0xDD4 JUMP JUMPDEST CALLVALUE DUP1 ISZERO PUSH2 0x412 JUMPI PUSH1 0x0 DUP1 REVERT JUMPDEST POP PUSH2 0x244 PUSH2 0x421 CALLDATASIZE PUSH1 0x4 PUSH2 0x1467 JUMP JUMPDEST PUSH2 0xE80 JUMP JUMPDEST CALLVALUE DUP1 ISZERO PUSH2 0x432 JUMPI PUSH1 0x0 DUP1 REVERT JUMPDEST POP PUSH2 0x1B9 PUSH32 0x0 DUP2 JUMP JUMPDEST CALLVALUE DUP1 ISZERO PUSH2 0x466 JUMPI PUSH1 0x0 DUP1 REVERT JUMPDEST POP PUSH2 0x1B9 PUSH1 0x2 SLOAD DUP2 JUMP JUMPDEST CALLVALUE DUP1 ISZERO PUSH2 0x47C JUMPI PUSH1 0x0 DUP1 REVERT JUMPDEST POP PUSH2 0x286 PUSH2 0x48B CALLDATASIZE PUSH1 0x4 PUSH2 0x1431 JUMP JUMPDEST PUSH2 0xEA5 JUMP JUMPDEST PUSH2 0x244 PUSH2 0x1073 JUMP JUMPDEST CALLVALUE DUP1 ISZERO PUSH2 0x4A4 JUMPI PUSH1 0x0 DUP1 REVERT JUMPDEST POP PUSH2 0x170 PUSH2 0x4B3 CALLDATASIZE PUSH1 0x4 PUSH2 0x1431 JUMP JUMPDEST PUSH1 0x1 PUSH1 0x1 PUSH1 0xA0 SHL SUB AND PUSH1 0x0 SWAP1 DUP2 MSTORE PUSH1 0x3 PUSH1 0x20 MSTORE PUSH1 0x40 SWAP1 KECCAK256 SLOAD PUSH1 0xFF AND SWAP1 JUMP JUMPDEST CALLVALUE DUP1 ISZERO PUSH2 0x4DD JUMPI PUSH1 0x0 DUP1 REVERT JUMPDEST POP PUSH2 0x1B9 PUSH32 0xEDCC084D3DCD65A1F7F23C65C46722FACA6953D28E43150A467CF43E5C309238 DUP2 JUMP JUMPDEST CALLVALUE DUP1 ISZERO PUSH2 0x511 JUMPI PUSH1 0x0 DUP1 REVERT JUMPDEST POP PUSH2 0x3B9 PUSH32 0x0 DUP2 JUMP JUMPDEST PUSH1 0x0 PUSH1 0x1 PUSH1 0x1 PUSH1 0xE0 SHL SUB NOT DUP3 AND PUSH4 0x7965DB0B PUSH1 0xE0 SHL EQ DUP1 PUSH2 0x56A JUMPI POP PUSH4 0x1FFC9A7 PUSH1 0xE0 SHL PUSH1 0x1 PUSH1 0x1 PUSH1 0xE0 SHL SUB NOT DUP4 AND EQ JUMPDEST SWAP3 SWAP2 POP POP JUMP JUMPDEST PUSH1 0x0 DUP3 DUP2 MSTORE PUSH1 0x20 DUP2 SWAP1 MSTORE PUSH1 0x40 SWAP1 KECCAK256 PUSH1 0x1 ADD SLOAD PUSH2 0x58B DUP2 PUSH2 0x11EC JUMP JUMPDEST PUSH2 0x595 DUP4 DUP4 PUSH2 0x11F9 JUMP JUMPDEST POP POP POP POP JUMP JUMPDEST PUSH1 0x1 PUSH1 0x1 PUSH1 0xA0 SHL SUB DUP2 AND CALLER EQ PUSH2 0x5C4 JUMPI PUSH1 0x40 MLOAD PUSH4 0x334BD919 PUSH1 0xE1 SHL DUP2 MSTORE PUSH1 0x4 ADD PUSH1 0x40 MLOAD DUP1 SWAP2 SUB SWAP1 REVERT JUMPDEST PUSH2 0x5CE DUP3 DUP3 PUSH2 0x128B JUMP JUMPDEST POP POP POP JUMP JUMPDEST PUSH1 0x1 PUSH1 0x1 PUSH1 0xA0 SHL SUB DUP2 AND PUSH1 0x0 SWAP1 DUP2 MSTORE PUSH1 0x3 PUSH1 0x20 SWAP1 DUP2 MSTORE PUSH1 0x40 DUP1 DUP4 KECCAK256 DUP2 MLOAD PUSH1 0xA0 DUP2 ADD SWAP1 SWAP3 MSTORE DUP1 SLOAD PUSH1 0xFF DUP1 DUP3 AND ISZERO ISZERO DUP5 MSTORE DUP6 SWAP5 PUSH1 0x60 SWAP5 DUP6 SWAP5 DUP6 SWAP5 DUP9 SWAP5 SWAP3 SWAP4 SWAP2 SWAP3 SWAP2 DUP5 ADD SWAP2 PUSH2 0x100 SWAP1 SWAP2 DIV AND PUSH1 0x5 DUP2 GT ISZERO PUSH2 0x62D JUMPI PUSH2 0x62D PUSH2 0x1497 JUMP JUMPDEST PUSH1 0x5 DUP2 GT ISZERO PUSH2 0x63E JUMPI PUSH2 0x63E PUSH2 0x1497 JUMP JUMPDEST DUP2 MSTORE PUSH1 0x20 ADD PUSH1 0x1 DUP3 ADD DUP1 SLOAD PUSH2 0x652 SWAP1 PUSH2 0x17EE JUMP JUMPDEST DUP1 PUSH1 0x1F ADD PUSH1 0x20 DUP1 SWAP2 DIV MUL PUSH1 0x20 ADD PUSH1 0x40 MLOAD SWAP1 DUP2 ADD PUSH1 0x40 MSTORE DUP1 SWAP3 SWAP2 SWAP1 DUP2 DUP2 MSTORE PUSH1 0x20 ADD DUP3 DUP1 SLOAD PUSH2 0x67E SWAP1 PUSH2 0x17EE JUMP JUMPDEST DUP1 ISZERO PUSH2 0x6CB JUMPI DUP1 PUSH1 0x1F LT PUSH2 0x6A0 JUMPI PUSH2 0x100 DUP1 DUP4 SLOAD DIV MUL DUP4 MSTORE SWAP2 PUSH1 0x20 ADD SWAP2 PUSH2 0x6CB JUMP JUMPDEST DUP3 ADD SWAP2 SWAP1 PUSH1 0x0 MSTORE PUSH1 0x20 PUSH1 0x0 KECCAK256 SWAP1 JUMPDEST DUP2 SLOAD DUP2 MSTORE SWAP1 PUSH1 0x1 ADD SWAP1 PUSH1 0x20 ADD DUP1 DUP4 GT PUSH2 0x6AE JUMPI DUP3 SWAP1 SUB PUSH1 0x1F AND DUP3 ADD SWAP2 JUMPDEST POP POP POP POP POP DUP2 MSTORE PUSH1 0x20 ADD PUSH1 0x2 DUP3 ADD DUP1 SLOAD PUSH2 0x6E4 SWAP1 PUSH2 0x17EE JUMP JUMPDEST DUP1 PUSH1 0x1F ADD PUSH1 0x20 DUP1 SWAP2 DIV MUL PUSH1 0x20 ADD PUSH1 0x40 MLOAD SWAP1 DUP2 ADD PUSH1 0x40 MSTORE DUP1 SWAP3 SWAP2 SWAP1 DUP2 DUP2 MSTORE PUSH1 0x20 ADD DUP3 DUP1 SLOAD PUSH2 0x710 SWAP1 PUSH2 0x17EE JUMP JUMPDEST DUP1 ISZERO PUSH2 0x75D JUMPI DUP1 PUSH1 0x1F LT PUSH2 0x732 JUMPI PUSH2 0x100 DUP1 DUP4 SLOAD DIV MUL DUP4 MSTORE SWAP2 PUSH1 0x20 ADD SWAP2 PUSH2 0x75D JUMP JUMPDEST DUP3 ADD SWAP2 SWAP1 PUSH1 0x0 MSTORE PUSH1 0x20 PUSH1 0x0 KECCAK256 SWAP1 JUMPDEST DUP2 SLOAD DUP2 MSTORE SWAP1 PUSH1 0x1 ADD SWAP1 PUSH1 0x20 ADD DUP1 DUP4 GT PUSH2 0x740 JUMPI DUP3 SWAP1 SUB PUSH1 0x1F AND DUP3 ADD SWAP2 JUMPDEST POP POP POP POP POP DUP2 MSTORE PUSH1 0x20 ADD PUSH1 0x3 DUP3 ADD DUP1 SLOAD PUSH2 0x776 SWAP1 PUSH2 0x17EE JUMP JUMPDEST DUP1 PUSH1 0x1F ADD PUSH1 0x20 DUP1 SWAP2 DIV MUL PUSH1 0x20 ADD PUSH1 0x40 MLOAD SWAP1 DUP2 ADD PUSH1 0x40 MSTORE DUP1 SWAP3 SWAP2 SWAP1 DUP2 DUP2 MSTORE PUSH1 0x20 ADD DUP3 DUP1 SLOAD PUSH2 0x7A2 SWAP1 PUSH2 0x17EE JUMP JUMPDEST DUP1 ISZERO PUSH2 0x7EF JUMPI DUP1 PUSH1 0x1F LT PUSH2 0x7C4 JUMPI PUSH2 0x100 DUP1 DUP4 SLOAD DIV MUL DUP4 MSTORE SWAP2 PUSH1 0x20 ADD SWAP2 PUSH2 0x7EF JUMP JUMPDEST DUP3 ADD SWAP2 SWAP1 PUSH1 0x0 MSTORE PUSH1 0x20 PUSH1 0x0 KECCAK256 SWAP1 JUMPDEST DUP2 SLOAD DUP2 MSTORE SWAP1 PUSH1 0x1 ADD SWAP1 PUSH1 0x20 ADD DUP1 DUP4 GT PUSH2 0x7D2 JUMPI DUP3 SWAP1 SUB PUSH1 0x1F AND DUP3 ADD SWAP2 JUMPDEST POP POP POP SWAP2 SWAP1 SWAP3 MSTORE POP POP DUP2 MLOAD PUSH1 0x20 DUP4 ADD MLOAD PUSH1 0x40 DUP5 ADD MLOAD PUSH1 0x60 DUP6 ADD MLOAD PUSH1 0x80 SWAP1 SWAP6 ADD MLOAD SWAP3 SWAP13 SWAP2 SWAP12 POP SWAP10 POP SWAP3 SWAP8 POP SWAP6 POP SWAP1 SWAP4 POP POP POP POP JUMP JUMPDEST PUSH32 0xD9FA870F425ABCC65E9F66291FD387E7D8E4B1A8019D84DF97822B1A0643F585 PUSH2 0x84D DUP2 PUSH2 0x11EC JUMP JUMPDEST PUSH1 0x1 PUSH1 0x1 PUSH1 0xA0 SHL SUB DUP6 AND PUSH2 0x897 JUMPI PUSH1 0x40 MLOAD PUSH3 0x461BCD PUSH1 0xE5 SHL DUP2 MSTORE PUSH1 0x20 PUSH1 0x4 DUP3 ADD MSTORE PUSH1 0xC PUSH1 0x24 DUP3 ADD MSTORE PUSH12 0x24B73B30B634B2103AB9B2B9 PUSH1 0xA1 SHL PUSH1 0x44 DUP3 ADD MSTORE PUSH1 0x64 ADD JUMPDEST PUSH1 0x40 MLOAD DUP1 SWAP2 SUB SWAP1 REVERT JUMPDEST PUSH1 0x0 DUP5 GT PUSH2 0x8DC JUMPI PUSH1 0x40 MLOAD PUSH3 0x461BCD PUSH1 0xE5 SHL DUP2 MSTORE PUSH1 0x20 PUSH1 0x4 DUP3 ADD MSTORE PUSH1 0x12 PUSH1 0x24 DUP3 ADD MSTORE PUSH18 0x526577617264206D757374206265203E203 PUSH1 0x74 SHL PUSH1 0x44 DUP3 ADD MSTORE PUSH1 0x64 ADD PUSH2 0x88E JUMP JUMPDEST PUSH1 0x1 PUSH1 0x1 PUSH1 0xA0 SHL SUB DUP6 AND PUSH1 0x0 SWAP1 DUP2 MSTORE PUSH1 0x4 PUSH1 0x20 MSTORE PUSH1 0x40 DUP2 KECCAK256 DUP1 SLOAD DUP7 SWAP3 SWAP1 PUSH2 0x904 SWAP1 DUP5 SWAP1 PUSH2 0x183E JUMP JUMPDEST SWAP1 SWAP2 SSTORE POP POP PUSH1 0x40 MLOAD PUSH4 0x40C10F19 PUSH1 0xE0 SHL DUP2 MSTORE PUSH1 0x1 PUSH1 0x1 PUSH1 0xA0 SHL SUB DUP7 DUP2 AND PUSH1 0x4 DUP4 ADD MSTORE PUSH1 0x24 DUP3 ADD DUP7 SWAP1 MSTORE PUSH32 0x0 AND SWAP1 PUSH4 0x40C10F19 SWAP1 PUSH1 0x44 ADD PUSH1 0x0 PUSH1 0x40 MLOAD DUP1 DUP4 SUB DUP2 PUSH1 0x0 DUP8 DUP1 EXTCODESIZE ISZERO DUP1 ISZERO PUSH2 0x973 JUMPI PUSH1 0x0 DUP1 REVERT JUMPDEST POP GAS CALL ISZERO DUP1 ISZERO PUSH2 0x987 JUMPI RETURNDATASIZE PUSH1 0x0 DUP1 RETURNDATACOPY RETURNDATASIZE PUSH1 0x0 REVERT JUMPDEST POP POP POP POP DUP5 PUSH1 0x1 PUSH1 0x1 PUSH1 0xA0 SHL SUB AND PUSH32 0xF746C75AB19937D58B2A3E0406D8D5FCD1E8AE5545A89C47E88E53497787182C DUP5 DUP5 DUP8 PUSH1 0x40 MLOAD PUSH2 0x9C8 SWAP4 SWAP3 SWAP2 SWAP1 PUSH2 0x187A JUMP JUMPDEST PUSH1 0x40 MLOAD DUP1 SWAP2 SUB SWAP1 LOG2 POP POP POP POP POP JUMP JUMPDEST PUSH32 0xEDCC084D3DCD65A1F7F23C65C46722FACA6953D28E43150A467CF43E5C309238 PUSH2 0xA01 DUP2 PUSH2 0x11EC JUMP JUMPDEST PUSH1 0x1 PUSH1 0x1 PUSH1 0xA0 SHL SUB DUP10 AND PUSH2 0xA4F JUMPI PUSH1 0x40 MLOAD PUSH3 0x461BCD PUSH1 0xE5 SHL DUP2 MSTORE PUSH1 0x20 PUSH1 0x4 DUP3 ADD MSTORE PUSH1 0x15 PUSH1 0x24 DUP3 ADD MSTORE PUSH21 0x496E76616C6964206163746F722061646472657373 PUSH1 0x58 SHL PUSH1 0x44 DUP3 ADD MSTORE PUSH1 0x64 ADD PUSH2 0x88E JUMP JUMPDEST PUSH1 0x40 MLOAD DUP1 PUSH1 0xA0 ADD PUSH1 0x40 MSTORE DUP1 PUSH1 0x1 ISZERO ISZERO DUP2 MSTORE PUSH1 0x20 ADD DUP10 PUSH1 0x5 DUP2 GT ISZERO PUSH2 0xA75 JUMPI PUSH2 0xA75 PUSH2 0x1497 JUMP JUMPDEST DUP2 MSTORE PUSH1 0x20 ADD DUP9 DUP9 DUP1 DUP1 PUSH1 0x1F ADD PUSH1 0x20 DUP1 SWAP2 DIV MUL PUSH1 0x20 ADD PUSH1 0x40 MLOAD SWAP1 DUP2 ADD PUSH1 0x40 MSTORE DUP1 SWAP4 SWAP3 SWAP2 SWAP1 DUP2 DUP2 MSTORE PUSH1 0x20 ADD DUP4 DUP4 DUP1 DUP3 DUP5 CALLDATACOPY PUSH1 0x0 SWAP3 ADD SWAP2 SWAP1 SWAP2 MSTORE POP POP POP SWAP1 DUP3 MSTORE POP PUSH1 0x40 DUP1 MLOAD PUSH1 0x20 PUSH1 0x1F DUP10 ADD DUP2 SWAP1 DIV DUP2 MUL DUP3 ADD DUP2 ADD SWAP1 SWAP3 MSTORE DUP8 DUP2 MSTORE SWAP2 DUP2 ADD SWAP2 SWAP1 DUP9 SWAP1 DUP9 SWAP1 DUP2 SWAP1 DUP5 ADD DUP4 DUP3 DUP1 DUP3 DUP5 CALLDATACOPY PUSH1 0x0 SWAP3 ADD SWAP2 SWAP1 SWAP2 MSTORE POP POP POP SWAP1 DUP3 MSTORE POP PUSH1 0x40 DUP1 MLOAD PUSH1 0x20 PUSH1 0x1F DUP8 ADD DUP2 SWAP1 DIV DUP2 MUL DUP3 ADD DUP2 ADD SWAP1 SWAP3 MSTORE DUP6 DUP2 MSTORE SWAP2 DUP2 ADD SWAP2 SWAP1 DUP7 SWAP1 DUP7 SWAP1 DUP2 SWAP1 DUP5 ADD DUP4 DUP3 DUP1 DUP3 DUP5 CALLDATACOPY PUSH1 0x0 SWAP3 ADD DUP3 SWAP1 MSTORE POP SWAP4 SWAP1 SWAP5 MSTORE POP POP PUSH1 0x1 PUSH1 0x1 PUSH1 0xA0 SHL SUB DUP13 AND DUP2 MSTORE PUSH1 0x3 PUSH1 0x20 SWAP1 DUP2 MSTORE PUSH1 0x40 SWAP1 SWAP2 KECCAK256 DUP4 MLOAD DUP2 SLOAD SWAP1 ISZERO ISZERO PUSH1 0xFF NOT DUP3 AND DUP2 OR DUP4 SSTORE SWAP3 DUP6 ADD MLOAD SWAP2 SWAP4 POP SWAP1 SWAP2 DUP4 SWAP2 PUSH2 0xFF00 NOT SWAP1 SWAP2 AND PUSH2 0xFFFF NOT SWAP1 SWAP2 AND OR PUSH2 0x100 DUP4 PUSH1 0x5 DUP2 GT ISZERO PUSH2 0xB7F JUMPI PUSH2 0xB7F PUSH2 0x1497 JUMP JUMPDEST MUL OR SWAP1 SSTORE POP PUSH1 0x40 DUP3 ADD MLOAD PUSH1 0x1 DUP3 ADD SWAP1 PUSH2 0xB98 SWAP1 DUP3 PUSH2 0x18EC JUMP JUMPDEST POP PUSH1 0x60 DUP3 ADD MLOAD PUSH1 0x2 DUP3 ADD SWAP1 PUSH2 0xBAD SWAP1 DUP3 PUSH2 0x18EC JUMP JUMPDEST POP PUSH1 0x80 DUP3 ADD MLOAD PUSH1 0x3 DUP3 ADD SWAP1 PUSH2 0xBC2 SWAP1 DUP3 PUSH2 0x18EC JUMP JUMPDEST POP SWAP1 POP POP PUSH1 0x0 PUSH2 0xC08 DUP10 DUP10 DUP10 DUP1 DUP1 PUSH1 0x1F ADD PUSH1 0x20 DUP1 SWAP2 DIV MUL PUSH1 0x20 ADD PUSH1 0x40 MLOAD SWAP1 DUP2 ADD PUSH1 0x40 MSTORE DUP1 SWAP4 SWAP3 SWAP2 SWAP1 DUP2 DUP2 MSTORE PUSH1 0x20 ADD DUP4 DUP4 DUP1 DUP3 DUP5 CALLDATACOPY PUSH1 0x0 SWAP3 ADD SWAP2 SWAP1 SWAP2 MSTORE POP PUSH2 0xD81 SWAP3 POP POP POP JUMP JUMPDEST PUSH1 0x40 MLOAD PUSH4 0x1153EBFB PUSH1 0xE2 SHL DUP2 MSTORE SWAP1 SWAP2 POP PUSH1 0x1 PUSH1 0x1 PUSH1 0xA0 SHL SUB PUSH32 0x0 DUP2 AND SWAP2 PUSH4 0x454FAFEC SWAP2 PUSH2 0xC5D SWAP2 DUP15 SWAP2 DUP3 AND SWAP1 DUP7 SWAP1 PUSH1 0x4 ADD PUSH2 0x19AB JUMP JUMPDEST PUSH1 0x0 PUSH1 0x40 MLOAD DUP1 DUP4 SUB DUP2 PUSH1 0x0 DUP8 DUP1 EXTCODESIZE ISZERO DUP1 ISZERO PUSH2 0xC77 JUMPI PUSH1 0x0 DUP1 REVERT JUMPDEST POP GAS CALL ISZERO DUP1 ISZERO PUSH2 0xC8B JUMPI RETURNDATASIZE PUSH1 0x0 DUP1 RETURNDATACOPY RETURNDATASIZE PUSH1 0x0 REVERT JUMPDEST POP POP PUSH1 0x40 MLOAD PUSH4 0x40C10F19 PUSH1 0xE0 SHL DUP2 MSTORE PUSH1 0x1 PUSH1 0x1 PUSH1 0xA0 SHL SUB DUP14 DUP2 AND PUSH1 0x4 DUP4 ADD MSTORE PUSH32 0x0 PUSH1 0x24 DUP4 ADD MSTORE PUSH32 0x0 AND SWAP3 POP PUSH4 0x40C10F19 SWAP2 POP PUSH1 0x44 ADD PUSH1 0x0 PUSH1 0x40 MLOAD DUP1 DUP4 SUB DUP2 PUSH1 0x0 DUP8 DUP1 EXTCODESIZE ISZERO DUP1 ISZERO PUSH2 0xD18 JUMPI PUSH1 0x0 DUP1 REVERT JUMPDEST POP GAS CALL ISZERO DUP1 ISZERO PUSH2 0xD2C JUMPI RETURNDATASIZE PUSH1 0x0 DUP1 RETURNDATACOPY RETURNDATASIZE PUSH1 0x0 REVERT JUMPDEST POP POP POP POP DUP10 PUSH1 0x1 PUSH1 0x1 PUSH1 0xA0 SHL SUB AND PUSH32 0xA8C194A0BB99FE5563599CD2F9A5C005A12A87AD542C02DD32D07FD57C113425 DUP11 DUP11 DUP11 PUSH1 0x40 MLOAD PUSH2 0xD6D SWAP4 SWAP3 SWAP2 SWAP1 PUSH2 0x19DB JUMP JUMPDEST PUSH1 0x40 MLOAD DUP1 SWAP2 SUB SWAP1 LOG2 POP POP POP POP POP POP POP POP POP POP JUMP JUMPDEST PUSH1 0x60 DUP2 PUSH1 0x40 MLOAD PUSH1 0x20 ADD PUSH2 0xD94 SWAP2 SWAP1 PUSH2 0x19FC JUMP JUMPDEST PUSH1 0x40 MLOAD PUSH1 0x20 DUP2 DUP4 SUB SUB DUP2 MSTORE SWAP1 PUSH1 0x40 MSTORE SWAP1 POP SWAP3 SWAP2 POP POP JUMP JUMPDEST PUSH1 0x0 SWAP2 DUP3 MSTORE PUSH1 0x20 DUP3 DUP2 MSTORE PUSH1 0x40 DUP1 DUP5 KECCAK256 PUSH1 0x1 PUSH1 0x1 PUSH1 0xA0 SHL SUB SWAP4 SWAP1 SWAP4 AND DUP5 MSTORE SWAP2 SWAP1 MSTORE SWAP1 KECCAK256 SLOAD PUSH1 0xFF AND SWAP1 JUMP JUMPDEST PUSH1 0x0 PUSH2 0xDDF DUP2 PUSH2 0x11EC JUMP JUMPDEST SELFBALANCE DUP1 PUSH2 0xE22 JUMPI PUSH1 0x40 MLOAD PUSH3 0x461BCD PUSH1 0xE5 SHL DUP2 MSTORE PUSH1 0x20 PUSH1 0x4 DUP3 ADD MSTORE PUSH1 0x12 PUSH1 0x24 DUP3 ADD MSTORE PUSH18 0x4E6F2066756E647320617661696C61626C65 PUSH1 0x70 SHL PUSH1 0x44 DUP3 ADD MSTORE PUSH1 0x64 ADD PUSH2 0x88E JUMP JUMPDEST PUSH1 0x1 PUSH1 0x1 PUSH1 0xA0 SHL SUB DUP4 AND PUSH2 0xE6D JUMPI PUSH1 0x40 MLOAD PUSH3 0x461BCD PUSH1 0xE5 SHL DUP2 MSTORE PUSH1 0x20 PUSH1 0x4 DUP3 ADD MSTORE PUSH1 0x12 PUSH1 0x24 DUP3 ADD MSTORE PUSH18 0x149958DA5C1A595B9D081C995C5D5A5C9959 PUSH1 0x72 SHL PUSH1 0x44 DUP3 ADD MSTORE PUSH1 0x64 ADD PUSH2 0x88E JUMP JUMPDEST PUSH2 0x5CE PUSH1 0x1 PUSH1 0x1 PUSH1 0xA0 SHL SUB DUP5 AND DUP3 PUSH2 0x12F6 JUMP JUMPDEST PUSH1 0x0 DUP3 DUP2 MSTORE PUSH1 0x20 DUP2 SWAP1 MSTORE PUSH1 0x40 SWAP1 KECCAK256 PUSH1 0x1 ADD SLOAD PUSH2 0xE9B DUP2 PUSH2 0x11EC JUMP JUMPDEST PUSH2 0x595 DUP4 DUP4 PUSH2 0x128B JUMP JUMPDEST PUSH1 0x3 PUSH1 0x20 MSTORE PUSH1 0x0 SWAP1 DUP2 MSTORE PUSH1 0x40 SWAP1 KECCAK256 DUP1 SLOAD PUSH1 0x1 DUP3 ADD DUP1 SLOAD PUSH1 0xFF DUP1 DUP5 AND SWAP5 PUSH2 0x100 SWAP1 SWAP5 DIV AND SWAP3 SWAP2 SWAP1 PUSH2 0xED4 SWAP1 PUSH2 0x17EE JUMP JUMPDEST DUP1 PUSH1 0x1F ADD PUSH1 0x20 DUP1 SWAP2 DIV MUL PUSH1 0x20 ADD PUSH1 0x40 MLOAD SWAP1 DUP2 ADD PUSH1 0x40 MSTORE DUP1 SWAP3 SWAP2 SWAP1 DUP2 DUP2 MSTORE PUSH1 0x20 ADD DUP3 DUP1 SLOAD PUSH2 0xF00 SWAP1 PUSH2 0x17EE JUMP JUMPDEST DUP1 ISZERO PUSH2 0xF4D JUMPI DUP1 PUSH1 0x1F LT PUSH2 0xF22 JUMPI PUSH2 0x100 DUP1 DUP4 SLOAD DIV MUL DUP4 MSTORE SWAP2 PUSH1 0x20 ADD SWAP2 PUSH2 0xF4D JUMP JUMPDEST DUP3 ADD SWAP2 SWAP1 PUSH1 0x0 MSTORE PUSH1 0x20 PUSH1 0x0 KECCAK256 SWAP1 JUMPDEST DUP2 SLOAD DUP2 MSTORE SWAP1 PUSH1 0x1 ADD SWAP1 PUSH1 0x20 ADD DUP1 DUP4 GT PUSH2 0xF30 JUMPI DUP3 SWAP1 SUB PUSH1 0x1F AND DUP3 ADD SWAP2 JUMPDEST POP POP POP POP POP SWAP1 DUP1 PUSH1 0x2 ADD DUP1 SLOAD PUSH2 0xF62 SWAP1 PUSH2 0x17EE JUMP JUMPDEST DUP1 PUSH1 0x1F ADD PUSH1 0x20 DUP1 SWAP2 DIV MUL PUSH1 0x20 ADD PUSH1 0x40 MLOAD SWAP1 DUP2 ADD PUSH1 0x40 MSTORE DUP1 SWAP3 SWAP2 SWAP1 DUP2 DUP2 MSTORE PUSH1 0x20 ADD DUP3 DUP1 SLOAD PUSH2 0xF8E SWAP1 PUSH2 0x17EE JUMP JUMPDEST DUP1 ISZERO PUSH2 0xFDB JUMPI DUP1 PUSH1 0x1F LT PUSH2 0xFB0 JUMPI PUSH2 0x100 DUP1 DUP4 SLOAD DIV MUL DUP4 MSTORE SWAP2 PUSH1 0x20 ADD SWAP2 PUSH2 0xFDB JUMP JUMPDEST DUP3 ADD SWAP2 SWAP1 PUSH1 0x0 MSTORE PUSH1 0x20 PUSH1 0x0 KECCAK256 SWAP1 JUMPDEST DUP2 SLOAD DUP2 MSTORE SWAP1 PUSH1 0x1 ADD SWAP1 PUSH1 0x20 ADD DUP1 DUP4 GT PUSH2 0xFBE JUMPI DUP3 SWAP1 SUB PUSH1 0x1F AND DUP3 ADD SWAP2 JUMPDEST POP POP POP POP POP SWAP1 DUP1 PUSH1 0x3 ADD DUP1 SLOAD PUSH2 0xFF0 SWAP1 PUSH2 0x17EE JUMP JUMPDEST DUP1 PUSH1 0x1F ADD PUSH1 0x20 DUP1 SWAP2 DIV MUL PUSH1 0x20 ADD PUSH1 0x40 MLOAD SWAP1 DUP2 ADD PUSH1 0x40 MSTORE DUP1 SWAP3 SWAP2 SWAP1 DUP2 DUP2 MSTORE PUSH1 0x20 ADD DUP3 DUP1 SLOAD PUSH2 0x101C SWAP1 PUSH2 0x17EE JUMP JUMPDEST DUP1 ISZERO PUSH2 0x1069 JUMPI DUP1 PUSH1 0x1F LT PUSH2 0x103E JUMPI PUSH2 0x100 DUP1 DUP4 SLOAD DIV MUL DUP4 MSTORE SWAP2 PUSH1 0x20 ADD SWAP2 PUSH2 0x1069 JUMP JUMPDEST DUP3 ADD SWAP2 SWAP1 PUSH1 0x0 MSTORE PUSH1 0x20 PUSH1 0x0 KECCAK256 SWAP1 JUMPDEST DUP2 SLOAD DUP2 MSTORE SWAP1 PUSH1 0x1 ADD SWAP1 PUSH1 0x20 ADD DUP1 DUP4 GT PUSH2 0x104C JUMPI DUP3 SWAP1 SUB PUSH1 0x1F AND DUP3 ADD SWAP2 JUMPDEST POP POP POP POP POP SWAP1 POP DUP6 JUMP JUMPDEST PUSH1 0x0 CALLVALUE GT PUSH2 0x10C3 JUMPI PUSH1 0x40 MLOAD PUSH3 0x461BCD PUSH1 0xE5 SHL DUP2 MSTORE PUSH1 0x20 PUSH1 0x4 DUP3 ADD MSTORE PUSH1 0x1F PUSH1 0x24 DUP3 ADD MSTORE PUSH32 0x446F6E6174696F6E206D7573742062652067726561746572207468616E203000 PUSH1 0x44 DUP3 ADD MSTORE PUSH1 0x64 ADD PUSH2 0x88E JUMP JUMPDEST CALLVALUE PUSH1 0x2 PUSH1 0x0 DUP3 DUP3 SLOAD PUSH2 0x10D5 SWAP2 SWAP1 PUSH2 0x183E JUMP JUMPDEST SWAP1 SWAP2 SSTORE POP POP CALLER PUSH1 0x0 SWAP1 DUP2 MSTORE PUSH1 0x1 PUSH1 0x20 MSTORE PUSH1 0x40 DUP2 KECCAK256 DUP1 SLOAD CALLVALUE SWAP3 SWAP1 PUSH2 0x10F9 SWAP1 DUP5 SWAP1 PUSH2 0x183E JUMP JUMPDEST SWAP1 SWAP2 SSTORE POP PUSH1 0x0 SWAP1 POP PUSH2 0x112B PUSH32 0x0 CALLVALUE PUSH2 0x1A41 JUMP JUMPDEST PUSH1 0x40 MLOAD PUSH4 0x40C10F19 PUSH1 0xE0 SHL DUP2 MSTORE CALLER PUSH1 0x4 DUP3 ADD MSTORE PUSH1 0x24 DUP2 ADD DUP3 SWAP1 MSTORE SWAP1 SWAP2 POP PUSH32 0x0 PUSH1 0x1 PUSH1 0x1 PUSH1 0xA0 SHL SUB AND SWAP1 PUSH4 0x40C10F19 SWAP1 PUSH1 0x44 ADD PUSH1 0x0 PUSH1 0x40 MLOAD DUP1 DUP4 SUB DUP2 PUSH1 0x0 DUP8 DUP1 EXTCODESIZE ISZERO DUP1 ISZERO PUSH2 0x1196 JUMPI PUSH1 0x0 DUP1 REVERT JUMPDEST POP GAS CALL ISZERO DUP1 ISZERO PUSH2 0x11AA JUMPI RETURNDATASIZE PUSH1 0x0 DUP1 RETURNDATACOPY RETURNDATASIZE PUSH1 0x0 REVERT JUMPDEST POP POP PUSH1 0x40 DUP1 MLOAD CALLVALUE DUP2 MSTORE PUSH1 0x20 DUP2 ADD DUP6 SWAP1 MSTORE CALLER SWAP4 POP PUSH32 0x4B0304AB2F313234B1CEA012339C8F8C3BF2C8BB357D81A579CFDB35D2E3D030 SWAP3 POP ADD PUSH1 0x40 MLOAD DUP1 SWAP2 SUB SWAP1 LOG2 POP JUMP JUMPDEST PUSH2 0x11F6 DUP2 CALLER PUSH2 0x1386 JUMP JUMPDEST POP JUMP JUMPDEST PUSH1 0x0 PUSH2 0x1205 DUP4 DUP4 PUSH2 0xDAB JUMP JUMPDEST PUSH2 0x1283 JUMPI PUSH1 0x0 DUP4 DUP2 MSTORE PUSH1 0x20 DUP2 DUP2 MSTORE PUSH1 0x40 DUP1 DUP4 KECCAK256 PUSH1 0x1 PUSH1 0x1 PUSH1 0xA0 SHL SUB DUP7 AND DUP5 MSTORE SWAP1 SWAP2 MSTORE SWAP1 KECCAK256 DUP1 SLOAD PUSH1 0xFF NOT AND PUSH1 0x1 OR SWAP1 SSTORE PUSH2 0x123B CALLER SWAP1 JUMP JUMPDEST PUSH1 0x1 PUSH1 0x1 PUSH1 0xA0 SHL SUB AND DUP3 PUSH1 0x1 PUSH1 0x1 PUSH1 0xA0 SHL SUB AND DUP5 PUSH32 0x2F8788117E7EFF1D82E926EC794901D17C78024A50270940304540A733656F0D PUSH1 0x40 MLOAD PUSH1 0x40 MLOAD DUP1 SWAP2 SUB SWAP1 LOG4 POP PUSH1 0x1 PUSH2 0x56A JUMP JUMPDEST POP PUSH1 0x0 PUSH2 0x56A JUMP JUMPDEST PUSH1 0x0 PUSH2 0x1297 DUP4 DUP4 PUSH2 0xDAB JUMP JUMPDEST ISZERO PUSH2 0x1283 JUMPI PUSH1 0x0 DUP4 DUP2 MSTORE PUSH1 0x20 DUP2 DUP2 MSTORE PUSH1 0x40 DUP1 DUP4 KECCAK256 PUSH1 0x1 PUSH1 0x1 PUSH1 0xA0 SHL SUB DUP7 AND DUP1 DUP6 MSTORE SWAP3 MSTORE DUP1 DUP4 KECCAK256 DUP1 SLOAD PUSH1 0xFF NOT AND SWAP1 SSTORE MLOAD CALLER SWAP3 DUP7 SWAP2 PUSH32 0xF6391F5C32D9C69D2A47EA670B442974B53935D1EDC7FD64EB21E047A839171B SWAP2 SWAP1 LOG4 POP PUSH1 0x1 PUSH2 0x56A JUMP JUMPDEST DUP1 SELFBALANCE LT ISZERO PUSH2 0x1320 JUMPI PUSH1 0x40 MLOAD PUSH4 0xCF479181 PUSH1 0xE0 SHL DUP2 MSTORE SELFBALANCE PUSH1 0x4 DUP3 ADD MSTORE PUSH1 0x24 DUP2 ADD DUP3 SWAP1 MSTORE PUSH1 0x44 ADD PUSH2 0x88E JUMP JUMPDEST PUSH1 0x0 DUP1 DUP4 PUSH1 0x1 PUSH1 0x1 PUSH1 0xA0 SHL SUB AND DUP4 PUSH1 0x40 MLOAD PUSH1 0x0 PUSH1 0x40 MLOAD DUP1 DUP4 SUB DUP2 DUP6 DUP8 GAS CALL SWAP3 POP POP POP RETURNDATASIZE DUP1 PUSH1 0x0 DUP2 EQ PUSH2 0x136E JUMPI PUSH1 0x40 MLOAD SWAP2 POP PUSH1 0x1F NOT PUSH1 0x3F RETURNDATASIZE ADD AND DUP3 ADD PUSH1 0x40 MSTORE RETURNDATASIZE DUP3 MSTORE RETURNDATASIZE PUSH1 0x0 PUSH1 0x20 DUP5 ADD RETURNDATACOPY PUSH2 0x1373 JUMP JUMPDEST PUSH1 0x60 SWAP2 POP JUMPDEST POP SWAP2 POP SWAP2 POP DUP2 PUSH2 0x595 JUMPI PUSH2 0x595 DUP2 PUSH2 0x13C3 JUMP JUMPDEST PUSH2 0x1390 DUP3 DUP3 PUSH2 0xDAB JUMP JUMPDEST PUSH2 0x13BF JUMPI PUSH1 0x40 MLOAD PUSH4 0xE2517D3F PUSH1 0xE0 SHL DUP2 MSTORE PUSH1 0x1 PUSH1 0x1 PUSH1 0xA0 SHL SUB DUP3 AND PUSH1 0x4 DUP3 ADD MSTORE PUSH1 0x24 DUP2 ADD DUP4 SWAP1 MSTORE PUSH1 0x44 ADD PUSH2 0x88E JUMP JUMPDEST POP POP JUMP JUMPDEST DUP1 MLOAD ISZERO PUSH2 0x13D2 JUMPI DUP1 MLOAD PUSH1 0x20 DUP3 ADD REVERT JUMPDEST PUSH1 0x40 MLOAD PUSH4 0xD6BDA275 PUSH1 0xE0 SHL DUP2 MSTORE PUSH1 0x4 ADD PUSH1 0x40 MLOAD DUP1 SWAP2 SUB SWAP1 REVERT JUMPDEST PUSH1 0x0 PUSH1 0x20 DUP3 DUP5 SUB SLT ISZERO PUSH2 0x13FD JUMPI PUSH1 0x0 DUP1 REVERT JUMPDEST DUP2 CALLDATALOAD PUSH1 0x1 PUSH1 0x1 PUSH1 0xE0 SHL SUB NOT DUP2 AND DUP2 EQ PUSH2 0x1415 JUMPI PUSH1 0x0 DUP1 REVERT JUMPDEST SWAP4 SWAP3 POP POP POP JUMP JUMPDEST PUSH1 0x1 PUSH1 0x1 PUSH1 0xA0 SHL SUB DUP2 AND DUP2 EQ PUSH2 0x11F6 JUMPI PUSH1 0x0 DUP1 REVERT JUMPDEST PUSH1 0x0 PUSH1 0x20 DUP3 DUP5 SUB SLT ISZERO PUSH2 0x1443 JUMPI PUSH1 0x0 DUP1 REVERT JUMPDEST DUP2 CALLDATALOAD PUSH2 0x1415 DUP2 PUSH2 0x141C JUMP JUMPDEST PUSH1 0x0 PUSH1 0x20 DUP3 DUP5 SUB SLT ISZERO PUSH2 0x1460 JUMPI PUSH1 0x0 DUP1 REVERT JUMPDEST POP CALLDATALOAD SWAP2 SWAP1 POP JUMP JUMPDEST PUSH1 0x0 DUP1 PUSH1 0x40 DUP4 DUP6 SUB SLT ISZERO PUSH2 0x147A JUMPI PUSH1 0x0 DUP1 REVERT JUMPDEST DUP3 CALLDATALOAD SWAP2 POP PUSH1 0x20 DUP4 ADD CALLDATALOAD PUSH2 0x148C DUP2 PUSH2 0x141C JUMP JUMPDEST DUP1 SWAP2 POP POP SWAP3 POP SWAP3 SWAP1 POP JUMP JUMPDEST PUSH4 0x4E487B71 PUSH1 0xE0 SHL PUSH1 0x0 MSTORE PUSH1 0x21 PUSH1 0x4 MSTORE PUSH1 0x24 PUSH1 0x0 REVERT JUMPDEST PUSH1 0x6 DUP2 LT PUSH2 0x14CB JUMPI PUSH4 0x4E487B71 PUSH1 0xE0 SHL PUSH1 0x0 MSTORE PUSH1 0x21 PUSH1 0x4 MSTORE PUSH1 0x24 PUSH1 0x0 REVERT JUMPDEST SWAP1 MSTORE JUMP JUMPDEST PUSH1 0x0 JUMPDEST DUP4 DUP2 LT ISZERO PUSH2 0x14EA JUMPI DUP2 DUP2 ADD MLOAD DUP4 DUP3 ADD MSTORE PUSH1 0x20 ADD PUSH2 0x14D2 JUMP JUMPDEST POP POP PUSH1 0x0 SWAP2 ADD MSTORE JUMP JUMPDEST PUSH1 0x0 DUP2 MLOAD DUP1 DUP5 MSTORE PUSH2 0x150B DUP2 PUSH1 0x20 DUP7 ADD PUSH1 0x20 DUP7 ADD PUSH2 0x14CF JUMP JUMPDEST PUSH1 0x1F ADD PUSH1 0x1F NOT AND SWAP3 SWAP1 SWAP3 ADD PUSH1 0x20 ADD SWAP3 SWAP2 POP POP JUMP JUMPDEST DUP6 ISZERO ISZERO DUP2 MSTORE PUSH2 0x1531 PUSH1 0x20 DUP3 ADD DUP7 PUSH2 0x14AD JUMP JUMPDEST PUSH1 0xA0 PUSH1 0x40 DUP3 ADD MSTORE PUSH1 0x0 PUSH2 0x1547 PUSH1 0xA0 DUP4 ADD DUP7 PUSH2 0x14F3 JUMP JUMPDEST DUP3 DUP2 SUB PUSH1 0x60 DUP5 ADD MSTORE PUSH2 0x1559 DUP2 DUP7 PUSH2 0x14F3 JUMP JUMPDEST SWAP1 POP DUP3 DUP2 SUB PUSH1 0x80 DUP5 ADD MSTORE PUSH2 0x156D DUP2 DUP6 PUSH2 0x14F3 JUMP JUMPDEST SWAP9 SWAP8 POP POP POP POP POP POP POP POP JUMP JUMPDEST PUSH1 0x0 DUP1 DUP4 PUSH1 0x1F DUP5 ADD SLT PUSH2 0x158B JUMPI PUSH1 0x0 DUP1 REVERT JUMPDEST POP DUP2 CALLDATALOAD PUSH8 0xFFFFFFFFFFFFFFFF DUP2 GT ISZERO PUSH2 0x15A3 JUMPI PUSH1 0x0 DUP1 REVERT JUMPDEST PUSH1 0x20 DUP4 ADD SWAP2 POP DUP4 PUSH1 0x20 DUP3 DUP6 ADD ADD GT ISZERO PUSH2 0x15BB JUMPI PUSH1 0x0 DUP1 REVERT JUMPDEST SWAP3 POP SWAP3 SWAP1 POP JUMP JUMPDEST PUSH1 0x0 DUP1 PUSH1 0x0 DUP1 PUSH1 0x60 DUP6 DUP8 SUB SLT ISZERO PUSH2 0x15D8 JUMPI PUSH1 0x0 DUP1 REVERT JUMPDEST DUP5 CALLDATALOAD PUSH2 0x15E3 DUP2 PUSH2 0x141C JUMP JUMPDEST SWAP4 POP PUSH1 0x20 DUP6 ADD CALLDATALOAD SWAP3 POP PUSH1 0x40 DUP6 ADD CALLDATALOAD PUSH8 0xFFFFFFFFFFFFFFFF DUP2 GT ISZERO PUSH2 0x1606 JUMPI PUSH1 0x0 DUP1 REVERT JUMPDEST PUSH2 0x1612 DUP8 DUP3 DUP9 ADD PUSH2 0x1579 JUMP JUMPDEST SWAP6 SWAP9 SWAP5 SWAP8 POP SWAP6 POP POP POP POP JUMP JUMPDEST DUP1 CALLDATALOAD PUSH1 0x6 DUP2 LT PUSH2 0x162D JUMPI PUSH1 0x0 DUP1 REVERT JUMPDEST SWAP2 SWAP1 POP JUMP JUMPDEST PUSH1 0x0 DUP1 PUSH1 0x0 DUP1 PUSH1 0x0 DUP1 PUSH1 0x0 DUP1 PUSH1 0xA0 DUP10 DUP12 SUB SLT ISZERO PUSH2 0x164E JUMPI PUSH1 0x0 DUP1 REVERT JUMPDEST DUP9 CALLDATALOAD PUSH2 0x1659 DUP2 PUSH2 0x141C JUMP JUMPDEST SWAP8 POP PUSH2 0x1667 PUSH1 0x20 DUP11 ADD PUSH2 0x161E JUMP JUMPDEST SWAP7 POP PUSH1 0x40 DUP10 ADD CALLDATALOAD PUSH8 0xFFFFFFFFFFFFFFFF DUP2 GT ISZERO PUSH2 0x1683 JUMPI PUSH1 0x0 DUP1 REVERT JUMPDEST PUSH2 0x168F DUP12 DUP3 DUP13 ADD PUSH2 0x1579 JUMP JUMPDEST SWAP1 SWAP8 POP SWAP6 POP POP PUSH1 0x60 DUP10 ADD CALLDATALOAD PUSH8 0xFFFFFFFFFFFFFFFF DUP2 GT ISZERO PUSH2 0x16AF JUMPI PUSH1 0x0 DUP1 REVERT JUMPDEST PUSH2 0x16BB DUP12 DUP3 DUP13 ADD PUSH2 0x1579 JUMP JUMPDEST SWAP1 SWAP6 POP SWAP4 POP POP PUSH1 0x80 DUP10 ADD CALLDATALOAD PUSH8 0xFFFFFFFFFFFFFFFF DUP2 GT ISZERO PUSH2 0x16DB JUMPI PUSH1 0x0 DUP1 REVERT JUMPDEST PUSH2 0x16E7 DUP12 DUP3 DUP13 ADD PUSH2 0x1579 JUMP JUMPDEST SWAP10 SWAP13 SWAP9 SWAP12 POP SWAP7 SWAP10 POP SWAP5 SWAP8 SWAP4 SWAP7 SWAP3 SWAP6 SWAP5 POP POP POP JUMP JUMPDEST PUSH4 0x4E487B71 PUSH1 0xE0 SHL PUSH1 0x0 MSTORE PUSH1 0x41 PUSH1 0x4 MSTORE PUSH1 0x24 PUSH1 0x0 REVERT JUMPDEST PUSH1 0x0 DUP1 PUSH1 0x40 DUP4 DUP6 SUB SLT ISZERO PUSH2 0x1724 JUMPI PUSH1 0x0 DUP1 REVERT JUMPDEST PUSH2 0x172D DUP4 PUSH2 0x161E JUMP JUMPDEST SWAP2 POP PUSH1 0x20 DUP4 ADD CALLDATALOAD PUSH8 0xFFFFFFFFFFFFFFFF DUP2 GT ISZERO PUSH2 0x1749 JUMPI PUSH1 0x0 DUP1 REVERT JUMPDEST DUP4 ADD PUSH1 0x1F DUP2 ADD DUP6 SGT PUSH2 0x175A JUMPI PUSH1 0x0 DUP1 REVERT JUMPDEST DUP1 CALLDATALOAD PUSH8 0xFFFFFFFFFFFFFFFF DUP2 GT ISZERO PUSH2 0x1774 JUMPI PUSH2 0x1774 PUSH2 0x16FB JUMP JUMPDEST PUSH1 0x40 MLOAD PUSH1 0x1F DUP3 ADD PUSH1 0x1F NOT SWAP1 DUP2 AND PUSH1 0x3F ADD AND DUP2 ADD PUSH8 0xFFFFFFFFFFFFFFFF DUP2 GT DUP3 DUP3 LT OR ISZERO PUSH2 0x17A3 JUMPI PUSH2 0x17A3 PUSH2 0x16FB JUMP JUMPDEST PUSH1 0x40 MSTORE DUP2 DUP2 MSTORE DUP3 DUP3 ADD PUSH1 0x20 ADD DUP8 LT ISZERO PUSH2 0x17BB JUMPI PUSH1 0x0 DUP1 REVERT JUMPDEST DUP2 PUSH1 0x20 DUP5 ADD PUSH1 0x20 DUP4 ADD CALLDATACOPY PUSH1 0x0 PUSH1 0x20 DUP4 DUP4 ADD ADD MSTORE DUP1 SWAP4 POP POP POP POP SWAP3 POP SWAP3 SWAP1 POP JUMP JUMPDEST PUSH1 0x20 DUP2 MSTORE PUSH1 0x0 PUSH2 0x1415 PUSH1 0x20 DUP4 ADD DUP5 PUSH2 0x14F3 JUMP JUMPDEST PUSH1 0x1 DUP2 DUP2 SHR SWAP1 DUP3 AND DUP1 PUSH2 0x1802 JUMPI PUSH1 0x7F DUP3 AND SWAP2 POP JUMPDEST PUSH1 0x20 DUP3 LT DUP2 SUB PUSH2 0x1822 JUMPI PUSH4 0x4E487B71 PUSH1 0xE0 SHL PUSH1 0x0 MSTORE PUSH1 0x22 PUSH1 0x4 MSTORE PUSH1 0x24 PUSH1 0x0 REVERT JUMPDEST POP SWAP2 SWAP1 POP JUMP JUMPDEST PUSH4 0x4E487B71 PUSH1 0xE0 SHL PUSH1 0x0 MSTORE PUSH1 0x11 PUSH1 0x4 MSTORE PUSH1 0x24 PUSH1 0x0 REVERT JUMPDEST DUP1 DUP3 ADD DUP1 DUP3 GT ISZERO PUSH2 0x56A JUMPI PUSH2 0x56A PUSH2 0x1828 JUMP JUMPDEST DUP2 DUP4 MSTORE DUP2 DUP2 PUSH1 0x20 DUP6 ADD CALLDATACOPY POP PUSH1 0x0 DUP3 DUP3 ADD PUSH1 0x20 SWAP1 DUP2 ADD SWAP2 SWAP1 SWAP2 MSTORE PUSH1 0x1F SWAP1 SWAP2 ADD PUSH1 0x1F NOT AND SWAP1 SWAP2 ADD ADD SWAP1 JUMP JUMPDEST PUSH1 0x40 DUP2 MSTORE PUSH1 0x0 PUSH2 0x188E PUSH1 0x40 DUP4 ADD DUP6 DUP8 PUSH2 0x1851 JUMP JUMPDEST SWAP1 POP DUP3 PUSH1 0x20 DUP4 ADD MSTORE SWAP5 SWAP4 POP POP POP POP JUMP JUMPDEST PUSH1 0x1F DUP3 GT ISZERO PUSH2 0x5CE JUMPI DUP1 PUSH1 0x0 MSTORE PUSH1 0x20 PUSH1 0x0 KECCAK256 PUSH1 0x1F DUP5 ADD PUSH1 0x5 SHR DUP2 ADD PUSH1 0x20 DUP6 LT ISZERO PUSH2 0x18C5 JUMPI POP DUP1 JUMPDEST PUSH1 0x1F DUP5 ADD PUSH1 0x5 SHR DUP3 ADD SWAP2 POP JUMPDEST DUP2 DUP2 LT ISZERO PUSH2 0x18E5 JUMPI PUSH1 0x0 DUP2 SSTORE PUSH1 0x1 ADD PUSH2 0x18D1 JUMP JUMPDEST POP POP POP POP POP JUMP JUMPDEST DUP2 MLOAD PUSH8 0xFFFFFFFFFFFFFFFF DUP2 GT ISZERO PUSH2 0x1906 JUMPI PUSH2 0x1906 PUSH2 0x16FB JUMP JUMPDEST PUSH2 0x191A DUP2 PUSH2 0x1914 DUP5 SLOAD PUSH2 0x17EE JUMP JUMPDEST DUP5 PUSH2 0x189E JUMP JUMPDEST PUSH1 0x20 PUSH1 0x1F DUP3 GT PUSH1 0x1 DUP2 EQ PUSH2 0x194E JUMPI PUSH1 0x0 DUP4 ISZERO PUSH2 0x1936 JUMPI POP DUP5 DUP3 ADD MLOAD JUMPDEST PUSH1 0x0 NOT PUSH1 0x3 DUP6 SWAP1 SHL SHR NOT AND PUSH1 0x1 DUP5 SWAP1 SHL OR DUP5 SSTORE PUSH2 0x18E5 JUMP JUMPDEST PUSH1 0x0 DUP5 DUP2 MSTORE PUSH1 0x20 DUP2 KECCAK256 PUSH1 0x1F NOT DUP6 AND SWAP2 JUMPDEST DUP3 DUP2 LT ISZERO PUSH2 0x197E JUMPI DUP8 DUP6 ADD MLOAD DUP3 SSTORE PUSH1 0x20 SWAP5 DUP6 ADD SWAP5 PUSH1 0x1 SWAP1 SWAP3 ADD SWAP2 ADD PUSH2 0x195E JUMP JUMPDEST POP DUP5 DUP3 LT ISZERO PUSH2 0x199C JUMPI DUP7 DUP5 ADD MLOAD PUSH1 0x0 NOT PUSH1 0x3 DUP8 SWAP1 SHL PUSH1 0xF8 AND SHR NOT AND DUP2 SSTORE JUMPDEST POP POP POP POP PUSH1 0x1 SWAP1 DUP2 SHL ADD SWAP1 SSTORE POP JUMP JUMPDEST PUSH1 0x1 DUP1 PUSH1 0xA0 SHL SUB DUP5 AND DUP2 MSTORE DUP3 PUSH1 0x20 DUP3 ADD MSTORE PUSH1 0x60 PUSH1 0x40 DUP3 ADD MSTORE PUSH1 0x0 PUSH2 0x19D2 PUSH1 0x60 DUP4 ADD DUP5 PUSH2 0x14F3 JUMP JUMPDEST SWAP6 SWAP5 POP POP POP POP POP JUMP JUMPDEST PUSH2 0x19E5 DUP2 DUP6 PUSH2 0x14AD JUMP JUMPDEST PUSH1 0x40 PUSH1 0x20 DUP3 ADD MSTORE PUSH1 0x0 PUSH2 0x19D2 PUSH1 0x40 DUP4 ADD DUP5 DUP7 PUSH2 0x1851 JUMP JUMPDEST PUSH32 0x68747470733A2F2F6578616D706C652E636F6D2F6D657461646174612F000000 DUP2 MSTORE PUSH1 0x0 DUP3 MLOAD PUSH2 0x1A34 DUP2 PUSH1 0x1D DUP6 ADD PUSH1 0x20 DUP8 ADD PUSH2 0x14CF JUMP JUMPDEST SWAP2 SWAP1 SWAP2 ADD PUSH1 0x1D ADD SWAP3 SWAP2 POP POP JUMP JUMPDEST DUP1 DUP3 MUL DUP2 ISZERO DUP3 DUP3 DIV DUP5 EQ OR PUSH2 0x56A JUMPI PUSH2 0x56A PUSH2 0x1828 JUMP INVALID LOG2 PUSH5 0x6970667358 0x22 SLT KECCAK256 DIV DUP2 CALLDATALOAD PUSH0 CREATE 0xF9 0xB2 SELFBALANCE BYTE BASEFEE 0xF7 KECCAK256 STATICCALL STOP 0xF6 CALLDATACOPY SSTORE 0xFB 0xC4 EXP SWAP1 RETURNDATASIZE 0xAB PUSH28 0xB63128AC565AA6D164736F6C634300081C0033000000000000000000 "},"methodIdentifiers":{"DEFAULT_ADMIN_ROLE()":"a217fddf","QUEST_ADMIN_ROLE()":"09642841","REGISTRAR_ROLE()":"f68e9553","actorReward()":"d78360bc","actors(address)":"eaa66a3c","awardQuest(address,uint256,string)":"62158c75","credentialNFT()":"934fcd1b","donate()":"ed88c68e","donationRewardRate()":"678f9350","donorBalances(address)":"7b8c8de1","getActor(address)":"4138d167","getRoleAdmin(bytes32)":"248a9ca3","grantRole(bytes32,address)":"2f2ff15d","hasRole(bytes32,address)":"91d14854","isVerifiedActor(address)":"f5c515be","questRewards(address)":"14e02500","renounceRole(bytes32,address)":"36568abe","revokeRole(bytes32,address)":"d547741f","supportsInterface(bytes4)":"01ffc9a7","token()":"fc0c546a","tokenURIForActor(uint8,string)":"6b683257","totalDonations()":"de2ed893","verifyActor(address,uint8,string,string,string)":"624c6722","withdrawDonations(address)":"a56f5b53"}},"storageLayout":{"storage":[{"astId":27,"contract":"contracts/FlameBornEngine.sol:FlameBornEngine","label":"_roles","offset":0,"slot":"0","type":"t_mapping(t_bytes32,t_struct(RoleData)22_storage)"},{"astId":897,"contract":"contracts/FlameBornEngine.sol:FlameBornEngine","label":"donorBalances","offset":0,"slot":"1","type":"t_mapping(t_address,t_uint256)"},{"astId":900,"contract":"contracts/FlameBornEngine.sol:FlameBornEngine","label":"totalDonations","offset":0,"slot":"2","type":"t_uint256"},{"astId":906,"contract":"contracts/FlameBornEngine.sol:FlameBornEngine","label":"actors","offset":0,"slot":"3","type":"t_mapping(t_address,t_struct(Actor)878_storage)"},{"astId":911,"contract":"contracts/FlameBornEngine.sol:FlameBornEngine","label":"questRewards","offset":0,"slot":"4","type":"t_mapping(t_address,t_uint256)"}],"types":{"t_address":{"encoding":"inplace","label":"address","numberOfBytes":"20"},"t_bool":{"encoding":"inplace","label":"bool","numberOfBytes":"1"},"t_bytes32":{"encoding":"inplace","label":"bytes32","numberOfBytes":"32"},"t_enum(ActorRole)865":{"encoding":"inplace","label":"enum FlameBornEngine.ActorRole","numberOfBytes":"1"},"t_mapping(t_address,t_bool)":{"encoding":"mapping","key":"t_address","label":"mapping(address => bool)","numberOfBytes":"32","value":"t_bool"},"t_mapping(t_address,t_struct(Actor)878_storage)":{"encoding":"mapping","key":"t_address","label":"mapping(address => struct FlameBornEngine.Actor)","numberOfBytes":"32","value":"t_struct(Actor)878_storage"},"t_mapping(t_address,t_uint256)":{"encoding":"mapping","key":"t_address","label":"mapping(address => uint256)","numberOfBytes":"32","value":"t_uint256"},"t_mapping(t_bytes32,t_struct(RoleData)22_storage)":{"encoding":"mapping","key":"t_bytes32","label":"mapping(bytes32 => struct AccessControl.RoleData)","numberOfBytes":"32","value":"t_struct(RoleData)22_storage"},"t_string_storage":{"encoding":"bytes","label":"string","numberOfBytes":"32"},"t_struct(Actor)878_storage":{"encoding":"inplace","label":"struct FlameBornEngine.Actor","members":[{"astId":868,"contract":"contracts/FlameBornEngine.sol:FlameBornEngine","label":"verified","offset":0,"slot":"0","type":"t_bool"},{"astId":871,"contract":"contracts/FlameBornEngine.sol:FlameBornEngine","label":"role","offset":1,"slot":"0","type":"t_enum(ActorRole)865"},{"astId":873,"contract":"contracts/FlameBornEngine.sol:FlameBornEngine","label":"name","offset":0,"slot":"1","type":"t_string_storage"},{"astId":875,"contract":"contracts/FlameBornEngine.sol:FlameBornEngine","label":"licenseId","offset":0,"slot":"2","type":"t_string_storage"},{"astId":877,"contract":"contracts/FlameBornEngine.sol:FlameBornEngine","label":"phone","offset":0,"slot":"3","type":"t_string_storage"}],"numberOfBytes":"128"},"t_struct(RoleData)22_storage":{"encoding":"inplace","label":"struct AccessControl.RoleData","members":[{"astId":19,"contract":"contracts/FlameBornEngine.sol:FlameBornEngine","label":"hasRole","offset":0,"slot":"0","type":"t_mapping(t_address,t_bool)"},{"astId":21,"contract":"contracts/FlameBornEngine.sol:FlameBornEngine","label":"adminRole","offset":0,"slot":"1","type":"t_bytes32"}],"numberOfBytes":"64"},"t_uint256":{"encoding":"inplace","label":"uint256","numberOfBytes":"32"}}}}}}