{"contracts/FlameBornEngine.sol":{"FlameBornEngine":{"abi":[{"inputs":[],"name":"AccessControlBadConfirmation","type":"error"},{"inputs":[{"internalType":"address","name":"account","type":"address"},{"internalType":"bytes32","name":"neededRole","type":"bytes32"}],"name":"AccessControlUnauthorizedAccount","type":"error"},{"inputs":[],"name":"FailedCall","type":"error"},{"inputs":[{"internalType":"uint256","name":"balance","type":"uint256"},{"internalType":"uint256","name":"needed","type":"uint256"}],"name":"InsufficientBalance","type":"error"},{"inputs":[],"name":"InvalidInitialization","type":"error"},{"inputs":[],"name":"NotInitializing","type":"error"},{"anonymous":false,"inputs":[{"indexed":true,"internalType":"address","name":"actor","type":"address"},{"indexed":false,"internalType":"enum FlameBornEngine.ActorRole","name":"role","type":"uint8"},{"indexed":false,"internalType":"string","name":"name","type":"string"}],"name":"ActorVerified","type":"event"},{"anonymous":false,"inputs":[{"indexed":true,"internalType":"address","name":"donor","type":"address"},{"indexed":false,"internalType":"uint256","name":"amountETH","type":"uint256"},{"indexed":false,"internalType":"uint256","name":"rewardFLB","type":"uint256"}],"name":"DonationReceived","type":"event"},{"anonymous":false,"inputs":[{"indexed":false,"internalType":"uint64","name":"version","type":"uint64"}],"name":"Initialized","type":"event"},{"anonymous":false,"inputs":[{"indexed":true,"internalType":"address","name":"user","type":"address"},{"indexed":false,"internalType":"string","name":"questId","type":"string"},{"indexed":false,"internalType":"uint256","name":"reward","type":"uint256"}],"name":"QuestRewarded","type":"event"},{"anonymous":false,"inputs":[{"indexed":true,"internalType":"bytes32","name":"role","type":"bytes32"},{"indexed":true,"internalType":"bytes32","name":"previousAdminRole","type":"bytes32"},{"indexed":true,"internalType":"bytes32","name":"newAdminRole","type":"bytes32"}],"name":"RoleAdminChanged","type":"event"},{"anonymous":false,"inputs":[{"indexed":true,"internalType":"bytes32","name":"role","type":"bytes32"},{"indexed":true,"internalType":"address","name":"account","type":"address"},{"indexed":true,"internalType":"address","name":"sender","type":"address"}],"name":"RoleGranted","type":"event"},{"anonymous":false,"inputs":[{"indexed":true,"internalType":"bytes32","name":"role","type":"bytes32"},{"indexed":true,"internalType":"address","name":"account","type":"address"},{"indexed":true,"internalType":"address","name":"sender","type":"address"}],"name":"RoleRevoked","type":"event"},{"inputs":[],"name":"DEFAULT_ADMIN_ROLE","outputs":[{"internalType":"bytes32","name":"","type":"bytes32"}],"stateMutability":"view","type":"function"},{"inputs":[],"name":"QUEST_ADMIN_ROLE","outputs":[{"internalType":"bytes32","name":"","type":"bytes32"}],"stateMutability":"view","type":"function"},{"inputs":[],"name":"REGISTRAR_ROLE","outputs":[{"internalType":"bytes32","name":"","type":"bytes32"}],"stateMutability":"view","type":"function"},{"inputs":[],"name":"actorReward","outputs":[{"internalType":"uint256","name":"","type":"uint256"}],"stateMutability":"view","type":"function"},{"inputs":[{"internalType":"address","name":"","type":"address"}],"name":"actors","outputs":[{"internalType":"bool","name":"verified","type":"bool"},{"internalType":"enum FlameBornEngine.ActorRole","name":"role","type":"uint8"},{"internalType":"string","name":"name","type":"string"},{"internalType":"string","name":"licenseId","type":"string"},{"internalType":"string","name":"phone","type":"string"}],"stateMutability":"view","type":"function"},{"inputs":[{"internalType":"address","name":"user","type":"address"},{"internalType":"uint256","name":"reward","type":"uint256"},{"internalType":"string","name":"questId","type":"string"}],"name":"awardQuest","outputs":[],"stateMutability":"nonpayable","type":"function"},{"inputs":[],"name":"credentialNFT","outputs":[{"internalType":"contract IHealthIDNFT","name":"","type":"address"}],"stateMutability":"view","type":"function"},{"inputs":[],"name":"donate","outputs":[],"stateMutability":"payable","type":"function"},{"inputs":[],"name":"donationRewardRate","outputs":[{"internalType":"uint256","name":"","type":"uint256"}],"stateMutability":"view","type":"function"},{"inputs":[{"internalType":"address","name":"","type":"address"}],"name":"donorBalances","outputs":[{"internalType":"uint256","name":"","type":"uint256"}],"stateMutability":"view","type":"function"},{"inputs":[{"internalType":"address","name":"actor","type":"address"}],"name":"getActor","outputs":[{"internalType":"bool","name":"verified","type":"bool"},{"internalType":"enum FlameBornEngine.ActorRole","name":"role","type":"uint8"},{"internalType":"string","name":"name","type":"string"},{"internalType":"string","name":"licenseId","type":"string"},{"internalType":"string","name":"phone","type":"string"}],"stateMutability":"view","type":"function"},{"inputs":[{"internalType":"bytes32","name":"role","type":"bytes32"}],"name":"getRoleAdmin","outputs":[{"internalType":"bytes32","name":"","type":"bytes32"}],"stateMutability":"view","type":"function"},{"inputs":[{"internalType":"bytes32","name":"role","type":"bytes32"},{"internalType":"address","name":"account","type":"address"}],"name":"grantRole","outputs":[],"stateMutability":"nonpayable","type":"function"},{"inputs":[{"internalType":"bytes32","name":"role","type":"bytes32"},{"internalType":"address","name":"account","type":"address"}],"name":"hasRole","outputs":[{"internalType":"bool","name":"","type":"bool"}],"stateMutability":"view","type":"function"},{"inputs":[{"internalType":"address","name":"admin","type":"address"},{"internalType":"contract IFlameBornToken","name":"_token","type":"address"},{"internalType":"contract IHealthIDNFT","name":"_credentialNFT","type":"address"},{"internalType":"uint256","name":"_actorReward","type":"uint256"},{"internalType":"uint256","name":"_donationRewardRate","type":"uint256"}],"name":"initialize","outputs":[],"stateMutability":"nonpayable","type":"function"},{"inputs":[{"internalType":"address","name":"actor","type":"address"}],"name":"isVerifiedActor","outputs":[{"internalType":"bool","name":"","type":"bool"}],"stateMutability":"view","type":"function"},{"inputs":[{"internalType":"address","name":"","type":"address"}],"name":"questRewards","outputs":[{"internalType":"uint256","name":"","type":"uint256"}],"stateMutability":"view","type":"function"},{"inputs":[{"internalType":"bytes32","name":"role","type":"bytes32"},{"internalType":"address","name":"callerConfirmation","type":"address"}],"name":"renounceRole","outputs":[],"stateMutability":"nonpayable","type":"function"},{"inputs":[{"internalType":"bytes32","name":"role","type":"bytes32"},{"internalType":"address","name":"account","type":"address"}],"name":"revokeRole","outputs":[],"stateMutability":"nonpayable","type":"function"},{"inputs":[{"internalType":"bytes4","name":"interfaceId","type":"bytes4"}],"name":"supportsInterface","outputs":[{"internalType":"bool","name":"","type":"bool"}],"stateMutability":"view","type":"function"},{"inputs":[],"name":"token","outputs":[{"internalType":"contract IFlameBornToken","name":"","type":"address"}],"stateMutability":"view","type":"function"},{"inputs":[{"internalType":"string","name":"name","type":"string"}],"name":"tokenURIForActor","outputs":[{"internalType":"string","name":"","type":"string"}],"stateMutability":"pure","type":"function"},{"inputs":[],"name":"totalDonations","outputs":[{"internalType":"uint256","name":"","type":"uint256"}],"stateMutability":"view","type":"function"},{"inputs":[{"internalType":"address","name":"actorAddress","type":"address"},{"internalType":"enum FlameBornEngine.ActorRole","name":"role","type":"uint8"},{"internalType":"string","name":"name","type":"string"},{"internalType":"string","name":"licenseId","type":"string"},{"internalType":"string","name":"phone","type":"string"}],"name":"verifyActor","outputs":[],"stateMutability":"nonpayable","type":"function"},{"inputs":[{"internalType":"address payable","name":"recipient","type":"address"}],"name":"withdrawDonations","outputs":[],"stateMutability":"nonpayable","type":"function"}],"evm":{"bytecode":{"linkReferences":{},"object":"6080604052348015600f57600080fd5b50611d928061001f6000396000f3fe6080604052600436106101665760003560e01c806391d14854116100d1578063d78360bc1161008a578063ed88c68e11610064578063ed88c68e1461046b578063f5c515be14610473578063f68e9553146104ac578063fc0c546a146104e057600080fd5b8063d78360bc1461041f578063de2ed89314610435578063eaa66a3c1461044b57600080fd5b806391d1485414610352578063934fcd1b14610372578063a217fddf146103aa578063a56f5b53146103bf578063a6b63eb8146103df578063d547741f146103ff57600080fd5b80634138d167116101235780634138d1671461027157806362158c75146102a2578063624c6722146102c2578063678f9350146102e25780637b8c8de1146102f857806384d49d821461032557600080fd5b806301ffc9a71461016b57806309642841146101a057806314e02500146101e2578063248a9ca31461020f5780632f2ff15d1461022f57806336568abe14610251575b600080fd5b34801561017757600080fd5b5061018b610186366004611693565b610500565b60405190151581526020015b60405180910390f35b3480156101ac57600080fd5b506101d47fd9fa870f425abcc65e9f66291fd387e7d8e4b1a8019d84df97822b1a0643f58581565b604051908152602001610197565b3480156101ee57600080fd5b506101d46101fd3660046116d9565b60076020526000908152604090205481565b34801561021b57600080fd5b506101d461022a3660046116f6565b610537565b34801561023b57600080fd5b5061024f61024a36600461170f565b610559565b005b34801561025d57600080fd5b5061024f61026c36600461170f565b61057b565b34801561027d57600080fd5b5061029161028c3660046116d9565b6105b3565b6040516101979594939291906117c7565b3480156102ae57600080fd5b5061024f6102bd36600461186a565b610803565b3480156102ce57600080fd5b5061024f6102dd3660046118c6565b61099b565b3480156102ee57600080fd5b506101d460035481565b34801561030457600080fd5b506101d46103133660046116d9565b60046020526000908152604090205481565b34801561033157600080fd5b506103456103403660046119ab565b610cef565b6040516101979190611a64565b34801561035e57600080fd5b5061018b61036d36600461170f565b610d18565b34801561037e57600080fd5b50600154610392906001600160a01b031681565b6040516001600160a01b039091168152602001610197565b3480156103b657600080fd5b506101d4600081565b3480156103cb57600080fd5b5061024f6103da3660046116d9565b610d50565b3480156103eb57600080fd5b5061024f6103fa366004611a77565b610dfc565b34801561040b57600080fd5b5061024f61041a36600461170f565b6110d6565b34801561042b57600080fd5b506101d460025481565b34801561044157600080fd5b506101d460055481565b34801561045757600080fd5b506102916104663660046116d9565b6110f2565b61024f6112c0565b34801561047f57600080fd5b5061018b61048e3660046116d9565b6001600160a01b031660009081526006602052604090205460ff1690565b3480156104b857600080fd5b506101d47fedcc084d3dcd65a1f7f23c65c46722faca6953d28e43150a467cf43e5c30923881565b3480156104ec57600080fd5b50600054610392906001600160a01b031681565b60006001600160e01b03198216637965db0b60e01b148061053157506301ffc9a760e01b6001600160e01b03198316145b92915050565b6000908152600080516020611d3d833981519152602052604090206001015490565b61056282610537565b61056b816113fe565b610575838361140b565b50505050565b6001600160a01b03811633146105a45760405163334bd91960e11b815260040160405180910390fd5b6105ae82826114b0565b505050565b6001600160a01b0381166000908152600660209081526040808320815160a08101909252805460ff808216151584528594606094859485948894929391929184019161010090910416600581111561060d5761060d61173f565b600581111561061e5761061e61173f565b815260200160018201805461063290611ad2565b80601f016020809104026020016040519081016040528092919081815260200182805461065e90611ad2565b80156106ab5780601f10610680576101008083540402835291602001916106ab565b820191906000526020600020905b81548152906001019060200180831161068e57829003601f168201915b505050505081526020016002820180546106c490611ad2565b80601f01602080910402602001604051908101604052809291908181526020018280546106f090611ad2565b801561073d5780601f106107125761010080835404028352916020019161073d565b820191906000526020600020905b81548152906001019060200180831161072057829003601f168201915b5050505050815260200160038201805461075690611ad2565b80601f016020809104026020016040519081016040528092919081815260200182805461078290611ad2565b80156107cf5780601f106107a4576101008083540402835291602001916107cf565b820191906000526020600020905b8154815290600101906020018083116107b257829003601f168201915b5050509190925250508151602083015160408401516060850151608090950151929c919b5099509297509550909350505050565b7fd9fa870f425abcc65e9f66291fd387e7d8e4b1a8019d84df97822b1a0643f58561082d816113fe565b6001600160a01b0385166108775760405162461bcd60e51b815260206004820152600c60248201526b24b73b30b634b2103ab9b2b960a11b60448201526064015b60405180910390fd5b600084116108bc5760405162461bcd60e51b81526020600482015260126024820152710526577617264206d757374206265203e20360741b604482015260640161086e565b6001600160a01b038516600090815260076020526040812080548692906108e4908490611b22565b90915550506000546040516340c10f1960e01b81526001600160a01b03878116600483015260248201879052909116906340c10f1990604401600060405180830381600087803b15801561093757600080fd5b505af115801561094b573d6000803e3d6000fd5b50505050846001600160a01b03167ff746c75ab19937d58b2a3e0406d8d5fcd1e8ae5545a89c47e88e53497787182c84848760405161098c93929190611b5e565b60405180910390a25050505050565b7fedcc084d3dcd65a1f7f23c65c46722faca6953d28e43150a467cf43e5c3092386109c5816113fe565b6001600160a01b038916610a135760405162461bcd60e51b8152602060048201526015602482015274496e76616c6964206163746f72206164647265737360581b604482015260640161086e565b6040518060a00160405280600115158152602001896005811115610a3957610a3961173f565b815260200188888080601f016020809104026020016040519081016040528093929190818152602001838380828437600092019190915250505090825250604080516020601f890181900481028201810190925287815291810191908890889081908401838280828437600092019190915250505090825250604080516020601f87018190048102820181019092528581529181019190869086908190840183828082843760009201829052509390945250506001600160a01b038c1681526006602090815260409091208351815490151560ff19821681178355928501519193509091839161ff001990911661ffff1990911617610100836005811115610b4357610b4361173f565b021790555060408201516001820190610b5c9082611bd0565b5060608201516002820190610b719082611bd0565b5060808201516003820190610b869082611bd0565b509050506000610bcb88888080601f016020809104026020016040519081016040528093929190818152602001838380828437600092019190915250610cef92505050565b600154604051631153ebfb60e21b81529192506001600160a01b039081169163454fafec91610c03918e918216908690600401611c8f565b600060405180830381600087803b158015610c1d57600080fd5b505af1158015610c31573d6000803e3d6000fd5b50506000546002546040516340c10f1960e01b81526001600160a01b038f811660048301526024820192909252911692506340c10f199150604401600060405180830381600087803b158015610c8657600080fd5b505af1158015610c9a573d6000803e3d6000fd5b50505050896001600160a01b03167fa8c194a0bb99fe5563599cd2f9a5c005a12a87ad542c02dd32d07fd57c1134258a8a8a604051610cdb93929190611cbf565b60405180910390a250505050505050505050565b606081604051602001610d029190611ce0565b6040516020818303038152906040529050919050565b6000918252600080516020611d3d833981519152602090815260408084206001600160a01b0393909316845291905290205460ff1690565b6000610d5b816113fe565b4780610d9e5760405162461bcd60e51b81526020600482015260126024820152714e6f2066756e647320617661696c61626c6560701b604482015260640161086e565b6001600160a01b038316610de95760405162461bcd60e51b8152602060048201526012602482015271149958da5c1a595b9d081c995c5d5a5c995960721b604482015260640161086e565b6105ae6001600160a01b0384168261152c565b6000610e066115bc565b805490915060ff600160401b820416159067ffffffffffffffff16600081158015610e2e5750825b905060008267ffffffffffffffff166001148015610e4b5750303b155b905081158015610e59575080155b15610e775760405163f92ee8a960e01b815260040160405180910390fd5b845467ffffffffffffffff191660011785558315610ea157845460ff60401b1916600160401b1785555b610ea96115e5565b6001600160a01b038a16610ef85760405162461bcd60e51b815260206004820152601660248201527510591b5a5b881859191c995cdcc81c995c5d5a5c995960521b604482015260640161086e565b6001600160a01b038916610f475760405162461bcd60e51b8152602060048201526016602482015275151bdad95b881859191c995cdcc81c995c5d5a5c995960521b604482015260640161086e565b6001600160a01b038816610f9d5760405162461bcd60e51b815260206004820152601760248201527f43726564656e7469616c204e4654207265717569726564000000000000000000604482015260640161086e565b60008611610fed5760405162461bcd60e51b815260206004820181905260248201527f446f6e6174696f6e207265776172642072617465206d757374206265203e2030604482015260640161086e565b600080546001600160a01b03808c166001600160a01b031992831617835560018054918c16919092161790556002889055600387905561102d908b61140b565b506110587fedcc084d3dcd65a1f7f23c65c46722faca6953d28e43150a467cf43e5c3092388b61140b565b506110837fd9fa870f425abcc65e9f66291fd387e7d8e4b1a8019d84df97822b1a0643f5858b61140b565b5083156110ca57845460ff60401b19168555604051600181527fc7f505b2f371ae2175ee4913f4499e1f2633a7b5936321eed1cdaeb6115181d29060200160405180910390a15b50505050505050505050565b6110df82610537565b6110e8816113fe565b61057583836114b0565b6006602052600090815260409020805460018201805460ff808416946101009094041692919061112190611ad2565b80601f016020809104026020016040519081016040528092919081815260200182805461114d90611ad2565b801561119a5780601f1061116f5761010080835404028352916020019161119a565b820191906000526020600020905b81548152906001019060200180831161117d57829003601f168201915b5050505050908060020180546111af90611ad2565b80601f01602080910402602001604051908101604052809291908181526020018280546111db90611ad2565b80156112285780601f106111fd57610100808354040283529160200191611228565b820191906000526020600020905b81548152906001019060200180831161120b57829003601f168201915b50505050509080600301805461123d90611ad2565b80601f016020809104026020016040519081016040528092919081815260200182805461126990611ad2565b80156112b65780601f1061128b576101008083540402835291602001916112b6565b820191906000526020600020905b81548152906001019060200180831161129957829003601f168201915b5050505050905085565b600034116113105760405162461bcd60e51b815260206004820152601f60248201527f446f6e6174696f6e206d7573742062652067726561746572207468616e203000604482015260640161086e565b34600560008282546113229190611b22565b90915550503360009081526004602052604081208054349290611346908490611b22565b909155505060035460009061135b9034611d25565b6000546040516340c10f1960e01b8152336004820152602481018390529192506001600160a01b0316906340c10f1990604401600060405180830381600087803b1580156113a857600080fd5b505af11580156113bc573d6000803e3d6000fd5b505060408051348152602081018590523393507f4b0304ab2f313234b1cea012339c8f8c3bf2c8bb357d81a579cfdb35d2e3d03092500160405180910390a250565b61140881336115ef565b50565b6000600080516020611d3d8339815191526114268484610d18565b6114a6576000848152602082815260408083206001600160a01b03871684529091529020805460ff1916600117905561145c3390565b6001600160a01b0316836001600160a01b0316857f2f8788117e7eff1d82e926ec794901d17c78024a50270940304540a733656f0d60405160405180910390a46001915050610531565b6000915050610531565b6000600080516020611d3d8339815191526114cb8484610d18565b156114a6576000848152602082815260408083206001600160a01b0387168085529252808320805460ff1916905551339287917ff6391f5c32d9c69d2a47ea670b442974b53935d1edc7fd64eb21e047a839171b9190a46001915050610531565b804710156115565760405163cf47918160e01b81524760048201526024810182905260440161086e565b600080836001600160a01b03168360405160006040518083038185875af1925050503d80600081146115a4576040519150601f19603f3d011682016040523d82523d6000602084013e6115a9565b606091505b509150915081610575576105758161162c565b6000807ff0c57e16840df040f15088dc2f81fe391c3923bec73e23a9662efc9c229c6a00610531565b6115ed611654565b565b6115f98282610d18565b6116285760405163e2517d3f60e01b81526001600160a01b03821660048201526024810183905260440161086e565b5050565b80511561163b57805160208201fd5b60405163d6bda27560e01b815260040160405180910390fd5b61165c611679565b6115ed57604051631afcd79f60e31b815260040160405180910390fd5b60006116836115bc565b54600160401b900460ff16919050565b6000602082840312156116a557600080fd5b81356001600160e01b0319811681146116bd57600080fd5b9392505050565b6001600160a01b038116811461140857600080fd5b6000602082840312156116eb57600080fd5b81356116bd816116c4565b60006020828403121561170857600080fd5b5035919050565b6000806040838503121561172257600080fd5b823591506020830135611734816116c4565b809150509250929050565b634e487b7160e01b600052602160045260246000fd5b6006811061177357634e487b7160e01b600052602160045260246000fd5b9052565b60005b8381101561179257818101518382015260200161177a565b50506000910152565b600081518084526117b3816020860160208601611777565b601f01601f19169290920160200192915050565b85151581526117d96020820186611755565b60a0604082015260006117ef60a083018661179b565b8281036060840152611801818661179b565b90508281036080840152611815818561179b565b98975050505050505050565b60008083601f84011261183357600080fd5b50813567ffffffffffffffff81111561184b57600080fd5b60208301915083602082850101111561186357600080fd5b9250929050565b6000806000806060858703121561188057600080fd5b843561188b816116c4565b935060208501359250604085013567ffffffffffffffff8111156118ae57600080fd5b6118ba87828801611821565b95989497509550505050565b60008060008060008060008060a0898b0312156118e257600080fd5b88356118ed816116c4565b975060208901356006811061190157600080fd5b9650604089013567ffffffffffffffff81111561191d57600080fd5b6119298b828c01611821565b909750955050606089013567ffffffffffffffff81111561194957600080fd5b6119558b828c01611821565b909550935050608089013567ffffffffffffffff81111561197557600080fd5b6119818b828c01611821565b999c989b5096995094979396929594505050565b634e487b7160e01b600052604160045260246000fd5b6000602082840312156119bd57600080fd5b813567ffffffffffffffff8111156119d457600080fd5b8201601f810184136119e557600080fd5b803567ffffffffffffffff8111156119ff576119ff611995565b604051601f8201601f19908116603f0116810167ffffffffffffffff81118282101715611a2e57611a2e611995565b604052818152828201602001861015611a4657600080fd5b81602084016020830137600091810160200191909152949350505050565b6020815260006116bd602083018461179b565b600080600080600060a08688031215611a8f57600080fd5b8535611a9a816116c4565b94506020860135611aaa816116c4565b93506040860135611aba816116c4565b94979396509394606081013594506080013592915050565b600181811c90821680611ae657607f821691505b602082108103611b0657634e487b7160e01b600052602260045260246000fd5b50919050565b634e487b7160e01b600052601160045260246000fd5b8082018082111561053157610531611b0c565b81835281816020850137506000828201602090810191909152601f909101601f19169091010190565b604081526000611b72604083018587611b35565b9050826020830152949350505050565b601f8211156105ae57806000526020600020601f840160051c81016020851015611ba95750805b601f840160051c820191505b81811015611bc95760008155600101611bb5565b5050505050565b815167ffffffffffffffff811115611bea57611bea611995565b611bfe81611bf88454611ad2565b84611b82565b6020601f821160018114611c325760008315611c1a5750848201515b600019600385901b1c1916600184901b178455611bc9565b600084815260208120601f198516915b82811015611c625787850151825560209485019460019092019101611c42565b5084821015611c805786840151600019600387901b60f8161c191681555b50505050600190811b01905550565b60018060a01b0384168152826020820152606060408201526000611cb6606083018461179b565b95945050505050565b611cc98185611755565b604060208201526000611cb6604083018486611b35565b7f68747470733a2f2f6578616d706c652e636f6d2f6d657461646174612f000000815260008251611d1881601d850160208701611777565b91909101601d0192915050565b808202811582820484141761053157610531611b0c56fe02dd7bc7dec4dceedda775e58dd541e08a116c6c53815c0bd028192f7b626800a26469706673582212201682bee219f2a48a39f20304f136b79f27f125f1e4f0205695ed083a212163e964736f6c634300081c0033","opcodes":"PUSH1 0x80 PUSH1 0x40 MSTORE CALLVALUE DUP1 ISZERO PUSH1 0xF JUMPI PUSH1 0x0 DUP1 REVERT JUMPDEST POP PUSH2 0x1D92 DUP1 PUSH2 0x1F PUSH1 0x0 CODECOPY PUSH1 0x0 RETURN INVALID PUSH1 0x80 PUSH1 0x40 MSTORE PUSH1 0x4 CALLDATASIZE LT PUSH2 0x166 JUMPI PUSH1 0x0 CALLDATALOAD PUSH1 0xE0 SHR DUP1 PUSH4 0x91D14854 GT PUSH2 0xD1 JUMPI DUP1 PUSH4 0xD78360BC GT PUSH2 0x8A JUMPI DUP1 PUSH4 0xED88C68E GT PUSH2 0x64 JUMPI DUP1 PUSH4 0xED88C68E EQ PUSH2 0x46B JUMPI DUP1 PUSH4 0xF5C515BE EQ PUSH2 0x473 JUMPI DUP1 PUSH4 0xF68E9553 EQ PUSH2 0x4AC JUMPI DUP1 PUSH4 0xFC0C546A EQ PUSH2 0x4E0 JUMPI PUSH1 0x0 DUP1 REVERT JUMPDEST DUP1 PUSH4 0xD78360BC EQ PUSH2 0x41F JUMPI DUP1 PUSH4 0xDE2ED893 EQ PUSH2 0x435 JUMPI DUP1 PUSH4 0xEAA66A3C EQ PUSH2 0x44B JUMPI PUSH1 0x0 DUP1 REVERT JUMPDEST DUP1 PUSH4 0x91D14854 EQ PUSH2 0x352 JUMPI DUP1 PUSH4 0x934FCD1B EQ PUSH2 0x372 JUMPI DUP1 PUSH4 0xA217FDDF EQ PUSH2 0x3AA JUMPI DUP1 PUSH4 0xA56F5B53 EQ PUSH2 0x3BF JUMPI DUP1 PUSH4 0xA6B63EB8 EQ PUSH2 0x3DF JUMPI DUP1 PUSH4 0xD547741F EQ PUSH2 0x3FF JUMPI PUSH1 0x0 DUP1 REVERT JUMPDEST DUP1 PUSH4 0x4138D167 GT PUSH2 0x123 JUMPI DUP1 PUSH4 0x4138D167 EQ PUSH2 0x271 JUMPI DUP1 PUSH4 0x62158C75 EQ PUSH2 0x2A2 JUMPI DUP1 PUSH4 0x624C6722 EQ PUSH2 0x2C2 JUMPI DUP1 PUSH4 0x678F9350 EQ PUSH2 0x2E2 JUMPI DUP1 PUSH4 0x7B8C8DE1 EQ PUSH2 0x2F8 JUMPI DUP1 PUSH4 0x84D49D82 EQ PUSH2 0x325 JUMPI PUSH1 0x0 DUP1 REVERT JUMPDEST DUP1 PUSH4 0x1FFC9A7 EQ PUSH2 0x16B JUMPI DUP1 PUSH4 0x9642841 EQ PUSH2 0x1A0 JUMPI DUP1 PUSH4 0x14E02500 EQ PUSH2 0x1E2 JUMPI DUP1 PUSH4 0x248A9CA3 EQ PUSH2 0x20F JUMPI DUP1 PUSH4 0x2F2FF15D EQ PUSH2 0x22F JUMPI DUP1 PUSH4 0x36568ABE EQ PUSH2 0x251 JUMPI JUMPDEST PUSH1 0x0 DUP1 REVERT JUMPDEST CALLVALUE DUP1 ISZERO PUSH2 0x177 JUMPI PUSH1 0x0 DUP1 REVERT JUMPDEST POP PUSH2 0x18B PUSH2 0x186 CALLDATASIZE PUSH1 0x4 PUSH2 0x1693 JUMP JUMPDEST PUSH2 0x500 JUMP JUMPDEST PUSH1 0x40 MLOAD SWAP1 ISZERO ISZERO DUP2 MSTORE PUSH1 0x20 ADD JUMPDEST PUSH1 0x40 MLOAD DUP1 SWAP2 SUB SWAP1 RETURN JUMPDEST CALLVALUE DUP1 ISZERO PUSH2 0x1AC JUMPI PUSH1 0x0 DUP1 REVERT JUMPDEST POP PUSH2 0x1D4 PUSH32 0xD9FA870F425ABCC65E9F66291FD387E7D8E4B1A8019D84DF97822B1A0643F585 DUP2 JUMP JUMPDEST PUSH1 0x40 MLOAD SWAP1 DUP2 MSTORE PUSH1 0x20 ADD PUSH2 0x197 JUMP JUMPDEST CALLVALUE DUP1 ISZERO PUSH2 0x1EE JUMPI PUSH1 0x0 DUP1 REVERT JUMPDEST POP PUSH2 0x1D4 PUSH2 0x1FD CALLDATASIZE PUSH1 0x4 PUSH2 0x16D9 JUMP JUMPDEST PUSH1 0x7 PUSH1 0x20 MSTORE PUSH1 0x0 SWAP1 DUP2 MSTORE PUSH1 0x40 SWAP1 KECCAK256 SLOAD DUP2 JUMP JUMPDEST CALLVALUE DUP1 ISZERO PUSH2 0x21B JUMPI PUSH1 0x0 DUP1 REVERT JUMPDEST POP PUSH2 0x1D4 PUSH2 0x22A CALLDATASIZE PUSH1 0x4 PUSH2 0x16F6 JUMP JUMPDEST PUSH2 0x537 JUMP JUMPDEST CALLVALUE DUP1 ISZERO PUSH2 0x23B JUMPI PUSH1 0x0 DUP1 REVERT JUMPDEST POP PUSH2 0x24F PUSH2 0x24A CALLDATASIZE PUSH1 0x4 PUSH2 0x170F JUMP JUMPDEST PUSH2 0x559 JUMP JUMPDEST STOP JUMPDEST CALLVALUE DUP1 ISZERO PUSH2 0x25D JUMPI PUSH1 0x0 DUP1 REVERT JUMPDEST POP PUSH2 0x24F PUSH2 0x26C CALLDATASIZE PUSH1 0x4 PUSH2 0x170F JUMP JUMPDEST PUSH2 0x57B JUMP JUMPDEST CALLVALUE DUP1 ISZERO PUSH2 0x27D JUMPI PUSH1 0x0 DUP1 REVERT JUMPDEST POP PUSH2 0x291 PUSH2 0x28C CALLDATASIZE PUSH1 0x4 PUSH2 0x16D9 JUMP JUMPDEST PUSH2 0x5B3 JUMP JUMPDEST PUSH1 0x40 MLOAD PUSH2 0x197 SWAP6 SWAP5 SWAP4 SWAP3 SWAP2 SWAP1 PUSH2 0x17C7 JUMP JUMPDEST CALLVALUE DUP1 ISZERO PUSH2 0x2AE JUMPI PUSH1 0x0 DUP1 REVERT JUMPDEST POP PUSH2 0x24F PUSH2 0x2BD CALLDATASIZE PUSH1 0x4 PUSH2 0x186A JUMP JUMPDEST PUSH2 0x803 JUMP JUMPDEST CALLVALUE DUP1 ISZERO PUSH2 0x2CE JUMPI PUSH1 0x0 DUP1 REVERT JUMPDEST POP PUSH2 0x24F PUSH2 0x2DD CALLDATASIZE PUSH1 0x4 PUSH2 0x18C6 JUMP JUMPDEST PUSH2 0x99B JUMP JUMPDEST CALLVALUE DUP1 ISZERO PUSH2 0x2EE JUMPI PUSH1 0x0 DUP1 REVERT JUMPDEST POP PUSH2 0x1D4 PUSH1 0x3 SLOAD DUP2 JUMP JUMPDEST CALLVALUE DUP1 ISZERO PUSH2 0x304 JUMPI PUSH1 0x0 DUP1 REVERT JUMPDEST POP PUSH2 0x1D4 PUSH2 0x313 CALLDATASIZE PUSH1 0x4 PUSH2 0x16D9 JUMP JUMPDEST PUSH1 0x4 PUSH1 0x20 MSTORE PUSH1 0x0 SWAP1 DUP2 MSTORE PUSH1 0x40 SWAP1 KECCAK256 SLOAD DUP2 JUMP JUMPDEST CALLVALUE DUP1 ISZERO PUSH2 0x331 JUMPI PUSH1 0x0 DUP1 REVERT JUMPDEST POP PUSH2 0x345 PUSH2 0x340 CALLDATASIZE PUSH1 0x4 PUSH2 0x19AB JUMP JUMPDEST PUSH2 0xCEF JUMP JUMPDEST PUSH1 0x40 MLOAD PUSH2 0x197 SWAP2 SWAP1 PUSH2 0x1A64 JUMP JUMPDEST CALLVALUE DUP1 ISZERO PUSH2 0x35E JUMPI PUSH1 0x0 DUP1 REVERT JUMPDEST POP PUSH2 0x18B PUSH2 0x36D CALLDATASIZE PUSH1 0x4 PUSH2 0x170F JUMP JUMPDEST PUSH2 0xD18 JUMP JUMPDEST CALLVALUE DUP1 ISZERO PUSH2 0x37E JUMPI PUSH1 0x0 DUP1 REVERT JUMPDEST POP PUSH1 0x1 SLOAD PUSH2 0x392 SWAP1 PUSH1 0x1 PUSH1 0x1 PUSH1 0xA0 SHL SUB AND DUP2 JUMP JUMPDEST PUSH1 0x40 MLOAD PUSH1 0x1 PUSH1 0x1 PUSH1 0xA0 SHL SUB SWAP1 SWAP2 AND DUP2 MSTORE PUSH1 0x20 ADD PUSH2 0x197 JUMP JUMPDEST CALLVALUE DUP1 ISZERO PUSH2 0x3B6 JUMPI PUSH1 0x0 DUP1 REVERT JUMPDEST POP PUSH2 0x1D4 PUSH1 0x0 DUP2 JUMP JUMPDEST CALLVALUE DUP1 ISZERO PUSH2 0x3CB JUMPI PUSH1 0x0 DUP1 REVERT JUMPDEST POP PUSH2 0x24F PUSH2 0x3DA CALLDATASIZE PUSH1 0x4 PUSH2 0x16D9 JUMP JUMPDEST PUSH2 0xD50 JUMP JUMPDEST CALLVALUE DUP1 ISZERO PUSH2 0x3EB JUMPI PUSH1 0x0 DUP1 REVERT JUMPDEST POP PUSH2 0x24F PUSH2 0x3FA CALLDATASIZE PUSH1 0x4 PUSH2 0x1A77 JUMP JUMPDEST PUSH2 0xDFC JUMP JUMPDEST CALLVALUE DUP1 ISZERO PUSH2 0x40B JUMPI PUSH1 0x0 DUP1 REVERT JUMPDEST POP PUSH2 0x24F PUSH2 0x41A CALLDATASIZE PUSH1 0x4 PUSH2 0x170F JUMP JUMPDEST PUSH2 0x10D6 JUMP JUMPDEST CALLVALUE DUP1 ISZERO PUSH2 0x42B JUMPI PUSH1 0x0 DUP1 REVERT JUMPDEST POP PUSH2 0x1D4 PUSH1 0x2 SLOAD DUP2 JUMP JUMPDEST CALLVALUE DUP1 ISZERO PUSH2 0x441 JUMPI PUSH1 0x0 DUP1 REVERT JUMPDEST POP PUSH2 0x1D4 PUSH1 0x5 SLOAD DUP2 JUMP JUMPDEST CALLVALUE DUP1 ISZERO PUSH2 0x457 JUMPI PUSH1 0x0 DUP1 REVERT JUMPDEST POP PUSH2 0x291 PUSH2 0x466 CALLDATASIZE PUSH1 0x4 PUSH2 0x16D9 JUMP JUMPDEST PUSH2 0x10F2 JUMP JUMPDEST PUSH2 0x24F PUSH2 0x12C0 JUMP JUMPDEST CALLVALUE DUP1 ISZERO PUSH2 0x47F JUMPI PUSH1 0x0 DUP1 REVERT JUMPDEST POP PUSH2 0x18B PUSH2 0x48E CALLDATASIZE PUSH1 0x4 PUSH2 0x16D9 JUMP JUMPDEST PUSH1 0x1 PUSH1 0x1 PUSH1 0xA0 SHL SUB AND PUSH1 0x0 SWAP1 DUP2 MSTORE PUSH1 0x6 PUSH1 0x20 MSTORE PUSH1 0x40 SWAP1 KECCAK256 SLOAD PUSH1 0xFF AND SWAP1 JUMP JUMPDEST CALLVALUE DUP1 ISZERO PUSH2 0x4B8 JUMPI PUSH1 0x0 DUP1 REVERT JUMPDEST POP PUSH2 0x1D4 PUSH32 0xEDCC084D3DCD65A1F7F23C65C46722FACA6953D28E43150A467CF43E5C309238 DUP2 JUMP JUMPDEST CALLVALUE DUP1 ISZERO PUSH2 0x4EC JUMPI PUSH1 0x0 DUP1 REVERT JUMPDEST POP PUSH1 0x0 SLOAD PUSH2 0x392 SWAP1 PUSH1 0x1 PUSH1 0x1 PUSH1 0xA0 SHL SUB AND DUP2 JUMP JUMPDEST PUSH1 0x0 PUSH1 0x1 PUSH1 0x1 PUSH1 0xE0 SHL SUB NOT DUP3 AND PUSH4 0x7965DB0B PUSH1 0xE0 SHL EQ DUP1 PUSH2 0x531 JUMPI POP PUSH4 0x1FFC9A7 PUSH1 0xE0 SHL PUSH1 0x1 PUSH1 0x1 PUSH1 0xE0 SHL SUB NOT DUP4 AND EQ JUMPDEST SWAP3 SWAP2 POP POP JUMP JUMPDEST PUSH1 0x0 SWAP1 DUP2 MSTORE PUSH1 0x0 DUP1 MLOAD PUSH1 0x20 PUSH2 0x1D3D DUP4 CODECOPY DUP2 MLOAD SWAP2 MSTORE PUSH1 0x20 MSTORE PUSH1 0x40 SWAP1 KECCAK256 PUSH1 0x1 ADD SLOAD SWAP1 JUMP JUMPDEST PUSH2 0x562 DUP3 PUSH2 0x537 JUMP JUMPDEST PUSH2 0x56B DUP2 PUSH2 0x13FE JUMP JUMPDEST PUSH2 0x575 DUP4 DUP4 PUSH2 0x140B JUMP JUMPDEST POP POP POP POP JUMP JUMPDEST PUSH1 0x1 PUSH1 0x1 PUSH1 0xA0 SHL SUB DUP2 AND CALLER EQ PUSH2 0x5A4 JUMPI PUSH1 0x40 MLOAD PUSH4 0x334BD919 PUSH1 0xE1 SHL DUP2 MSTORE PUSH1 0x4 ADD PUSH1 0x40 MLOAD DUP1 SWAP2 SUB SWAP1 REVERT JUMPDEST PUSH2 0x5AE DUP3 DUP3 PUSH2 0x14B0 JUMP JUMPDEST POP POP POP JUMP JUMPDEST PUSH1 0x1 PUSH1 0x1 PUSH1 0xA0 SHL SUB DUP2 AND PUSH1 0x0 SWAP1 DUP2 MSTORE PUSH1 0x6 PUSH1 0x20 SWAP1 DUP2 MSTORE PUSH1 0x40 DUP1 DUP4 KECCAK256 DUP2 MLOAD PUSH1 0xA0 DUP2 ADD SWAP1 SWAP3 MSTORE DUP1 SLOAD PUSH1 0xFF DUP1 DUP3 AND ISZERO ISZERO DUP5 MSTORE DUP6 SWAP5 PUSH1 0x60 SWAP5 DUP6 SWAP5 DUP6 SWAP5 DUP9 SWAP5 SWAP3 SWAP4 SWAP2 SWAP3 SWAP2 DUP5 ADD SWAP2 PUSH2 0x100 SWAP1 SWAP2 DIV AND PUSH1 0x5 DUP2 GT ISZERO PUSH2 0x60D JUMPI PUSH2 0x60D PUSH2 0x173F JUMP JUMPDEST PUSH1 0x5 DUP2 GT ISZERO PUSH2 0x61E JUMPI PUSH2 0x61E PUSH2 0x173F JUMP JUMPDEST DUP2 MSTORE PUSH1 0x20 ADD PUSH1 0x1 DUP3 ADD DUP1 SLOAD PUSH2 0x632 SWAP1 PUSH2 0x1AD2 JUMP JUMPDEST DUP1 PUSH1 0x1F ADD PUSH1 0x20 DUP1 SWAP2 DIV MUL PUSH1 0x20 ADD PUSH1 0x40 MLOAD SWAP1 DUP2 ADD PUSH1 0x40 MSTORE DUP1 SWAP3 SWAP2 SWAP1 DUP2 DUP2 MSTORE PUSH1 0x20 ADD DUP3 DUP1 SLOAD PUSH2 0x65E SWAP1 PUSH2 0x1AD2 JUMP JUMPDEST DUP1 ISZERO PUSH2 0x6AB JUMPI DUP1 PUSH1 0x1F LT PUSH2 0x680 JUMPI PUSH2 0x100 DUP1 DUP4 SLOAD DIV MUL DUP4 MSTORE SWAP2 PUSH1 0x20 ADD SWAP2 PUSH2 0x6AB JUMP JUMPDEST DUP3 ADD SWAP2 SWAP1 PUSH1 0x0 MSTORE PUSH1 0x20 PUSH1 0x0 KECCAK256 SWAP1 JUMPDEST DUP2 SLOAD DUP2 MSTORE SWAP1 PUSH1 0x1 ADD SWAP1 PUSH1 0x20 ADD DUP1 DUP4 GT PUSH2 0x68E JUMPI DUP3 SWAP1 SUB PUSH1 0x1F AND DUP3 ADD SWAP2 JUMPDEST POP POP POP POP POP DUP2 MSTORE PUSH1 0x20 ADD PUSH1 0x2 DUP3 ADD DUP1 SLOAD PUSH2 0x6C4 SWAP1 PUSH2 0x1AD2 JUMP JUMPDEST DUP1 PUSH1 0x1F ADD PUSH1 0x20 DUP1 SWAP2 DIV MUL PUSH1 0x20 ADD PUSH1 0x40 MLOAD SWAP1 DUP2 ADD PUSH1 0x40 MSTORE DUP1 SWAP3 SWAP2 SWAP1 DUP2 DUP2 MSTORE PUSH1 0x20 ADD DUP3 DUP1 SLOAD PUSH2 0x6F0 SWAP1 PUSH2 0x1AD2 JUMP JUMPDEST DUP1 ISZERO PUSH2 0x73D JUMPI DUP1 PUSH1 0x1F LT PUSH2 0x712 JUMPI PUSH2 0x100 DUP1 DUP4 SLOAD DIV MUL DUP4 MSTORE SWAP2 PUSH1 0x20 ADD SWAP2 PUSH2 0x73D JUMP JUMPDEST DUP3 ADD SWAP2 SWAP1 PUSH1 0x0 MSTORE PUSH1 0x20 PUSH1 0x0 KECCAK256 SWAP1 JUMPDEST DUP2 SLOAD DUP2 MSTORE SWAP1 PUSH1 0x1 ADD SWAP1 PUSH1 0x20 ADD DUP1 DUP4 GT PUSH2 0x720 JUMPI DUP3 SWAP1 SUB PUSH1 0x1F AND DUP3 ADD SWAP2 JUMPDEST POP POP POP POP POP DUP2 MSTORE PUSH1 0x20 ADD PUSH1 0x3 DUP3 ADD DUP1 SLOAD PUSH2 0x756 SWAP1 PUSH2 0x1AD2 JUMP JUMPDEST DUP1 PUSH1 0x1F ADD PUSH1 0x20 DUP1 SWAP2 DIV MUL PUSH1 0x20 ADD PUSH1 0x40 MLOAD SWAP1 DUP2 ADD PUSH1 0x40 MSTORE DUP1 SWAP3 SWAP2 SWAP1 DUP2 DUP2 MSTORE PUSH1 0x20 ADD DUP3 DUP1 SLOAD PUSH2 0x782 SWAP1 PUSH2 0x1AD2 JUMP JUMPDEST DUP1 ISZERO PUSH2 0x7CF JUMPI DUP1 PUSH1 0x1F LT PUSH2 0x7A4 JUMPI PUSH2 0x100 DUP1 DUP4 SLOAD DIV MUL DUP4 MSTORE SWAP2 PUSH1 0x20 ADD SWAP2 PUSH2 0x7CF JUMP JUMPDEST DUP3 ADD SWAP2 SWAP1 PUSH1 0x0 MSTORE PUSH1 0x20 PUSH1 0x0 KECCAK256 SWAP1 JUMPDEST DUP2 SLOAD DUP2 MSTORE SWAP1 PUSH1 0x1 ADD SWAP1 PUSH1 0x20 ADD DUP1 DUP4 GT PUSH2 0x7B2 JUMPI DUP3 SWAP1 SUB PUSH1 0x1F AND DUP3 ADD SWAP2 JUMPDEST POP POP POP SWAP2 SWAP1 SWAP3 MSTORE POP POP DUP2 MLOAD PUSH1 0x20 DUP4 ADD MLOAD PUSH1 0x40 DUP5 ADD MLOAD PUSH1 0x60 DUP6 ADD MLOAD PUSH1 0x80 SWAP1 SWAP6 ADD MLOAD SWAP3 SWAP13 SWAP2 SWAP12 POP SWAP10 POP SWAP3 SWAP8 POP SWAP6 POP SWAP1 SWAP4 POP POP POP POP JUMP JUMPDEST PUSH32 0xD9FA870F425ABCC65E9F66291FD387E7D8E4B1A8019D84DF97822B1A0643F585 PUSH2 0x82D DUP2 PUSH2 0x13FE JUMP JUMPDEST PUSH1 0x1 PUSH1 0x1 PUSH1 0xA0 SHL SUB DUP6 AND PUSH2 0x877 JUMPI PUSH1 0x40 MLOAD PUSH3 0x461BCD PUSH1 0xE5 SHL DUP2 MSTORE PUSH1 0x20 PUSH1 0x4 DUP3 ADD MSTORE PUSH1 0xC PUSH1 0x24 DUP3 ADD MSTORE PUSH12 0x24B73B30B634B2103AB9B2B9 PUSH1 0xA1 SHL PUSH1 0x44 DUP3 ADD MSTORE PUSH1 0x64 ADD JUMPDEST PUSH1 0x40 MLOAD DUP1 SWAP2 SUB SWAP1 REVERT JUMPDEST PUSH1 0x0 DUP5 GT PUSH2 0x8BC JUMPI PUSH1 0x40 MLOAD PUSH3 0x461BCD PUSH1 0xE5 SHL DUP2 MSTORE PUSH1 0x20 PUSH1 0x4 DUP3 ADD MSTORE PUSH1 0x12 PUSH1 0x24 DUP3 ADD MSTORE PUSH18 0x526577617264206D757374206265203E203 PUSH1 0x74 SHL PUSH1 0x44 DUP3 ADD MSTORE PUSH1 0x64 ADD PUSH2 0x86E JUMP JUMPDEST PUSH1 0x1 PUSH1 0x1 PUSH1 0xA0 SHL SUB DUP6 AND PUSH1 0x0 SWAP1 DUP2 MSTORE PUSH1 0x7 PUSH1 0x20 MSTORE PUSH1 0x40 DUP2 KECCAK256 DUP1 SLOAD DUP7 SWAP3 SWAP1 PUSH2 0x8E4 SWAP1 DUP5 SWAP1 PUSH2 0x1B22 JUMP JUMPDEST SWAP1 SWAP2 SSTORE POP POP PUSH1 0x0 SLOAD PUSH1 0x40 MLOAD PUSH4 0x40C10F19 PUSH1 0xE0 SHL DUP2 MSTORE PUSH1 0x1 PUSH1 0x1 PUSH1 0xA0 SHL SUB DUP8 DUP2 AND PUSH1 0x4 DUP4 ADD MSTORE PUSH1 0x24 DUP3 ADD DUP8 SWAP1 MSTORE SWAP1 SWAP2 AND SWAP1 PUSH4 0x40C10F19 SWAP1 PUSH1 0x44 ADD PUSH1 0x0 PUSH1 0x40 MLOAD DUP1 DUP4 SUB DUP2 PUSH1 0x0 DUP8 DUP1 EXTCODESIZE ISZERO DUP1 ISZERO PUSH2 0x937 JUMPI PUSH1 0x0 DUP1 REVERT JUMPDEST POP GAS CALL ISZERO DUP1 ISZERO PUSH2 0x94B JUMPI RETURNDATASIZE PUSH1 0x0 DUP1 RETURNDATACOPY RETURNDATASIZE PUSH1 0x0 REVERT JUMPDEST POP POP POP POP DUP5 PUSH1 0x1 PUSH1 0x1 PUSH1 0xA0 SHL SUB AND PUSH32 0xF746C75AB19937D58B2A3E0406D8D5FCD1E8AE5545A89C47E88E53497787182C DUP5 DUP5 DUP8 PUSH1 0x40 MLOAD PUSH2 0x98C SWAP4 SWAP3 SWAP2 SWAP1 PUSH2 0x1B5E JUMP JUMPDEST PUSH1 0x40 MLOAD DUP1 SWAP2 SUB SWAP1 LOG2 POP POP POP POP POP JUMP JUMPDEST PUSH32 0xEDCC084D3DCD65A1F7F23C65C46722FACA6953D28E43150A467CF43E5C309238 PUSH2 0x9C5 DUP2 PUSH2 0x13FE JUMP JUMPDEST PUSH1 0x1 PUSH1 0x1 PUSH1 0xA0 SHL SUB DUP10 AND PUSH2 0xA13 JUMPI PUSH1 0x40 MLOAD PUSH3 0x461BCD PUSH1 0xE5 SHL DUP2 MSTORE PUSH1 0x20 PUSH1 0x4 DUP3 ADD MSTORE PUSH1 0x15 PUSH1 0x24 DUP3 ADD MSTORE PUSH21 0x496E76616C6964206163746F722061646472657373 PUSH1 0x58 SHL PUSH1 0x44 DUP3 ADD MSTORE PUSH1 0x64 ADD PUSH2 0x86E JUMP JUMPDEST PUSH1 0x40 MLOAD DUP1 PUSH1 0xA0 ADD PUSH1 0x40 MSTORE DUP1 PUSH1 0x1 ISZERO ISZERO DUP2 MSTORE PUSH1 0x20 ADD DUP10 PUSH1 0x5 DUP2 GT ISZERO PUSH2 0xA39 JUMPI PUSH2 0xA39 PUSH2 0x173F JUMP JUMPDEST DUP2 MSTORE PUSH1 0x20 ADD DUP9 DUP9 DUP1 DUP1 PUSH1 0x1F ADD PUSH1 0x20 DUP1 SWAP2 DIV MUL PUSH1 0x20 ADD PUSH1 0x40 MLOAD SWAP1 DUP2 ADD PUSH1 0x40 MSTORE DUP1 SWAP4 SWAP3 SWAP2 SWAP1 DUP2 DUP2 MSTORE PUSH1 0x20 ADD DUP4 DUP4 DUP1 DUP3 DUP5 CALLDATACOPY PUSH1 0x0 SWAP3 ADD SWAP2 SWAP1 SWAP2 MSTORE POP POP POP SWAP1 DUP3 MSTORE POP PUSH1 0x40 DUP1 MLOAD PUSH1 0x20 PUSH1 0x1F DUP10 ADD DUP2 SWAP1 DIV DUP2 MUL DUP3 ADD DUP2 ADD SWAP1 SWAP3 MSTORE DUP8 DUP2 MSTORE SWAP2 DUP2 ADD SWAP2 SWAP1 DUP9 SWAP1 DUP9 SWAP1 DUP2 SWAP1 DUP5 ADD DUP4 DUP3 DUP1 DUP3 DUP5 CALLDATACOPY PUSH1 0x0 SWAP3 ADD SWAP2 SWAP1 SWAP2 MSTORE POP POP POP SWAP1 DUP3 MSTORE POP PUSH1 0x40 DUP1 MLOAD PUSH1 0x20 PUSH1 0x1F DUP8 ADD DUP2 SWAP1 DIV DUP2 MUL DUP3 ADD DUP2 ADD SWAP1 SWAP3 MSTORE DUP6 DUP2 MSTORE SWAP2 DUP2 ADD SWAP2 SWAP1 DUP7 SWAP1 DUP7 SWAP1 DUP2 SWAP1 DUP5 ADD DUP4 DUP3 DUP1 DUP3 DUP5 CALLDATACOPY PUSH1 0x0 SWAP3 ADD DUP3 SWAP1 MSTORE POP SWAP4 SWAP1 SWAP5 MSTORE POP POP PUSH1 0x1 PUSH1 0x1 PUSH1 0xA0 SHL SUB DUP13 AND DUP2 MSTORE PUSH1 0x6 PUSH1 0x20 SWAP1 DUP2 MSTORE PUSH1 0x40 SWAP1 SWAP2 KECCAK256 DUP4 MLOAD DUP2 SLOAD SWAP1 ISZERO ISZERO PUSH1 0xFF NOT DUP3 AND DUP2 OR DUP4 SSTORE SWAP3 DUP6 ADD MLOAD SWAP2 SWAP4 POP SWAP1 SWAP2 DUP4 SWAP2 PUSH2 0xFF00 NOT SWAP1 SWAP2 AND PUSH2 0xFFFF NOT SWAP1 SWAP2 AND OR PUSH2 0x100 DUP4 PUSH1 0x5 DUP2 GT ISZERO PUSH2 0xB43 JUMPI PUSH2 0xB43 PUSH2 0x173F JUMP JUMPDEST MUL OR SWAP1 SSTORE POP PUSH1 0x40 DUP3 ADD MLOAD PUSH1 0x1 DUP3 ADD SWAP1 PUSH2 0xB5C SWAP1 DUP3 PUSH2 0x1BD0 JUMP JUMPDEST POP PUSH1 0x60 DUP3 ADD MLOAD PUSH1 0x2 DUP3 ADD SWAP1 PUSH2 0xB71 SWAP1 DUP3 PUSH2 0x1BD0 JUMP JUMPDEST POP PUSH1 0x80 DUP3 ADD MLOAD PUSH1 0x3 DUP3 ADD SWAP1 PUSH2 0xB86 SWAP1 DUP3 PUSH2 0x1BD0 JUMP JUMPDEST POP SWAP1 POP POP PUSH1 0x0 PUSH2 0xBCB DUP9 DUP9 DUP1 DUP1 PUSH1 0x1F ADD PUSH1 0x20 DUP1 SWAP2 DIV MUL PUSH1 0x20 ADD PUSH1 0x40 MLOAD SWAP1 DUP2 ADD PUSH1 0x40 MSTORE DUP1 SWAP4 SWAP3 SWAP2 SWAP1 DUP2 DUP2 MSTORE PUSH1 0x20 ADD DUP4 DUP4 DUP1 DUP3 DUP5 CALLDATACOPY PUSH1 0x0 SWAP3 ADD SWAP2 SWAP1 SWAP2 MSTORE POP PUSH2 0xCEF SWAP3 POP POP POP JUMP JUMPDEST PUSH1 0x1 SLOAD PUSH1 0x40 MLOAD PUSH4 0x1153EBFB PUSH1 0xE2 SHL DUP2 MSTORE SWAP2 SWAP3 POP PUSH1 0x1 PUSH1 0x1 PUSH1 0xA0 SHL SUB SWAP1 DUP2 AND SWAP2 PUSH4 0x454FAFEC SWAP2 PUSH2 0xC03 SWAP2 DUP15 SWAP2 DUP3 AND SWAP1 DUP7 SWAP1 PUSH1 0x4 ADD PUSH2 0x1C8F JUMP JUMPDEST PUSH1 0x0 PUSH1 0x40 MLOAD DUP1 DUP4 SUB DUP2 PUSH1 0x0 DUP8 DUP1 EXTCODESIZE ISZERO DUP1 ISZERO PUSH2 0xC1D JUMPI PUSH1 0x0 DUP1 REVERT JUMPDEST POP GAS CALL ISZERO DUP1 ISZERO PUSH2 0xC31 JUMPI RETURNDATASIZE PUSH1 0x0 DUP1 RETURNDATACOPY RETURNDATASIZE PUSH1 0x0 REVERT JUMPDEST POP POP PUSH1 0x0 SLOAD PUSH1 0x2 SLOAD PUSH1 0x40 MLOAD PUSH4 0x40C10F19 PUSH1 0xE0 SHL DUP2 MSTORE PUSH1 0x1 PUSH1 0x1 PUSH1 0xA0 SHL SUB DUP16 DUP2 AND PUSH1 0x4 DUP4 ADD MSTORE PUSH1 0x24 DUP3 ADD SWAP3 SWAP1 SWAP3 MSTORE SWAP2 AND SWAP3 POP PUSH4 0x40C10F19 SWAP2 POP PUSH1 0x44 ADD PUSH1 0x0 PUSH1 0x40 MLOAD DUP1 DUP4 SUB DUP2 PUSH1 0x0 DUP8 DUP1 EXTCODESIZE ISZERO DUP1 ISZERO PUSH2 0xC86 JUMPI PUSH1 0x0 DUP1 REVERT JUMPDEST POP GAS CALL ISZERO DUP1 ISZERO PUSH2 0xC9A JUMPI RETURNDATASIZE PUSH1 0x0 DUP1 RETURNDATACOPY RETURNDATASIZE PUSH1 0x0 REVERT JUMPDEST POP POP POP POP DUP10 PUSH1 0x1 PUSH1 0x1 PUSH1 0xA0 SHL SUB AND PUSH32 0xA8C194A0BB99FE5563599CD2F9A5C005A12A87AD542C02DD32D07FD57C113425 DUP11 DUP11 DUP11 PUSH1 0x40 MLOAD PUSH2 0xCDB SWAP4 SWAP3 SWAP2 SWAP1 PUSH2 0x1CBF JUMP JUMPDEST PUSH1 0x40 MLOAD DUP1 SWAP2 SUB SWAP1 LOG2 POP POP POP POP POP POP POP POP POP POP JUMP JUMPDEST PUSH1 0x60 DUP2 PUSH1 0x40 MLOAD PUSH1 0x20 ADD PUSH2 0xD02 SWAP2 SWAP1 PUSH2 0x1CE0 JUMP JUMPDEST PUSH1 0x40 MLOAD PUSH1 0x20 DUP2 DUP4 SUB SUB DUP2 MSTORE SWAP1 PUSH1 0x40 MSTORE SWAP1 POP SWAP2 SWAP1 POP JUMP JUMPDEST PUSH1 0x0 SWAP2 DUP3 MSTORE PUSH1 0x0 DUP1 MLOAD PUSH1 0x20 PUSH2 0x1D3D DUP4 CODECOPY DUP2 MLOAD SWAP2 MSTORE PUSH1 0x20 SWAP1 DUP2 MSTORE PUSH1 0x40 DUP1 DUP5 KECCAK256 PUSH1 0x1 PUSH1 0x1 PUSH1 0xA0 SHL SUB SWAP4 SWAP1 SWAP4 AND DUP5 MSTORE SWAP2 SWAP1 MSTORE SWAP1 KECCAK256 SLOAD PUSH1 0xFF AND SWAP1 JUMP JUMPDEST PUSH1 0x0 PUSH2 0xD5B DUP2 PUSH2 0x13FE JUMP JUMPDEST SELFBALANCE DUP1 PUSH2 0xD9E JUMPI PUSH1 0x40 MLOAD PUSH3 0x461BCD PUSH1 0xE5 SHL DUP2 MSTORE PUSH1 0x20 PUSH1 0x4 DUP3 ADD MSTORE PUSH1 0x12 PUSH1 0x24 DUP3 ADD MSTORE PUSH18 0x4E6F2066756E647320617661696C61626C65 PUSH1 0x70 SHL PUSH1 0x44 DUP3 ADD MSTORE PUSH1 0x64 ADD PUSH2 0x86E JUMP JUMPDEST PUSH1 0x1 PUSH1 0x1 PUSH1 0xA0 SHL SUB DUP4 AND PUSH2 0xDE9 JUMPI PUSH1 0x40 MLOAD PUSH3 0x461BCD PUSH1 0xE5 SHL DUP2 MSTORE PUSH1 0x20 PUSH1 0x4 DUP3 ADD MSTORE PUSH1 0x12 PUSH1 0x24 DUP3 ADD MSTORE PUSH18 0x149958DA5C1A595B9D081C995C5D5A5C9959 PUSH1 0x72 SHL PUSH1 0x44 DUP3 ADD MSTORE PUSH1 0x64 ADD PUSH2 0x86E JUMP JUMPDEST PUSH2 0x5AE PUSH1 0x1 PUSH1 0x1 PUSH1 0xA0 SHL SUB DUP5 AND DUP3 PUSH2 0x152C JUMP JUMPDEST PUSH1 0x0 PUSH2 0xE06 PUSH2 0x15BC JUMP JUMPDEST DUP1 SLOAD SWAP1 SWAP2 POP PUSH1 0xFF PUSH1 0x1 PUSH1 0x40 SHL DUP3 DIV AND ISZERO SWAP1 PUSH8 0xFFFFFFFFFFFFFFFF AND PUSH1 0x0 DUP2 ISZERO DUP1 ISZERO PUSH2 0xE2E JUMPI POP DUP3 JUMPDEST SWAP1 POP PUSH1 0x0 DUP3 PUSH8 0xFFFFFFFFFFFFFFFF AND PUSH1 0x1 EQ DUP1 ISZERO PUSH2 0xE4B JUMPI POP ADDRESS EXTCODESIZE ISZERO JUMPDEST SWAP1 POP DUP2 ISZERO DUP1 ISZERO PUSH2 0xE59 JUMPI POP DUP1 ISZERO JUMPDEST ISZERO PUSH2 0xE77 JUMPI PUSH1 0x40 MLOAD PUSH4 0xF92EE8A9 PUSH1 0xE0 SHL DUP2 MSTORE PUSH1 0x4 ADD PUSH1 0x40 MLOAD DUP1 SWAP2 SUB SWAP1 REVERT JUMPDEST DUP5 SLOAD PUSH8 0xFFFFFFFFFFFFFFFF NOT AND PUSH1 0x1 OR DUP6 SSTORE DUP4 ISZERO PUSH2 0xEA1 JUMPI DUP5 SLOAD PUSH1 0xFF PUSH1 0x40 SHL NOT AND PUSH1 0x1 PUSH1 0x40 SHL OR DUP6 SSTORE JUMPDEST PUSH2 0xEA9 PUSH2 0x15E5 JUMP JUMPDEST PUSH1 0x1 PUSH1 0x1 PUSH1 0xA0 SHL SUB DUP11 AND PUSH2 0xEF8 JUMPI PUSH1 0x40 MLOAD PUSH3 0x461BCD PUSH1 0xE5 SHL DUP2 MSTORE PUSH1 0x20 PUSH1 0x4 DUP3 ADD MSTORE PUSH1 0x16 PUSH1 0x24 DUP3 ADD MSTORE PUSH22 0x10591B5A5B881859191C995CDCC81C995C5D5A5C9959 PUSH1 0x52 SHL PUSH1 0x44 DUP3 ADD MSTORE PUSH1 0x64 ADD PUSH2 0x86E JUMP JUMPDEST PUSH1 0x1 PUSH1 0x1 PUSH1 0xA0 SHL SUB DUP10 AND PUSH2 0xF47 JUMPI PUSH1 0x40 MLOAD PUSH3 0x461BCD PUSH1 0xE5 SHL DUP2 MSTORE PUSH1 0x20 PUSH1 0x4 DUP3 ADD MSTORE PUSH1 0x16 PUSH1 0x24 DUP3 ADD MSTORE PUSH22 0x151BDAD95B881859191C995CDCC81C995C5D5A5C9959 PUSH1 0x52 SHL PUSH1 0x44 DUP3 ADD MSTORE PUSH1 0x64 ADD PUSH2 0x86E JUMP JUMPDEST PUSH1 0x1 PUSH1 0x1 PUSH1 0xA0 SHL SUB DUP9 AND PUSH2 0xF9D JUMPI PUSH1 0x40 MLOAD PUSH3 0x461BCD PUSH1 0xE5 SHL DUP2 MSTORE PUSH1 0x20 PUSH1 0x4 DUP3 ADD MSTORE PUSH1 0x17 PUSH1 0x24 DUP3 ADD MSTORE PUSH32 0x43726564656E7469616C204E4654207265717569726564000000000000000000 PUSH1 0x44 DUP3 ADD MSTORE PUSH1 0x64 ADD PUSH2 0x86E JUMP JUMPDEST PUSH1 0x0 DUP7 GT PUSH2 0xFED JUMPI PUSH1 0x40 MLOAD PUSH3 0x461BCD PUSH1 0xE5 SHL DUP2 MSTORE PUSH1 0x20 PUSH1 0x4 DUP3 ADD DUP2 SWAP1 MSTORE PUSH1 0x24 DUP3 ADD MSTORE PUSH32 0x446F6E6174696F6E207265776172642072617465206D757374206265203E2030 PUSH1 0x44 DUP3 ADD MSTORE PUSH1 0x64 ADD PUSH2 0x86E JUMP JUMPDEST PUSH1 0x0 DUP1 SLOAD PUSH1 0x1 PUSH1 0x1 PUSH1 0xA0 SHL SUB DUP1 DUP13 AND PUSH1 0x1 PUSH1 0x1 PUSH1 0xA0 SHL SUB NOT SWAP3 DUP4 AND OR DUP4 SSTORE PUSH1 0x1 DUP1 SLOAD SWAP2 DUP13 AND SWAP2 SWAP1 SWAP3 AND OR SWAP1 SSTORE PUSH1 0x2 DUP9 SWAP1 SSTORE PUSH1 0x3 DUP8 SWAP1 SSTORE PUSH2 0x102D SWAP1 DUP12 PUSH2 0x140B JUMP JUMPDEST POP PUSH2 0x1058 PUSH32 0xEDCC084D3DCD65A1F7F23C65C46722FACA6953D28E43150A467CF43E5C309238 DUP12 PUSH2 0x140B JUMP JUMPDEST POP PUSH2 0x1083 PUSH32 0xD9FA870F425ABCC65E9F66291FD387E7D8E4B1A8019D84DF97822B1A0643F585 DUP12 PUSH2 0x140B JUMP JUMPDEST POP DUP4 ISZERO PUSH2 0x10CA JUMPI DUP5 SLOAD PUSH1 0xFF PUSH1 0x40 SHL NOT AND DUP6 SSTORE PUSH1 0x40 MLOAD PUSH1 0x1 DUP2 MSTORE PUSH32 0xC7F505B2F371AE2175EE4913F4499E1F2633A7B5936321EED1CDAEB6115181D2 SWAP1 PUSH1 0x20 ADD PUSH1 0x40 MLOAD DUP1 SWAP2 SUB SWAP1 LOG1 JUMPDEST POP POP POP POP POP POP POP POP POP POP JUMP JUMPDEST PUSH2 0x10DF DUP3 PUSH2 0x537 JUMP JUMPDEST PUSH2 0x10E8 DUP2 PUSH2 0x13FE JUMP JUMPDEST PUSH2 0x575 DUP4 DUP4 PUSH2 0x14B0 JUMP JUMPDEST PUSH1 0x6 PUSH1 0x20 MSTORE PUSH1 0x0 SWAP1 DUP2 MSTORE PUSH1 0x40 SWAP1 KECCAK256 DUP1 SLOAD PUSH1 0x1 DUP3 ADD DUP1 SLOAD PUSH1 0xFF DUP1 DUP5 AND SWAP5 PUSH2 0x100 SWAP1 SWAP5 DIV AND SWAP3 SWAP2 SWAP1 PUSH2 0x1121 SWAP1 PUSH2 0x1AD2 JUMP JUMPDEST DUP1 PUSH1 0x1F ADD PUSH1 0x20 DUP1 SWAP2 DIV MUL PUSH1 0x20 ADD PUSH1 0x40 MLOAD SWAP1 DUP2 ADD PUSH1 0x40 MSTORE DUP1 SWAP3 SWAP2 SWAP1 DUP2 DUP2 MSTORE PUSH1 0x20 ADD DUP3 DUP1 SLOAD PUSH2 0x114D SWAP1 PUSH2 0x1AD2 JUMP JUMPDEST DUP1 ISZERO PUSH2 0x119A JUMPI DUP1 PUSH1 0x1F LT PUSH2 0x116F JUMPI PUSH2 0x100 DUP1 DUP4 SLOAD DIV MUL DUP4 MSTORE SWAP2 PUSH1 0x20 ADD SWAP2 PUSH2 0x119A JUMP JUMPDEST DUP3 ADD SWAP2 SWAP1 PUSH1 0x0 MSTORE PUSH1 0x20 PUSH1 0x0 KECCAK256 SWAP1 JUMPDEST DUP2 SLOAD DUP2 MSTORE SWAP1 PUSH1 0x1 ADD SWAP1 PUSH1 0x20 ADD DUP1 DUP4 GT PUSH2 0x117D JUMPI DUP3 SWAP1 SUB PUSH1 0x1F AND DUP3 ADD SWAP2 JUMPDEST POP POP POP POP POP SWAP1 DUP1 PUSH1 0x2 ADD DUP1 SLOAD PUSH2 0x11AF SWAP1 PUSH2 0x1AD2 JUMP JUMPDEST DUP1 PUSH1 0x1F ADD PUSH1 0x20 DUP1 SWAP2 DIV MUL PUSH1 0x20 ADD PUSH1 0x40 MLOAD SWAP1 DUP2 ADD PUSH1 0x40 MSTORE DUP1 SWAP3 SWAP2 SWAP1 DUP2 DUP2 MSTORE PUSH1 0x20 ADD DUP3 DUP1 SLOAD PUSH2 0x11DB SWAP1 PUSH2 0x1AD2 JUMP JUMPDEST DUP1 ISZERO PUSH2 0x1228 JUMPI DUP1 PUSH1 0x1F LT PUSH2 0x11FD JUMPI PUSH2 0x100 DUP1 DUP4 SLOAD DIV MUL DUP4 MSTORE SWAP2 PUSH1 0x20 ADD SWAP2 PUSH2 0x1228 JUMP JUMPDEST DUP3 ADD SWAP2 SWAP1 PUSH1 0x0 MSTORE PUSH1 0x20 PUSH1 0x0 KECCAK256 SWAP1 JUMPDEST DUP2 SLOAD DUP2 MSTORE SWAP1 PUSH1 0x1 ADD SWAP1 PUSH1 0x20 ADD DUP1 DUP4 GT PUSH2 0x120B JUMPI DUP3 SWAP1 SUB PUSH1 0x1F AND DUP3 ADD SWAP2 JUMPDEST POP POP POP POP POP SWAP1 DUP1 PUSH1 0x3 ADD DUP1 SLOAD PUSH2 0x123D SWAP1 PUSH2 0x1AD2 JUMP JUMPDEST DUP1 PUSH1 0x1F ADD PUSH1 0x20 DUP1 SWAP2 DIV MUL PUSH1 0x20 ADD PUSH1 0x40 MLOAD SWAP1 DUP2 ADD PUSH1 0x40 MSTORE DUP1 SWAP3 SWAP2 SWAP1 DUP2 DUP2 MSTORE PUSH1 0x20 ADD DUP3 DUP1 SLOAD PUSH2 0x1269 SWAP1 PUSH2 0x1AD2 JUMP JUMPDEST DUP1 ISZERO PUSH2 0x12B6 JUMPI DUP1 PUSH1 0x1F LT PUSH2 0x128B JUMPI PUSH2 0x100 DUP1 DUP4 SLOAD DIV MUL DUP4 MSTORE SWAP2 PUSH1 0x20 ADD SWAP2 PUSH2 0x12B6 JUMP JUMPDEST DUP3 ADD SWAP2 SWAP1 PUSH1 0x0 MSTORE PUSH1 0x20 PUSH1 0x0 KECCAK256 SWAP1 JUMPDEST DUP2 SLOAD DUP2 MSTORE SWAP1 PUSH1 0x1 ADD SWAP1 PUSH1 0x20 ADD DUP1 DUP4 GT PUSH2 0x1299 JUMPI DUP3 SWAP1 SUB PUSH1 0x1F AND DUP3 ADD SWAP2 JUMPDEST POP POP POP POP POP SWAP1 POP DUP6 JUMP JUMPDEST PUSH1 0x0 CALLVALUE GT PUSH2 0x1310 JUMPI PUSH1 0x40 MLOAD PUSH3 0x461BCD PUSH1 0xE5 SHL DUP2 MSTORE PUSH1 0x20 PUSH1 0x4 DUP3 ADD MSTORE PUSH1 0x1F PUSH1 0x24 DUP3 ADD MSTORE PUSH32 0x446F6E6174696F6E206D7573742062652067726561746572207468616E203000 PUSH1 0x44 DUP3 ADD MSTORE PUSH1 0x64 ADD PUSH2 0x86E JUMP JUMPDEST CALLVALUE PUSH1 0x5 PUSH1 0x0 DUP3 DUP3 SLOAD PUSH2 0x1322 SWAP2 SWAP1 PUSH2 0x1B22 JUMP JUMPDEST SWAP1 SWAP2 SSTORE POP POP CALLER PUSH1 0x0 SWAP1 DUP2 MSTORE PUSH1 0x4 PUSH1 0x20 MSTORE PUSH1 0x40 DUP2 KECCAK256 DUP1 SLOAD CALLVALUE SWAP3 SWAP1 PUSH2 0x1346 SWAP1 DUP5 SWAP1 PUSH2 0x1B22 JUMP JUMPDEST SWAP1 SWAP2 SSTORE POP POP PUSH1 0x3 SLOAD PUSH1 0x0 SWAP1 PUSH2 0x135B SWAP1 CALLVALUE PUSH2 0x1D25 JUMP JUMPDEST PUSH1 0x0 SLOAD PUSH1 0x40 MLOAD PUSH4 0x40C10F19 PUSH1 0xE0 SHL DUP2 MSTORE CALLER PUSH1 0x4 DUP3 ADD MSTORE PUSH1 0x24 DUP2 ADD DUP4 SWAP1 MSTORE SWAP2 SWAP3 POP PUSH1 0x1 PUSH1 0x1 PUSH1 0xA0 SHL SUB AND SWAP1 PUSH4 0x40C10F19 SWAP1 PUSH1 0x44 ADD PUSH1 0x0 PUSH1 0x40 MLOAD DUP1 DUP4 SUB DUP2 PUSH1 0x0 DUP8 DUP1 EXTCODESIZE ISZERO DUP1 ISZERO PUSH2 0x13A8 JUMPI PUSH1 0x0 DUP1 REVERT JUMPDEST POP GAS CALL ISZERO DUP1 ISZERO PUSH2 0x13BC JUMPI RETURNDATASIZE PUSH1 0x0 DUP1 RETURNDATACOPY RETURNDATASIZE PUSH1 0x0 REVERT JUMPDEST POP POP PUSH1 0x40 DUP1 MLOAD CALLVALUE DUP2 MSTORE PUSH1 0x20 DUP2 ADD DUP6 SWAP1 MSTORE CALLER SWAP4 POP PUSH32 0x4B0304AB2F313234B1CEA012339C8F8C3BF2C8BB357D81A579CFDB35D2E3D030 SWAP3 POP ADD PUSH1 0x40 MLOAD DUP1 SWAP2 SUB SWAP1 LOG2 POP JUMP JUMPDEST PUSH2 0x1408 DUP2 CALLER PUSH2 0x15EF JUMP JUMPDEST POP JUMP JUMPDEST PUSH1 0x0 PUSH1 0x0 DUP1 MLOAD PUSH1 0x20 PUSH2 0x1D3D DUP4 CODECOPY DUP2 MLOAD SWAP2 MSTORE PUSH2 0x1426 DUP5 DUP5 PUSH2 0xD18 JUMP JUMPDEST PUSH2 0x14A6 JUMPI PUSH1 0x0 DUP5 DUP2 MSTORE PUSH1 0x20 DUP3 DUP2 MSTORE PUSH1 0x40 DUP1 DUP4 KECCAK256 PUSH1 0x1 PUSH1 0x1 PUSH1 0xA0 SHL SUB DUP8 AND DUP5 MSTORE SWAP1 SWAP2 MSTORE SWAP1 KECCAK256 DUP1 SLOAD PUSH1 0xFF NOT AND PUSH1 0x1 OR SWAP1 SSTORE PUSH2 0x145C CALLER SWAP1 JUMP JUMPDEST PUSH1 0x1 PUSH1 0x1 PUSH1 0xA0 SHL SUB AND DUP4 PUSH1 0x1 PUSH1 0x1 PUSH1 0xA0 SHL SUB AND DUP6 PUSH32 0x2F8788117E7EFF1D82E926EC794901D17C78024A50270940304540A733656F0D PUSH1 0x40 MLOAD PUSH1 0x40 MLOAD DUP1 SWAP2 SUB SWAP1 LOG4 PUSH1 0x1 SWAP2 POP POP PUSH2 0x531 JUMP JUMPDEST PUSH1 0x0 SWAP2 POP POP PUSH2 0x531 JUMP JUMPDEST PUSH1 0x0 PUSH1 0x0 DUP1 MLOAD PUSH1 0x20 PUSH2 0x1D3D DUP4 CODECOPY DUP2 MLOAD SWAP2 MSTORE PUSH2 0x14CB DUP5 DUP5 PUSH2 0xD18 JUMP JUMPDEST ISZERO PUSH2 0x14A6 JUMPI PUSH1 0x0 DUP5 DUP2 MSTORE PUSH1 0x20 DUP3 DUP2 MSTORE PUSH1 0x40 DUP1 DUP4 KECCAK256 PUSH1 0x1 PUSH1 0x1 PUSH1 0xA0 SHL SUB DUP8 AND DUP1 DUP6 MSTORE SWAP3 MSTORE DUP1 DUP4 KECCAK256 DUP1 SLOAD PUSH1 0xFF NOT AND SWAP1 SSTORE MLOAD CALLER SWAP3 DUP8 SWAP2 PUSH32 0xF6391F5C32D9C69D2A47EA670B442974B53935D1EDC7FD64EB21E047A839171B SWAP2 SWAP1 LOG4 PUSH1 0x1 SWAP2 POP POP PUSH2 0x531 JUMP JUMPDEST DUP1 SELFBALANCE LT ISZERO PUSH2 0x1556 JUMPI PUSH1 0x40 MLOAD PUSH4 0xCF479181 PUSH1 0xE0 SHL DUP2 MSTORE SELFBALANCE PUSH1 0x4 DUP3 ADD MSTORE PUSH1 0x24 DUP2 ADD DUP3 SWAP1 MSTORE PUSH1 0x44 ADD PUSH2 0x86E JUMP JUMPDEST PUSH1 0x0 DUP1 DUP4 PUSH1 0x1 PUSH1 0x1 PUSH1 0xA0 SHL SUB AND DUP4 PUSH1 0x40 MLOAD PUSH1 0x0 PUSH1 0x40 MLOAD DUP1 DUP4 SUB DUP2 DUP6 DUP8 GAS CALL SWAP3 POP POP POP RETURNDATASIZE DUP1 PUSH1 0x0 DUP2 EQ PUSH2 0x15A4 JUMPI PUSH1 0x40 MLOAD SWAP2 POP PUSH1 0x1F NOT PUSH1 0x3F RETURNDATASIZE ADD AND DUP3 ADD PUSH1 0x40 MSTORE RETURNDATASIZE DUP3 MSTORE RETURNDATASIZE PUSH1 0x0 PUSH1 0x20 DUP5 ADD RETURNDATACOPY PUSH2 0x15A9 JUMP JUMPDEST PUSH1 0x60 SWAP2 POP JUMPDEST POP SWAP2 POP SWAP2 POP DUP2 PUSH2 0x575 JUMPI PUSH2 0x575 DUP2 PUSH2 0x162C JUMP JUMPDEST PUSH1 0x0 DUP1 PUSH32 0xF0C57E16840DF040F15088DC2F81FE391C3923BEC73E23A9662EFC9C229C6A00 PUSH2 0x531 JUMP JUMPDEST PUSH2 0x15ED PUSH2 0x1654 JUMP JUMPDEST JUMP JUMPDEST PUSH2 0x15F9 DUP3 DUP3 PUSH2 0xD18 JUMP JUMPDEST PUSH2 0x1628 JUMPI PUSH1 0x40 MLOAD PUSH4 0xE2517D3F PUSH1 0xE0 SHL DUP2 MSTORE PUSH1 0x1 PUSH1 0x1 PUSH1 0xA0 SHL SUB DUP3 AND PUSH1 0x4 DUP3 ADD MSTORE PUSH1 0x24 DUP2 ADD DUP4 SWAP1 MSTORE PUSH1 0x44 ADD PUSH2 0x86E JUMP JUMPDEST POP POP JUMP JUMPDEST DUP1 MLOAD ISZERO PUSH2 0x163B JUMPI DUP1 MLOAD PUSH1 0x20 DUP3 ADD REVERT JUMPDEST PUSH1 0x40 MLOAD PUSH4 0xD6BDA275 PUSH1 0xE0 SHL DUP2 MSTORE PUSH1 0x4 ADD PUSH1 0x40 MLOAD DUP1 SWAP2 SUB SWAP1 REVERT JUMPDEST PUSH2 0x165C PUSH2 0x1679 JUMP JUMPDEST PUSH2 0x15ED JUMPI PUSH1 0x40 MLOAD PUSH4 0x1AFCD79F PUSH1 0xE3 SHL DUP2 MSTORE PUSH1 0x4 ADD PUSH1 0x40 MLOAD DUP1 SWAP2 SUB SWAP1 REVERT JUMPDEST PUSH1 0x0 PUSH2 0x1683 PUSH2 0x15BC JUMP JUMPDEST SLOAD PUSH1 0x1 PUSH1 0x40 SHL SWAP1 DIV PUSH1 0xFF AND SWAP2 SWAP1 POP JUMP JUMPDEST PUSH1 0x0 PUSH1 0x20 DUP3 DUP5 SUB SLT ISZERO PUSH2 0x16A5 JUMPI PUSH1 0x0 DUP1 REVERT JUMPDEST DUP2 CALLDATALOAD PUSH1 0x1 PUSH1 0x1 PUSH1 0xE0 SHL SUB NOT DUP2 AND DUP2 EQ PUSH2 0x16BD JUMPI PUSH1 0x0 DUP1 REVERT JUMPDEST SWAP4 SWAP3 POP POP POP JUMP JUMPDEST PUSH1 0x1 PUSH1 0x1 PUSH1 0xA0 SHL SUB DUP2 AND DUP2 EQ PUSH2 0x1408 JUMPI PUSH1 0x0 DUP1 REVERT JUMPDEST PUSH1 0x0 PUSH1 0x20 DUP3 DUP5 SUB SLT ISZERO PUSH2 0x16EB JUMPI PUSH1 0x0 DUP1 REVERT JUMPDEST DUP2 CALLDATALOAD PUSH2 0x16BD DUP2 PUSH2 0x16C4 JUMP JUMPDEST PUSH1 0x0 PUSH1 0x20 DUP3 DUP5 SUB SLT ISZERO PUSH2 0x1708 JUMPI PUSH1 0x0 DUP1 REVERT JUMPDEST POP CALLDATALOAD SWAP2 SWAP1 POP JUMP JUMPDEST PUSH1 0x0 DUP1 PUSH1 0x40 DUP4 DUP6 SUB SLT ISZERO PUSH2 0x1722 JUMPI PUSH1 0x0 DUP1 REVERT JUMPDEST DUP3 CALLDATALOAD SWAP2 POP PUSH1 0x20 DUP4 ADD CALLDATALOAD PUSH2 0x1734 DUP2 PUSH2 0x16C4 JUMP JUMPDEST DUP1 SWAP2 POP POP SWAP3 POP SWAP3 SWAP1 POP JUMP JUMPDEST PUSH4 0x4E487B71 PUSH1 0xE0 SHL PUSH1 0x0 MSTORE PUSH1 0x21 PUSH1 0x4 MSTORE PUSH1 0x24 PUSH1 0x0 REVERT JUMPDEST PUSH1 0x6 DUP2 LT PUSH2 0x1773 JUMPI PUSH4 0x4E487B71 PUSH1 0xE0 SHL PUSH1 0x0 MSTORE PUSH1 0x21 PUSH1 0x4 MSTORE PUSH1 0x24 PUSH1 0x0 REVERT JUMPDEST SWAP1 MSTORE JUMP JUMPDEST PUSH1 0x0 JUMPDEST DUP4 DUP2 LT ISZERO PUSH2 0x1792 JUMPI DUP2 DUP2 ADD MLOAD DUP4 DUP3 ADD MSTORE PUSH1 0x20 ADD PUSH2 0x177A JUMP JUMPDEST POP POP PUSH1 0x0 SWAP2 ADD MSTORE JUMP JUMPDEST PUSH1 0x0 DUP2 MLOAD DUP1 DUP5 MSTORE PUSH2 0x17B3 DUP2 PUSH1 0x20 DUP7 ADD PUSH1 0x20 DUP7 ADD PUSH2 0x1777 JUMP JUMPDEST PUSH1 0x1F ADD PUSH1 0x1F NOT AND SWAP3 SWAP1 SWAP3 ADD PUSH1 0x20 ADD SWAP3 SWAP2 POP POP JUMP JUMPDEST DUP6 ISZERO ISZERO DUP2 MSTORE PUSH2 0x17D9 PUSH1 0x20 DUP3 ADD DUP7 PUSH2 0x1755 JUMP JUMPDEST PUSH1 0xA0 PUSH1 0x40 DUP3 ADD MSTORE PUSH1 0x0 PUSH2 0x17EF PUSH1 0xA0 DUP4 ADD DUP7 PUSH2 0x179B JUMP JUMPDEST DUP3 DUP2 SUB PUSH1 0x60 DUP5 ADD MSTORE PUSH2 0x1801 DUP2 DUP7 PUSH2 0x179B JUMP JUMPDEST SWAP1 POP DUP3 DUP2 SUB PUSH1 0x80 DUP5 ADD MSTORE PUSH2 0x1815 DUP2 DUP6 PUSH2 0x179B JUMP JUMPDEST SWAP9 SWAP8 POP POP POP POP POP POP POP POP JUMP JUMPDEST PUSH1 0x0 DUP1 DUP4 PUSH1 0x1F DUP5 ADD SLT PUSH2 0x1833 JUMPI PUSH1 0x0 DUP1 REVERT JUMPDEST POP DUP2 CALLDATALOAD PUSH8 0xFFFFFFFFFFFFFFFF DUP2 GT ISZERO PUSH2 0x184B JUMPI PUSH1 0x0 DUP1 REVERT JUMPDEST PUSH1 0x20 DUP4 ADD SWAP2 POP DUP4 PUSH1 0x20 DUP3 DUP6 ADD ADD GT ISZERO PUSH2 0x1863 JUMPI PUSH1 0x0 DUP1 REVERT JUMPDEST SWAP3 POP SWAP3 SWAP1 POP JUMP JUMPDEST PUSH1 0x0 DUP1 PUSH1 0x0 DUP1 PUSH1 0x60 DUP6 DUP8 SUB SLT ISZERO PUSH2 0x1880 JUMPI PUSH1 0x0 DUP1 REVERT JUMPDEST DUP5 CALLDATALOAD PUSH2 0x188B DUP2 PUSH2 0x16C4 JUMP JUMPDEST SWAP4 POP PUSH1 0x20 DUP6 ADD CALLDATALOAD SWAP3 POP PUSH1 0x40 DUP6 ADD CALLDATALOAD PUSH8 0xFFFFFFFFFFFFFFFF DUP2 GT ISZERO PUSH2 0x18AE JUMPI PUSH1 0x0 DUP1 REVERT JUMPDEST PUSH2 0x18BA DUP8 DUP3 DUP9 ADD PUSH2 0x1821 JUMP JUMPDEST SWAP6 SWAP9 SWAP5 SWAP8 POP SWAP6 POP POP POP POP JUMP JUMPDEST PUSH1 0x0 DUP1 PUSH1 0x0 DUP1 PUSH1 0x0 DUP1 PUSH1 0x0 DUP1 PUSH1 0xA0 DUP10 DUP12 SUB SLT ISZERO PUSH2 0x18E2 JUMPI PUSH1 0x0 DUP1 REVERT JUMPDEST DUP9 CALLDATALOAD PUSH2 0x18ED DUP2 PUSH2 0x16C4 JUMP JUMPDEST SWAP8 POP PUSH1 0x20 DUP10 ADD CALLDATALOAD PUSH1 0x6 DUP2 LT PUSH2 0x1901 JUMPI PUSH1 0x0 DUP1 REVERT JUMPDEST SWAP7 POP PUSH1 0x40 DUP10 ADD CALLDATALOAD PUSH8 0xFFFFFFFFFFFFFFFF DUP2 GT ISZERO PUSH2 0x191D JUMPI PUSH1 0x0 DUP1 REVERT JUMPDEST PUSH2 0x1929 DUP12 DUP3 DUP13 ADD PUSH2 0x1821 JUMP JUMPDEST SWAP1 SWAP8 POP SWAP6 POP POP PUSH1 0x60 DUP10 ADD CALLDATALOAD PUSH8 0xFFFFFFFFFFFFFFFF DUP2 GT ISZERO PUSH2 0x1949 JUMPI PUSH1 0x0 DUP1 REVERT JUMPDEST PUSH2 0x1955 DUP12 DUP3 DUP13 ADD PUSH2 0x1821 JUMP JUMPDEST SWAP1 SWAP6 POP SWAP4 POP POP PUSH1 0x80 DUP10 ADD CALLDATALOAD PUSH8 0xFFFFFFFFFFFFFFFF DUP2 GT ISZERO PUSH2 0x1975 JUMPI PUSH1 0x0 DUP1 REVERT JUMPDEST PUSH2 0x1981 DUP12 DUP3 DUP13 ADD PUSH2 0x1821 JUMP JUMPDEST SWAP10 SWAP13 SWAP9 SWAP12 POP SWAP7 SWAP10 POP SWAP5 SWAP8 SWAP4 SWAP7 SWAP3 SWAP6 SWAP5 POP POP POP JUMP JUMPDEST PUSH4 0x4E487B71 PUSH1 0xE0 SHL PUSH1 0x0 MSTORE PUSH1 0x41 PUSH1 0x4 MSTORE PUSH1 0x24 PUSH1 0x0 REVERT JUMPDEST PUSH1 0x0 PUSH1 0x20 DUP3 DUP5 SUB SLT ISZERO PUSH2 0x19BD JUMPI PUSH1 0x0 DUP1 REVERT JUMPDEST DUP2 CALLDATALOAD PUSH8 0xFFFFFFFFFFFFFFFF DUP2 GT ISZERO PUSH2 0x19D4 JUMPI PUSH1 0x0 DUP1 REVERT JUMPDEST DUP3 ADD PUSH1 0x1F DUP2 ADD DUP5 SGT PUSH2 0x19E5 JUMPI PUSH1 0x0 DUP1 REVERT JUMPDEST DUP1 CALLDATALOAD PUSH8 0xFFFFFFFFFFFFFFFF DUP2 GT ISZERO PUSH2 0x19FF JUMPI PUSH2 0x19FF PUSH2 0x1995 JUMP JUMPDEST PUSH1 0x40 MLOAD PUSH1 0x1F DUP3 ADD PUSH1 0x1F NOT SWAP1 DUP2 AND PUSH1 0x3F ADD AND DUP2 ADD PUSH8 0xFFFFFFFFFFFFFFFF DUP2 GT DUP3 DUP3 LT OR ISZERO PUSH2 0x1A2E JUMPI PUSH2 0x1A2E PUSH2 0x1995 JUMP JUMPDEST PUSH1 0x40 MSTORE DUP2 DUP2 MSTORE DUP3 DUP3 ADD PUSH1 0x20 ADD DUP7 LT ISZERO PUSH2 0x1A46 JUMPI PUSH1 0x0 DUP1 REVERT JUMPDEST DUP2 PUSH1 0x20 DUP5 ADD PUSH1 0x20 DUP4 ADD CALLDATACOPY PUSH1 0x0 SWAP2 DUP2 ADD PUSH1 0x20 ADD SWAP2 SWAP1 SWAP2 MSTORE SWAP5 SWAP4 POP POP POP POP JUMP JUMPDEST PUSH1 0x20 DUP2 MSTORE PUSH1 0x0 PUSH2 0x16BD PUSH1 0x20 DUP4 ADD DUP5 PUSH2 0x179B JUMP JUMPDEST PUSH1 0x0 DUP1 PUSH1 0x0 DUP1 PUSH1 0x0 PUSH1 0xA0 DUP7 DUP9 SUB SLT ISZERO PUSH2 0x1A8F JUMPI PUSH1 0x0 DUP1 REVERT JUMPDEST DUP6 CALLDATALOAD PUSH2 0x1A9A DUP2 PUSH2 0x16C4 JUMP JUMPDEST SWAP5 POP PUSH1 0x20 DUP7 ADD CALLDATALOAD PUSH2 0x1AAA DUP2 PUSH2 0x16C4 JUMP JUMPDEST SWAP4 POP PUSH1 0x40 DUP7 ADD CALLDATALOAD PUSH2 0x1ABA DUP2 PUSH2 0x16C4 JUMP JUMPDEST SWAP5 SWAP8 SWAP4 SWAP7 POP SWAP4 SWAP5 PUSH1 0x60 DUP2 ADD CALLDATALOAD SWAP5 POP PUSH1 0x80 ADD CALLDATALOAD SWAP3 SWAP2 POP POP JUMP JUMPDEST PUSH1 0x1 DUP2 DUP2 SHR SWAP1 DUP3 AND DUP1 PUSH2 0x1AE6 JUMPI PUSH1 0x7F DUP3 AND SWAP2 POP JUMPDEST PUSH1 0x20 DUP3 LT DUP2 SUB PUSH2 0x1B06 JUMPI PUSH4 0x4E487B71 PUSH1 0xE0 SHL PUSH1 0x0 MSTORE PUSH1 0x22 PUSH1 0x4 MSTORE PUSH1 0x24 PUSH1 0x0 REVERT JUMPDEST POP SWAP2 SWAP1 POP JUMP JUMPDEST PUSH4 0x4E487B71 PUSH1 0xE0 SHL PUSH1 0x0 MSTORE PUSH1 0x11 PUSH1 0x4 MSTORE PUSH1 0x24 PUSH1 0x0 REVERT JUMPDEST DUP1 DUP3 ADD DUP1 DUP3 GT ISZERO PUSH2 0x531 JUMPI PUSH2 0x531 PUSH2 0x1B0C JUMP JUMPDEST DUP2 DUP4 MSTORE DUP2 DUP2 PUSH1 0x20 DUP6 ADD CALLDATACOPY POP PUSH1 0x0 DUP3 DUP3 ADD PUSH1 0x20 SWAP1 DUP2 ADD SWAP2 SWAP1 SWAP2 MSTORE PUSH1 0x1F SWAP1 SWAP2 ADD PUSH1 0x1F NOT AND SWAP1 SWAP2 ADD ADD SWAP1 JUMP JUMPDEST PUSH1 0x40 DUP2 MSTORE PUSH1 0x0 PUSH2 0x1B72 PUSH1 0x40 DUP4 ADD DUP6 DUP8 PUSH2 0x1B35 JUMP JUMPDEST SWAP1 POP DUP3 PUSH1 0x20 DUP4 ADD MSTORE SWAP5 SWAP4 POP POP POP POP JUMP JUMPDEST PUSH1 0x1F DUP3 GT ISZERO PUSH2 0x5AE JUMPI DUP1 PUSH1 0x0 MSTORE PUSH1 0x20 PUSH1 0x0 KECCAK256 PUSH1 0x1F DUP5 ADD PUSH1 0x5 SHR DUP2 ADD PUSH1 0x20 DUP6 LT ISZERO PUSH2 0x1BA9 JUMPI POP DUP1 JUMPDEST PUSH1 0x1F DUP5 ADD PUSH1 0x5 SHR DUP3 ADD SWAP2 POP JUMPDEST DUP2 DUP2 LT ISZERO PUSH2 0x1BC9 JUMPI PUSH1 0x0 DUP2 SSTORE PUSH1 0x1 ADD PUSH2 0x1BB5 JUMP JUMPDEST POP POP POP POP POP JUMP JUMPDEST DUP2 MLOAD PUSH8 0xFFFFFFFFFFFFFFFF DUP2 GT ISZERO PUSH2 0x1BEA JUMPI PUSH2 0x1BEA PUSH2 0x1995 JUMP JUMPDEST PUSH2 0x1BFE DUP2 PUSH2 0x1BF8 DUP5 SLOAD PUSH2 0x1AD2 JUMP JUMPDEST DUP5 PUSH2 0x1B82 JUMP JUMPDEST PUSH1 0x20 PUSH1 0x1F DUP3 GT PUSH1 0x1 DUP2 EQ PUSH2 0x1C32 JUMPI PUSH1 0x0 DUP4 ISZERO PUSH2 0x1C1A JUMPI POP DUP5 DUP3 ADD MLOAD JUMPDEST PUSH1 0x0 NOT PUSH1 0x3 DUP6 SWAP1 SHL SHR NOT AND PUSH1 0x1 DUP5 SWAP1 SHL OR DUP5 SSTORE PUSH2 0x1BC9 JUMP JUMPDEST PUSH1 0x0 DUP5 DUP2 MSTORE PUSH1 0x20 DUP2 KECCAK256 PUSH1 0x1F NOT DUP6 AND SWAP2 JUMPDEST DUP3 DUP2 LT ISZERO PUSH2 0x1C62 JUMPI DUP8 DUP6 ADD MLOAD DUP3 SSTORE PUSH1 0x20 SWAP5 DUP6 ADD SWAP5 PUSH1 0x1 SWAP1 SWAP3 ADD SWAP2 ADD PUSH2 0x1C42 JUMP JUMPDEST POP DUP5 DUP3 LT ISZERO PUSH2 0x1C80 JUMPI DUP7 DUP5 ADD MLOAD PUSH1 0x0 NOT PUSH1 0x3 DUP8 SWAP1 SHL PUSH1 0xF8 AND SHR NOT AND DUP2 SSTORE JUMPDEST POP POP POP POP PUSH1 0x1 SWAP1 DUP2 SHL ADD SWAP1 SSTORE POP JUMP JUMPDEST PUSH1 0x1 DUP1 PUSH1 0xA0 SHL SUB DUP5 AND DUP2 MSTORE DUP3 PUSH1 0x20 DUP3 ADD MSTORE PUSH1 0x60 PUSH1 0x40 DUP3 ADD MSTORE PUSH1 0x0 PUSH2 0x1CB6 PUSH1 0x60 DUP4 ADD DUP5 PUSH2 0x179B JUMP JUMPDEST SWAP6 SWAP5 POP POP POP POP POP JUMP JUMPDEST PUSH2 0x1CC9 DUP2 DUP6 PUSH2 0x1755 JUMP JUMPDEST PUSH1 0x40 PUSH1 0x20 DUP3 ADD MSTORE PUSH1 0x0 PUSH2 0x1CB6 PUSH1 0x40 DUP4 ADD DUP5 DUP7 PUSH2 0x1B35 JUMP JUMPDEST PUSH32 0x68747470733A2F2F6578616D706C652E636F6D2F6D657461646174612F000000 DUP2 MSTORE PUSH1 0x0 DUP3 MLOAD PUSH2 0x1D18 DUP2 PUSH1 0x1D DUP6 ADD PUSH1 0x20 DUP8 ADD PUSH2 0x1777 JUMP JUMPDEST SWAP2 SWAP1 SWAP2 ADD PUSH1 0x1D ADD SWAP3 SWAP2 POP POP JUMP JUMPDEST DUP1 DUP3 MUL DUP2 ISZERO DUP3 DUP3 DIV DUP5 EQ OR PUSH2 0x531 JUMPI PUSH2 0x531 PUSH2 0x1B0C JUMP INVALID MUL 0xDD PUSH28 0xC7DEC4DCEEDDA775E58DD541E08A116C6C53815C0BD028192F7B6268 STOP LOG2 PUSH5 0x6970667358 0x22 SLT KECCAK256 AND DUP3 0xBE 0xE2 NOT CALLCODE LOG4 DUP11 CODECOPY CALLCODE SUB DIV CALL CALLDATASIZE 0xB7 SWAP16 0x27 CALL 0x25 CALL 0xE4 CREATE KECCAK256 JUMP SWAP6 0xED ADDMOD GASPRICE 0x21 0x21 PUSH4 0xE964736F PUSH13 0x634300081C0033000000000000 "},"methodIdentifiers":{"DEFAULT_ADMIN_ROLE()":"a217fddf","QUEST_ADMIN_ROLE()":"09642841","REGISTRAR_ROLE()":"f68e9553","actorReward()":"d78360bc","actors(address)":"eaa66a3c","awardQuest(address,uint256,string)":"62158c75","credentialNFT()":"934fcd1b","donate()":"ed88c68e","donationRewardRate()":"678f9350","donorBalances(address)":"7b8c8de1","getActor(address)":"4138d167","getRoleAdmin(bytes32)":"248a9ca3","grantRole(bytes32,address)":"2f2ff15d","hasRole(bytes32,address)":"91d14854","initialize(address,address,address,uint256,uint256)":"a6b63eb8","isVerifiedActor(address)":"f5c515be","questRewards(address)":"14e02500","renounceRole(bytes32,address)":"36568abe","revokeRole(bytes32,address)":"d547741f","supportsInterface(bytes4)":"01ffc9a7","token()":"fc0c546a","tokenURIForActor(string)":"84d49d82","totalDonations()":"de2ed893","verifyActor(address,uint8,string,string,string)":"624c6722","withdrawDonations(address)":"a56f5b53"}},"storageLayout":{"storage":[{"astId":1250,"contract":"contracts/FlameBornEngine.sol:FlameBornEngine","label":"token","offset":0,"slot":"0","type":"t_contract(IFlameBornToken)1197"},{"astId":1254,"contract":"contracts/FlameBornEngine.sol:FlameBornEngine","label":"credentialNFT","offset":0,"slot":"1","type":"t_contract(IHealthIDNFT)1208"},{"astId":1257,"contract":"contracts/FlameBornEngine.sol:FlameBornEngine","label":"actorReward","offset":0,"slot":"2","type":"t_uint256"},{"astId":1260,"contract":"contracts/FlameBornEngine.sol:FlameBornEngine","label":"donationRewardRate","offset":0,"slot":"3","type":"t_uint256"},{"astId":1265,"contract":"contracts/FlameBornEngine.sol:FlameBornEngine","label":"donorBalances","offset":0,"slot":"4","type":"t_mapping(t_address,t_uint256)"},{"astId":1268,"contract":"contracts/FlameBornEngine.sol:FlameBornEngine","label":"totalDonations","offset":0,"slot":"5","type":"t_uint256"},{"astId":1274,"contract":"contracts/FlameBornEngine.sol:FlameBornEngine","label":"actors","offset":0,"slot":"6","type":"t_mapping(t_address,t_struct(Actor)1246_storage)"},{"astId":1279,"contract":"contracts/FlameBornEngine.sol:FlameBornEngine","label":"questRewards","offset":0,"slot":"7","type":"t_mapping(t_address,t_uint256)"}],"types":{"t_address":{"encoding":"inplace","label":"address","numberOfBytes":"20"},"t_bool":{"encoding":"inplace","label":"bool","numberOfBytes":"1"},"t_contract(IFlameBornToken)1197":{"encoding":"inplace","label":"contract IFlameBornToken","numberOfBytes":"20"},"t_contract(IHealthIDNFT)1208":{"encoding":"inplace","label":"contract IHealthIDNFT","numberOfBytes":"20"},"t_enum(ActorRole)1233":{"encoding":"inplace","label":"enum FlameBornEngine.ActorRole","numberOfBytes":"1"},"t_mapping(t_address,t_struct(Actor)1246_storage)":{"encoding":"mapping","key":"t_address","label":"mapping(address => struct FlameBornEngine.Actor)","numberOfBytes":"32","value":"t_struct(Actor)1246_storage"},"t_mapping(t_address,t_uint256)":{"encoding":"mapping","key":"t_address","label":"mapping(address => uint256)","numberOfBytes":"32","value":"t_uint256"},"t_string_storage":{"encoding":"bytes","label":"string","numberOfBytes":"32"},"t_struct(Actor)1246_storage":{"encoding":"inplace","label":"struct FlameBornEngine.Actor","members":[{"astId":1236,"contract":"contracts/FlameBornEngine.sol:FlameBornEngine","label":"verified","offset":0,"slot":"0","type":"t_bool"},{"astId":1239,"contract":"contracts/FlameBornEngine.sol:FlameBornEngine","label":"role","offset":1,"slot":"0","type":"t_enum(ActorRole)1233"},{"astId":1241,"contract":"contracts/FlameBornEngine.sol:FlameBornEngine","label":"name","offset":0,"slot":"1","type":"t_string_storage"},{"astId":1243,"contract":"contracts/FlameBornEngine.sol:FlameBornEngine","label":"licenseId","offset":0,"slot":"2","type":"t_string_storage"},{"astId":1245,"contract":"contracts/FlameBornEngine.sol:FlameBornEngine","label":"phone","offset":0,"slot":"3","type":"t_string_storage"}],"numberOfBytes":"128"},"t_uint256":{"encoding":"inplace","label":"uint256","numberOfBytes":"32"}}}}}}