{
  "_format": "hh-sol-artifact-1",
  "contractName": "FlameBornToken",
  "sourceName": "contracts/FlameBornToken.sol",
  "abi": [
    {
      "inputs": [],
      "stateMutability": "nonpayable",
      "type": "constructor"
    },
    {
      "inputs": [
        {
          "internalType": "address",
          "name": "target",
          "type": "address"
        }
      ],
      "name": "AddressEmptyCode",
      "type": "error"
    },
    {
      "inputs": [],
      "name": "ECDSAInvalidSignature",
      "type": "error"
    },
    {
      "inputs": [
        {
          "internalType": "uint256",
          "name": "length",
          "type": "uint256"
        }
      ],
      "name": "ECDSAInvalidSignatureLength",
      "type": "error"
    },
    {
      "inputs": [
        {
          "internalType": "bytes32",
          "name": "s",
          "type": "bytes32"
        }
      ],
      "name": "ECDSAInvalidSignatureS",
      "type": "error"
    },
    {
      "inputs": [
        {
          "internalType": "address",
          "name": "implementation",
          "type": "address"
        }
      ],
      "name": "ERC1967InvalidImplementation",
      "type": "error"
    },
    {
      "inputs": [],
      "name": "ERC1967NonPayable",
      "type": "error"
    },
    {
      "inputs": [
        {
          "internalType": "address",
          "name": "spender",
          "type": "address"
        },
        {
          "internalType": "uint256",
          "name": "allowance",
          "type": "uint256"
        },
        {
          "internalType": "uint256",
          "name": "needed",
          "type": "uint256"
        }
      ],
      "name": "ERC20InsufficientAllowance",
      "type": "error"
    },
    {
      "inputs": [
        {
          "internalType": "address",
          "name": "sender",
          "type": "address"
        },
        {
          "internalType": "uint256",
          "name": "balance",
          "type": "uint256"
        },
        {
          "internalType": "uint256",
          "name": "needed",
          "type": "uint256"
        }
      ],
      "name": "ERC20InsufficientBalance",
      "type": "error"
    },
    {
      "inputs": [
        {
          "internalType": "address",
          "name": "approver",
          "type": "address"
        }
      ],
      "name": "ERC20InvalidApprover",
      "type": "error"
    },
    {
      "inputs": [
        {
          "internalType": "address",
          "name": "receiver",
          "type": "address"
        }
      ],
      "name": "ERC20InvalidReceiver",
      "type": "error"
    },
    {
      "inputs": [
        {
          "internalType": "address",
          "name": "sender",
          "type": "address"
        }
      ],
      "name": "ERC20InvalidSender",
      "type": "error"
    },
    {
      "inputs": [
        {
          "internalType": "address",
          "name": "spender",
          "type": "address"
        }
      ],
      "name": "ERC20InvalidSpender",
      "type": "error"
    },
    {
      "inputs": [
        {
          "internalType": "uint256",
          "name": "deadline",
          "type": "uint256"
        }
      ],
      "name": "ERC2612ExpiredSignature",
      "type": "error"
    },
    {
      "inputs": [
        {
          "internalType": "address",
          "name": "signer",
          "type": "address"
        },
        {
          "internalType": "address",
          "name": "owner",
          "type": "address"
        }
      ],
      "name": "ERC2612InvalidSigner",
      "type": "error"
    },
    {
      "inputs": [],
      "name": "EnforcedPause",
      "type": "error"
    },
    {
      "inputs": [],
      "name": "ExpectedPause",
      "type": "error"
    },
    {
      "inputs": [],
      "name": "FailedCall",
      "type": "error"
    },
    {
      "inputs": [
        {
          "internalType": "address",
          "name": "account",
          "type": "address"
        },
        {
          "internalType": "uint256",
          "name": "currentNonce",
          "type": "uint256"
        }
      ],
      "name": "InvalidAccountNonce",
      "type": "error"
    },
    {
      "inputs": [],
      "name": "InvalidInitialization",
      "type": "error"
    },
    {
      "inputs": [],
      "name": "NotInitializing",
      "type": "error"
    },
    {
      "inputs": [
        {
          "internalType": "address",
          "name": "owner",
          "type": "address"
        }
      ],
      "name": "OwnableInvalidOwner",
      "type": "error"
    },
    {
      "inputs": [
        {
          "internalType": "address",
          "name": "account",
          "type": "address"
        }
      ],
      "name": "OwnableUnauthorizedAccount",
      "type": "error"
    },
    {
      "inputs": [],
      "name": "UUPSUnauthorizedCallContext",
      "type": "error"
    },
    {
      "inputs": [
        {
          "internalType": "bytes32",
          "name": "slot",
          "type": "bytes32"
        }
      ],
      "name": "UUPSUnsupportedProxiableUUID",
      "type": "error"
    },
    {
      "anonymous": false,
      "inputs": [
        {
          "indexed": true,
          "internalType": "address",
          "name": "owner",
          "type": "address"
        },
        {
          "indexed": true,
          "internalType": "address",
          "name": "spender",
          "type": "address"
        },
        {
          "indexed": false,
          "internalType": "uint256",
          "name": "value",
          "type": "uint256"
        }
      ],
      "name": "Approval",
      "type": "event"
    },
    {
      "anonymous": false,
      "inputs": [],
      "name": "EIP712DomainChanged",
      "type": "event"
    },
    {
      "anonymous": false,
      "inputs": [
        {
          "indexed": false,
          "internalType": "uint64",
          "name": "version",
          "type": "uint64"
        }
      ],
      "name": "Initialized",
      "type": "event"
    },
    {
      "anonymous": false,
      "inputs": [
        {
          "indexed": true,
          "internalType": "address",
          "name": "previousOwner",
          "type": "address"
        },
        {
          "indexed": true,
          "internalType": "address",
          "name": "newOwner",
          "type": "address"
        }
      ],
      "name": "OwnershipTransferred",
      "type": "event"
    },
    {
      "anonymous": false,
      "inputs": [
        {
          "indexed": false,
          "internalType": "address",
          "name": "account",
          "type": "address"
        }
      ],
      "name": "Paused",
      "type": "event"
    },
    {
      "anonymous": false,
      "inputs": [
        {
          "indexed": true,
          "internalType": "address",
          "name": "from",
          "type": "address"
        },
        {
          "indexed": true,
          "internalType": "address",
          "name": "to",
          "type": "address"
        },
        {
          "indexed": false,
          "internalType": "uint256",
          "name": "value",
          "type": "uint256"
        }
      ],
      "name": "Transfer",
      "type": "event"
    },
    {
      "anonymous": false,
      "inputs": [
        {
          "indexed": false,
          "internalType": "address",
          "name": "account",
          "type": "address"
        }
      ],
      "name": "Unpaused",
      "type": "event"
    },
    {
      "anonymous": false,
      "inputs": [
        {
          "indexed": true,
          "internalType": "address",
          "name": "implementation",
          "type": "address"
        }
      ],
      "name": "Upgraded",
      "type": "event"
    },
    {
      "inputs": [],
      "name": "DOMAIN_SEPARATOR",
      "outputs": [
        {
          "internalType": "bytes32",
          "name": "",
          "type": "bytes32"
        }
      ],
      "stateMutability": "view",
      "type": "function"
    },
    {
      "inputs": [],
      "name": "UPGRADE_INTERFACE_VERSION",
      "outputs": [
        {
          "internalType": "string",
          "name": "",
          "type": "string"
        }
      ],
      "stateMutability": "view",
      "type": "function"
    },
    {
      "inputs": [
        {
          "internalType": "address",
          "name": "owner",
          "type": "address"
        },
        {
          "internalType": "address",
          "name": "spender",
          "type": "address"
        }
      ],
      "name": "allowance",
      "outputs": [
        {
          "internalType": "uint256",
          "name": "",
          "type": "uint256"
        }
      ],
      "stateMutability": "view",
      "type": "function"
    },
    {
      "inputs": [
        {
          "internalType": "address",
          "name": "spender",
          "type": "address"
        },
        {
          "internalType": "uint256",
          "name": "value",
          "type": "uint256"
        }
      ],
      "name": "approve",
      "outputs": [
        {
          "internalType": "bool",
          "name": "",
          "type": "bool"
        }
      ],
      "stateMutability": "nonpayable",
      "type": "function"
    },
    {
      "inputs": [
        {
          "internalType": "address",
          "name": "account",
          "type": "address"
        }
      ],
      "name": "balanceOf",
      "outputs": [
        {
          "internalType": "uint256",
          "name": "",
          "type": "uint256"
        }
      ],
      "stateMutability": "view",
      "type": "function"
    },
    {
      "inputs": [
        {
          "internalType": "uint256",
          "name": "value",
          "type": "uint256"
        }
      ],
      "name": "burn",
      "outputs": [],
      "stateMutability": "nonpayable",
      "type": "function"
    },
    {
      "inputs": [
        {
          "internalType": "address",
          "name": "account",
          "type": "address"
        },
        {
          "internalType": "uint256",
          "name": "value",
          "type": "uint256"
        }
      ],
      "name": "burnFrom",
      "outputs": [],
      "stateMutability": "nonpayable",
      "type": "function"
    },
    {
      "inputs": [],
      "name": "decimals",
      "outputs": [
        {
          "internalType": "uint8",
          "name": "",
          "type": "uint8"
        }
      ],
      "stateMutability": "view",
      "type": "function"
    },
    {
      "inputs": [],
      "name": "eip712Domain",
      "outputs": [
        {
          "internalType": "bytes1",
          "name": "fields",
          "type": "bytes1"
        },
        {
          "internalType": "string",
          "name": "name",
          "type": "string"
        },
        {
          "internalType": "string",
          "name": "version",
          "type": "string"
        },
        {
          "internalType": "uint256",
          "name": "chainId",
          "type": "uint256"
        },
        {
          "internalType": "address",
          "name": "verifyingContract",
          "type": "address"
        },
        {
          "internalType": "bytes32",
          "name": "salt",
          "type": "bytes32"
        },
        {
          "internalType": "uint256[]",
          "name": "extensions",
          "type": "uint256[]"
        }
      ],
      "stateMutability": "view",
      "type": "function"
    },
    {
      "inputs": [
        {
          "internalType": "address",
          "name": "initialOwner",
          "type": "address"
        }
      ],
      "name": "initialize",
      "outputs": [],
      "stateMutability": "nonpayable",
      "type": "function"
    },
    {
      "inputs": [
        {
          "internalType": "address",
          "name": "to",
          "type": "address"
        },
        {
          "internalType": "uint256",
          "name": "amount",
          "type": "uint256"
        }
      ],
      "name": "mint",
      "outputs": [],
      "stateMutability": "nonpayable",
      "type": "function"
    },
    {
      "inputs": [],
      "name": "name",
      "outputs": [
        {
          "internalType": "string",
          "name": "",
          "type": "string"
        }
      ],
      "stateMutability": "view",
      "type": "function"
    },
    {
      "inputs": [
        {
          "internalType": "address",
          "name": "owner",
          "type": "address"
        }
      ],
      "name": "nonces",
      "outputs": [
        {
          "internalType": "uint256",
          "name": "",
          "type": "uint256"
        }
      ],
      "stateMutability": "view",
      "type": "function"
    },
    {
      "inputs": [],
      "name": "owner",
      "outputs": [
        {
          "internalType": "address",
          "name": "",
          "type": "address"
        }
      ],
      "stateMutability": "view",
      "type": "function"
    },
    {
      "inputs": [],
      "name": "pause",
      "outputs": [],
      "stateMutability": "nonpayable",
      "type": "function"
    },
    {
      "inputs": [],
      "name": "paused",
      "outputs": [
        {
          "internalType": "bool",
          "name": "",
          "type": "bool"
        }
      ],
      "stateMutability": "view",
      "type": "function"
    },
    {
      "inputs": [
        {
          "internalType": "address",
          "name": "owner",
          "type": "address"
        },
        {
          "internalType": "address",
          "name": "spender",
          "type": "address"
        },
        {
          "internalType": "uint256",
          "name": "value",
          "type": "uint256"
        },
        {
          "internalType": "uint256",
          "name": "deadline",
          "type": "uint256"
        },
        {
          "internalType": "uint8",
          "name": "v",
          "type": "uint8"
        },
        {
          "internalType": "bytes32",
          "name": "r",
          "type": "bytes32"
        },
        {
          "internalType": "bytes32",
          "name": "s",
          "type": "bytes32"
        }
      ],
      "name": "permit",
      "outputs": [],
      "stateMutability": "nonpayable",
      "type": "function"
    },
    {
      "inputs": [],
      "name": "proxiableUUID",
      "outputs": [
        {
          "internalType": "bytes32",
          "name": "",
          "type": "bytes32"
        }
      ],
      "stateMutability": "view",
      "type": "function"
    },
    {
      "inputs": [],
      "name": "renounceOwnership",
      "outputs": [],
      "stateMutability": "nonpayable",
      "type": "function"
    },
    {
      "inputs": [],
      "name": "symbol",
      "outputs": [
        {
          "internalType": "string",
          "name": "",
          "type": "string"
        }
      ],
      "stateMutability": "view",
      "type": "function"
    },
    {
      "inputs": [],
      "name": "totalSupply",
      "outputs": [
        {
          "internalType": "uint256",
          "name": "",
          "type": "uint256"
        }
      ],
      "stateMutability": "view",
      "type": "function"
    },
    {
      "inputs": [
        {
          "internalType": "address",
          "name": "to",
          "type": "address"
        },
        {
          "internalType": "uint256",
          "name": "value",
          "type": "uint256"
        }
      ],
      "name": "transfer",
      "outputs": [
        {
          "internalType": "bool",
          "name": "",
          "type": "bool"
        }
      ],
      "stateMutability": "nonpayable",
      "type": "function"
    },
    {
      "inputs": [
        {
          "internalType": "address",
          "name": "from",
          "type": "address"
        },
        {
          "internalType": "address",
          "name": "to",
          "type": "address"
        },
        {
          "internalType": "uint256",
          "name": "value",
          "type": "uint256"
        }
      ],
      "name": "transferFrom",
      "outputs": [
        {
          "internalType": "bool",
          "name": "",
          "type": "bool"
        }
      ],
      "stateMutability": "nonpayable",
      "type": "function"
    },
    {
      "inputs": [
        {
          "internalType": "address",
          "name": "newOwner",
          "type": "address"
        }
      ],
      "name": "transferOwnership",
      "outputs": [],
      "stateMutability": "nonpayable",
      "type": "function"
    },
    {
      "inputs": [],
      "name": "unpause",
      "outputs": [],
      "stateMutability": "nonpayable",
      "type": "function"
    },
    {
      "inputs": [
        {
          "internalType": "address",
          "name": "newImplementation",
          "type": "address"
        },
        {
          "internalType": "bytes",
          "name": "data",
          "type": "bytes"
        }
      ],
      "name": "upgradeToAndCall",
      "outputs": [],
      "stateMutability": "payable",
      "type": "function"
    }
  ],
  "bytecode": "0x60a06040523073ffffffffffffffffffffffffffffffffffffffff1660809073ffffffffffffffffffffffffffffffffffffffff1681525034801561004357600080fd5b5061005261005760201b60201c565b6101de565b600061006761015b60201b60201c565b90508060000160089054906101000a900460ff16156100b2576040517ff92ee8a900000000000000000000000000000000000000000000000000000000815260040160405180910390fd5b67ffffffffffffffff80168160000160009054906101000a900467ffffffffffffffff1667ffffffffffffffff16146101585767ffffffffffffffff8160000160006101000a81548167ffffffffffffffff021916908367ffffffffffffffff1602179055507fc7f505b2f371ae2175ee4913f4499e1f2633a7b5936321eed1cdaeb6115181d267ffffffffffffffff60405161014f91906101c3565b60405180910390a15b50565b60008061016c61017560201b60201c565b90508091505090565b60007ff0c57e16840df040f15088dc2f81fe391c3923bec73e23a9662efc9c229c6a0060001b905090565b600067ffffffffffffffff82169050919050565b6101bd816101a0565b82525050565b60006020820190506101d860008301846101b4565b92915050565b60805161366061020760003960008181611360015281816113b5015261157001526136606000f3fe6080604052600436106101815760003560e01c8063715018a6116100d157806395d89b411161008a578063c4d66de811610064578063c4d66de814610547578063d505accf14610570578063dd62ed3e14610599578063f2fde38b146105d657610181565b806395d89b41146104b4578063a9059cbb146104df578063ad3cb1cc1461051c57610181565b8063715018a6146103c457806379cc6790146103db5780637ecebe00146104045780638456cb591461044157806384b0196e146104585780638da5cb5b1461048957610181565b80633f4ba83a1161013e5780634f1ef286116101185780634f1ef2861461031557806352d1902d146103315780635c975abb1461035c57806370a082311461038757610181565b80633f4ba83a146102ac57806340c10f19146102c357806342966c68146102ec57610181565b806306fdde0314610186578063095ea7b3146101b157806318160ddd146101ee57806323b872dd14610219578063313ce567146102565780633644e51514610281575b600080fd5b34801561019257600080fd5b5061019b6105ff565b6040516101a891906128f7565b60405180910390f35b3480156101bd57600080fd5b506101d860048036038101906101d391906129c1565b6106a0565b6040516101e59190612a1c565b60405180910390f35b3480156101fa57600080fd5b506102036106c3565b6040516102109190612a46565b60405180910390f35b34801561022557600080fd5b50610240600480360381019061023b9190612a61565b6106db565b60405161024d9190612a1c565b60405180910390f35b34801561026257600080fd5b5061026b61070a565b6040516102789190612ad0565b60405180910390f35b34801561028d57600080fd5b50610296610713565b6040516102a39190612b04565b60405180910390f35b3480156102b857600080fd5b506102c1610722565b005b3480156102cf57600080fd5b506102ea60048036038101906102e591906129c1565b610734565b005b3480156102f857600080fd5b50610313600480360381019061030e9190612b1f565b61074a565b005b61032f600480360381019061032a9190612c81565b61075e565b005b34801561033d57600080fd5b5061034661077d565b6040516103539190612b04565b60405180910390f35b34801561036857600080fd5b506103716107b0565b60405161037e9190612a1c565b60405180910390f35b34801561039357600080fd5b506103ae60048036038101906103a99190612cdd565b6107d5565b6040516103bb9190612a46565b60405180910390f35b3480156103d057600080fd5b506103d961082c565b005b3480156103e757600080fd5b5061040260048036038101906103fd91906129c1565b610840565b005b34801561041057600080fd5b5061042b60048036038101906104269190612cdd565b610860565b6040516104389190612a46565b60405180910390f35b34801561044d57600080fd5b50610456610872565b005b34801561046457600080fd5b5061046d610884565b6040516104809796959493929190612e12565b60405180910390f35b34801561049557600080fd5b5061049e610996565b6040516104ab9190612e96565b60405180910390f35b3480156104c057600080fd5b506104c96109ce565b6040516104d691906128f7565b60405180910390f35b3480156104eb57600080fd5b50610506600480360381019061050191906129c1565b610a6f565b6040516105139190612a1c565b60405180910390f35b34801561052857600080fd5b50610531610a92565b60405161053e91906128f7565b60405180910390f35b34801561055357600080fd5b5061056e60048036038101906105699190612cdd565b610acb565b005b34801561057c57600080fd5b5061059760048036038101906105929190612f09565b610d24565b005b3480156105a557600080fd5b506105c060048036038101906105bb9190612fab565b610e6c565b6040516105cd9190612a46565b60405180910390f35b3480156105e257600080fd5b506105fd60048036038101906105f89190612cdd565b610f01565b005b6060600061060b610f87565b905080600301805461061c9061301a565b80601f01602080910402602001604051908101604052809291908181526020018280546106489061301a565b80156106955780601f1061066a57610100808354040283529160200191610695565b820191906000526020600020905b81548152906001019060200180831161067857829003601f168201915b505050505091505090565b6000806106ab610faf565b90506106b8818585610fb7565b600191505092915050565b6000806106ce610f87565b9050806002015491505090565b6000806106e6610faf565b90506106f3858285610fc9565b6106fe85858561105e565b60019150509392505050565b60006012905090565b600061071d611152565b905090565b61072a611161565b6107326111e8565b565b61073c611161565b610746828261125a565b5050565b61075b610755610faf565b826112dc565b50565b61076661135e565b61076f82611444565b610779828261144f565b5050565b600061078761156e565b7f360894a13ba1a3210667c828492db98dca3e2076cc3735a920a3ca505d382bbc60001b905090565b6000806107bb6115f5565b90508060000160009054906101000a900460ff1691505090565b6000806107e0610f87565b90508060000160008473ffffffffffffffffffffffffffffffffffffffff1673ffffffffffffffffffffffffffffffffffffffff16815260200190815260200160002054915050919050565b610834611161565b61083e600061161d565b565b6108528261084c610faf565b83610fc9565b61085c82826112dc565b5050565b600061086b826116f4565b9050919050565b61087a611161565b61088261174b565b565b600060608060008060006060600061089a6117bd565b90506000801b81600001541480156108b857506000801b8160010154145b6108f7576040517f08c379a00000000000000000000000000000000000000000000000000000000081526004016108ee90613097565b60405180910390fd5b6108ff6117e5565b610907611886565b46306000801b600067ffffffffffffffff81111561092857610927612b56565b5b6040519080825280602002602001820160405280156109565781602001602082028036833780820191505090505b507f0f0000000000000000000000000000000000000000000000000000000000000095949392919097509750975097509750975097505090919293949596565b6000806109a1611927565b90508060000160009054906101000a900473ffffffffffffffffffffffffffffffffffffffff1691505090565b606060006109da610f87565b90508060040180546109eb9061301a565b80601f0160208091040260200160405190810160405280929190818152602001828054610a179061301a565b8015610a645780601f10610a3957610100808354040283529160200191610a64565b820191906000526020600020905b815481529060010190602001808311610a4757829003601f168201915b505050505091505090565b600080610a7a610faf565b9050610a8781858561105e565b600191505092915050565b6040518060400160405280600581526020017f352e302e3000000000000000000000000000000000000000000000000000000081525081565b6000610ad561194f565b905060008160000160089054906101000a900460ff1615905060008260000160009054906101000a900467ffffffffffffffff1690506000808267ffffffffffffffff16148015610b235750825b9050600060018367ffffffffffffffff16148015610b58575060003073ffffffffffffffffffffffffffffffffffffffff163b145b905081158015610b66575080155b15610b9d576040517ff92ee8a900000000000000000000000000000000000000000000000000000000815260040160405180910390fd5b60018560000160006101000a81548167ffffffffffffffff021916908367ffffffffffffffff1602179055508315610bed5760018560000160086101000a81548160ff0219169083151502179055505b610c616040518060400160405280600e81526020017f466c616d65426f726e546f6b656e0000000000000000000000000000000000008152506040518060400160405280600381526020017f464c420000000000000000000000000000000000000000000000000000000000815250611963565b610c69611979565b610c71611983565b610c7a8661198d565b610cb86040518060400160405280600e81526020017f466c616d65426f726e546f6b656e0000000000000000000000000000000000008152506119a1565b610cc06119eb565b8315610d1c5760008560000160086101000a81548160ff0219169083151502179055507fc7f505b2f371ae2175ee4913f4499e1f2633a7b5936321eed1cdaeb6115181d26001604051610d139190613110565b60405180910390a15b505050505050565b83421115610d6957836040517f62791302000000000000000000000000000000000000000000000000000000008152600401610d609190612a46565b60405180910390fd5b60007f6e71edae12b1b97f4d1f60370fef10105fa2faae0126114a169c64845d6126c9888888610d988c6119f5565b89604051602001610dae9695949392919061312b565b6040516020818303038152906040528051906020012090506000610dd182611a5a565b90506000610de182878787611a74565b90508973ffffffffffffffffffffffffffffffffffffffff168173ffffffffffffffffffffffffffffffffffffffff1614610e5557808a6040517f4b800e46000000000000000000000000000000000000000000000000000000008152600401610e4c92919061318c565b60405180910390fd5b610e608a8a8a610fb7565b50505050505050505050565b600080610e77610f87565b90508060010160008573ffffffffffffffffffffffffffffffffffffffff1673ffffffffffffffffffffffffffffffffffffffff16815260200190815260200160002060008473ffffffffffffffffffffffffffffffffffffffff1673ffffffffffffffffffffffffffffffffffffffff1681526020019081526020016000205491505092915050565b610f09611161565b600073ffffffffffffffffffffffffffffffffffffffff168173ffffffffffffffffffffffffffffffffffffffff1603610f7b5760006040517f1e4fbdf7000000000000000000000000000000000000000000000000000000008152600401610f729190612e96565b60405180910390fd5b610f848161161d565b50565b60007f52c63247e1f47db19d5ce0460030c497f067ca4cebf71ba98eeadabe20bace00905090565b600033905090565b610fc48383836001611aa4565b505050565b6000610fd58484610e6c565b90507fffffffffffffffffffffffffffffffffffffffffffffffffffffffffffffffff8110156110585781811015611048578281836040517ffb8f41b200000000000000000000000000000000000000000000000000000000815260040161103f939291906131b5565b60405180910390fd5b61105784848484036000611aa4565b5b50505050565b600073ffffffffffffffffffffffffffffffffffffffff168373ffffffffffffffffffffffffffffffffffffffff16036110d05760006040517f96c6fd1e0000000000000000000000000000000000000000000000000000000081526004016110c79190612e96565b60405180910390fd5b600073ffffffffffffffffffffffffffffffffffffffff168273ffffffffffffffffffffffffffffffffffffffff16036111425760006040517fec442f050000000000000000000000000000000000000000000000000000000081526004016111399190612e96565b60405180910390fd5b61114d838383611c8a565b505050565b600061115c611c9a565b905090565b611169610faf565b73ffffffffffffffffffffffffffffffffffffffff16611187610996565b73ffffffffffffffffffffffffffffffffffffffff16146111e6576111aa610faf565b6040517f118cdaa70000000000000000000000000000000000000000000000000000000081526004016111dd9190612e96565b60405180910390fd5b565b6111f0611cfe565b60006111fa6115f5565b905060008160000160006101000a81548160ff0219169083151502179055507f5db9ee0a495bf2e6ff9c91a7834c1ba4fdd244a5e8aa4e537bd38aeae4b073aa611242610faf565b60405161124f9190612e96565b60405180910390a150565b600073ffffffffffffffffffffffffffffffffffffffff168273ffffffffffffffffffffffffffffffffffffffff16036112cc5760006040517fec442f050000000000000000000000000000000000000000000000000000000081526004016112c39190612e96565b60405180910390fd5b6112d860008383611c8a565b5050565b600073ffffffffffffffffffffffffffffffffffffffff168273ffffffffffffffffffffffffffffffffffffffff160361134e5760006040517f96c6fd1e0000000000000000000000000000000000000000000000000000000081526004016113459190612e96565b60405180910390fd5b61135a82600083611c8a565b5050565b7f000000000000000000000000000000000000000000000000000000000000000073ffffffffffffffffffffffffffffffffffffffff163073ffffffffffffffffffffffffffffffffffffffff16148061140b57507f000000000000000000000000000000000000000000000000000000000000000073ffffffffffffffffffffffffffffffffffffffff166113f2611d3e565b73ffffffffffffffffffffffffffffffffffffffff1614155b15611442576040517fe07c8dba00000000000000000000000000000000000000000000000000000000815260040160405180910390fd5b565b61144c611161565b50565b8173ffffffffffffffffffffffffffffffffffffffff166352d1902d6040518163ffffffff1660e01b8152600401602060405180830381865afa9250505080156114b757506040513d601f19601f820116820180604052508101906114b49190613201565b60015b6114f857816040517f4c9c8ce30000000000000000000000000000000000000000000000000000000081526004016114ef9190612e96565b60405180910390fd5b7f360894a13ba1a3210667c828492db98dca3e2076cc3735a920a3ca505d382bbc60001b811461155f57806040517faa1d49a40000000000000000000000000000000000000000000000000000000081526004016115569190612b04565b60405180910390fd5b6115698383611d95565b505050565b7f000000000000000000000000000000000000000000000000000000000000000073ffffffffffffffffffffffffffffffffffffffff163073ffffffffffffffffffffffffffffffffffffffff16146115f3576040517fe07c8dba00000000000000000000000000000000000000000000000000000000815260040160405180910390fd5b565b60007fcd5ed15c6e187e77e9aee88184c21f4f2182ab5827cb3b7e07fbedcd63f03300905090565b6000611627611927565b905060008160000160009054906101000a900473ffffffffffffffffffffffffffffffffffffffff169050828260000160006101000a81548173ffffffffffffffffffffffffffffffffffffffff021916908373ffffffffffffffffffffffffffffffffffffffff1602179055508273ffffffffffffffffffffffffffffffffffffffff168173ffffffffffffffffffffffffffffffffffffffff167f8be0079c531659141344cd1fd0a4f28419497f9722a3daafe3b4186f6b6457e060405160405180910390a3505050565b6000806116ff611e08565b90508060000160008473ffffffffffffffffffffffffffffffffffffffff1673ffffffffffffffffffffffffffffffffffffffff16815260200190815260200160002054915050919050565b611753611e30565b600061175d6115f5565b905060018160000160006101000a81548160ff0219169083151502179055507f62e78cea01bee320cd4e420270b5ea74000d11b0c9f74754ebdbfc544b05a2586117a5610faf565b6040516117b29190612e96565b60405180910390a150565b60007fa16a46d94261c7517cc8ff89f61c0ce93598e3c849801011dee649a6a557d100905090565b606060006117f16117bd565b90508060020180546118029061301a565b80601f016020809104026020016040519081016040528092919081815260200182805461182e9061301a565b801561187b5780601f106118505761010080835404028352916020019161187b565b820191906000526020600020905b81548152906001019060200180831161185e57829003601f168201915b505050505091505090565b606060006118926117bd565b90508060030180546118a39061301a565b80601f01602080910402602001604051908101604052809291908181526020018280546118cf9061301a565b801561191c5780601f106118f15761010080835404028352916020019161191c565b820191906000526020600020905b8154815290600101906020018083116118ff57829003601f168201915b505050505091505090565b60007f9016d09d72d40fdae2fd8ceac6b6234c7706214fd39c1cd1e609a0528c199300905090565b60008061195a611e71565b90508091505090565b61196b611e9c565b6119758282611edc565b5050565b611981611e9c565b565b61198b611e9c565b565b611995611e9c565b61199e81611f19565b50565b6119a9611e9c565b6119e8816040518060400160405280600181526020017f3100000000000000000000000000000000000000000000000000000000000000815250611f9f565b50565b6119f3611e9c565b565b600080611a00611e08565b90508060000160008473ffffffffffffffffffffffffffffffffffffffff1673ffffffffffffffffffffffffffffffffffffffff168152602001908152602001600020600081548092919060010191905055915050919050565b6000611a6d611a67611152565b83611ff4565b9050919050565b600080600080611a8688888888612035565b925092509250611a968282612129565b829350505050949350505050565b6000611aae610f87565b9050600073ffffffffffffffffffffffffffffffffffffffff168573ffffffffffffffffffffffffffffffffffffffff1603611b225760006040517fe602df05000000000000000000000000000000000000000000000000000000008152600401611b199190612e96565b60405180910390fd5b600073ffffffffffffffffffffffffffffffffffffffff168473ffffffffffffffffffffffffffffffffffffffff1603611b945760006040517f94280d62000000000000000000000000000000000000000000000000000000008152600401611b8b9190612e96565b60405180910390fd5b828160010160008773ffffffffffffffffffffffffffffffffffffffff1673ffffffffffffffffffffffffffffffffffffffff16815260200190815260200160002060008673ffffffffffffffffffffffffffffffffffffffff1673ffffffffffffffffffffffffffffffffffffffff168152602001908152602001600020819055508115611c83578373ffffffffffffffffffffffffffffffffffffffff168573ffffffffffffffffffffffffffffffffffffffff167f8c5be1e5ebec7d5bd14f71427d1e84f3dd0314c0f7b2291e5b200ac8c7c3b92585604051611c7a9190612a46565b60405180910390a35b5050505050565b611c9583838361228d565b505050565b60007f8b73c3c69bb8fe3d512ecc4cf759cc79239f7b179b0ffacaa9a75d522b39400f611cc56122a5565b611ccd612321565b4630604051602001611ce395949392919061322e565b60405160208183030381529060405280519060200120905090565b611d066107b0565b611d3c576040517f8dfc202b00000000000000000000000000000000000000000000000000000000815260040160405180910390fd5b565b6000611d6c7f360894a13ba1a3210667c828492db98dca3e2076cc3735a920a3ca505d382bbc60001b61239d565b60000160009054906101000a900473ffffffffffffffffffffffffffffffffffffffff16905090565b611d9e826123a7565b8173ffffffffffffffffffffffffffffffffffffffff167fbc7cd75a20ee27fd9adebab32041f755214dbc6bffa90cc0225b39da2e5c2d3b60405160405180910390a2600081511115611dfb57611df58282612474565b50611e04565b611e036124f8565b5b5050565b60007f5ab42ced628888259c08ac98db1eb0cf702fc1501344311d8b100cd1bfe4bb00905090565b611e386107b0565b15611e6f576040517fd93c066500000000000000000000000000000000000000000000000000000000815260040160405180910390fd5b565b60007ff0c57e16840df040f15088dc2f81fe391c3923bec73e23a9662efc9c229c6a0060001b905090565b611ea4612535565b611eda576040517fd7e6bcf800000000000000000000000000000000000000000000000000000000815260040160405180910390fd5b565b611ee4611e9c565b6000611eee610f87565b905082816003019081611f019190613423565b5081816004019081611f139190613423565b50505050565b611f21611e9c565b600073ffffffffffffffffffffffffffffffffffffffff168173ffffffffffffffffffffffffffffffffffffffff1603611f935760006040517f1e4fbdf7000000000000000000000000000000000000000000000000000000008152600401611f8a9190612e96565b60405180910390fd5b611f9c8161161d565b50565b611fa7611e9c565b6000611fb16117bd565b905082816002019081611fc49190613423565b5081816003019081611fd69190613423565b506000801b81600001819055506000801b8160010181905550505050565b60006040517f190100000000000000000000000000000000000000000000000000000000000081528360028201528260228201526042812091505092915050565b60008060007f7fffffffffffffffffffffffffffffff5d576e7357a4501ddfe92f46681b20a08460001c111561207557600060038592509250925061211f565b60006001888888886040516000815260200160405260405161209a94939291906134f5565b6020604051602081039080840390855afa1580156120bc573d6000803e3d6000fd5b505050602060405103519050600073ffffffffffffffffffffffffffffffffffffffff168173ffffffffffffffffffffffffffffffffffffffff160361211057600060016000801b9350935093505061211f565b8060008060001b935093509350505b9450945094915050565b6000600381111561213d5761213c61353a565b5b8260038111156121505761214f61353a565b5b0315612289576001600381111561216a5761216961353a565b5b82600381111561217d5761217c61353a565b5b036121b4576040517ff645eedf00000000000000000000000000000000000000000000000000000000815260040160405180910390fd5b600260038111156121c8576121c761353a565b5b8260038111156121db576121da61353a565b5b03612220578060001c6040517ffce698f70000000000000000000000000000000000000000000000000000000081526004016122179190612a46565b60405180910390fd5b6003808111156122335761223261353a565b5b8260038111156122465761224561353a565b5b0361228857806040517fd78bce0c00000000000000000000000000000000000000000000000000000000815260040161227f9190612b04565b60405180910390fd5b5b5050565b612295611e30565b6122a0838383612555565b505050565b6000806122b06117bd565b905060006122bc6117e5565b90506000815111156122d95780805190602001209250505061231e565b6000826000015490506000801b81146122f75780935050505061231e565b7fc5d2460186f7233c927e7db2dcc703c0e500b653ca82273b7bfad8045d85a47093505050505b90565b60008061232c6117bd565b90506000612338611886565b90506000815111156123555780805190602001209250505061239a565b6000826001015490506000801b81146123735780935050505061239a565b7fc5d2460186f7233c927e7db2dcc703c0e500b653ca82273b7bfad8045d85a47093505050505b90565b6000819050919050565b60008173ffffffffffffffffffffffffffffffffffffffff163b0361240357806040517f4c9c8ce30000000000000000000000000000000000000000000000000000000081526004016123fa9190612e96565b60405180910390fd5b806124307f360894a13ba1a3210667c828492db98dca3e2076cc3735a920a3ca505d382bbc60001b61239d565b60000160006101000a81548173ffffffffffffffffffffffffffffffffffffffff021916908373ffffffffffffffffffffffffffffffffffffffff16021790555050565b60606000808473ffffffffffffffffffffffffffffffffffffffff168460405161249e91906135b0565b600060405180830381855af49150503d80600081146124d9576040519150601f19603f3d011682016040523d82523d6000602084013e6124de565b606091505b50915091506124ee858383612794565b9250505092915050565b6000341115612533576040517fb398979f00000000000000000000000000000000000000000000000000000000815260040160405180910390fd5b565b600061253f61194f565b60000160089054906101000a900460ff16905090565b600061255f610f87565b9050600073ffffffffffffffffffffffffffffffffffffffff168473ffffffffffffffffffffffffffffffffffffffff16036125b557818160020160008282546125a991906135f6565b9250508190555061268e565b60008160000160008673ffffffffffffffffffffffffffffffffffffffff1673ffffffffffffffffffffffffffffffffffffffff16815260200190815260200160002054905082811015612644578481846040517fe450d38c00000000000000000000000000000000000000000000000000000000815260040161263b939291906131b5565b60405180910390fd5b8281038260000160008773ffffffffffffffffffffffffffffffffffffffff1673ffffffffffffffffffffffffffffffffffffffff16815260200190815260200160002081905550505b600073ffffffffffffffffffffffffffffffffffffffff168373ffffffffffffffffffffffffffffffffffffffff16036126d957818160020160008282540392505081905550612729565b818160000160008573ffffffffffffffffffffffffffffffffffffffff1673ffffffffffffffffffffffffffffffffffffffff168152602001908152602001600020600082825401925050819055505b8273ffffffffffffffffffffffffffffffffffffffff168473ffffffffffffffffffffffffffffffffffffffff167fddf252ad1be2c89b69c2b068fc378daa952ba7f163c4a11628f55a4df523b3ef846040516127869190612a46565b60405180910390a350505050565b6060826127a9576127a482612823565b61281b565b600082511480156127d1575060008473ffffffffffffffffffffffffffffffffffffffff163b145b1561281357836040517f9996b31500000000000000000000000000000000000000000000000000000000815260040161280a9190612e96565b60405180910390fd5b81905061281c565b5b9392505050565b60008151111561283557805160208201fd5b6040517fd6bda27500000000000000000000000000000000000000000000000000000000815260040160405180910390fd5b600081519050919050565b600082825260208201905092915050565b60005b838110156128a1578082015181840152602081019050612886565b60008484015250505050565b6000601f19601f8301169050919050565b60006128c982612867565b6128d38185612872565b93506128e3818560208601612883565b6128ec816128ad565b840191505092915050565b6000602082019050818103600083015261291181846128be565b905092915050565b6000604051905090565b600080fd5b600080fd5b600073ffffffffffffffffffffffffffffffffffffffff82169050919050565b60006129588261292d565b9050919050565b6129688161294d565b811461297357600080fd5b50565b6000813590506129858161295f565b92915050565b6000819050919050565b61299e8161298b565b81146129a957600080fd5b50565b6000813590506129bb81612995565b92915050565b600080604083850312156129d8576129d7612923565b5b60006129e685828601612976565b92505060206129f7858286016129ac565b9150509250929050565b60008115159050919050565b612a1681612a01565b82525050565b6000602082019050612a316000830184612a0d565b92915050565b612a408161298b565b82525050565b6000602082019050612a5b6000830184612a37565b92915050565b600080600060608486031215612a7a57612a79612923565b5b6000612a8886828701612976565b9350506020612a9986828701612976565b9250506040612aaa868287016129ac565b9150509250925092565b600060ff82169050919050565b612aca81612ab4565b82525050565b6000602082019050612ae56000830184612ac1565b92915050565b6000819050919050565b612afe81612aeb565b82525050565b6000602082019050612b196000830184612af5565b92915050565b600060208284031215612b3557612b34612923565b5b6000612b43848285016129ac565b91505092915050565b600080fd5b600080fd5b7f4e487b7100000000000000000000000000000000000000000000000000000000600052604160045260246000fd5b612b8e826128ad565b810181811067ffffffffffffffff82111715612bad57612bac612b56565b5b80604052505050565b6000612bc0612919565b9050612bcc8282612b85565b919050565b600067ffffffffffffffff821115612bec57612beb612b56565b5b612bf5826128ad565b9050602081019050919050565b82818337600083830152505050565b6000612c24612c1f84612bd1565b612bb6565b905082815260208101848484011115612c4057612c3f612b51565b5b612c4b848285612c02565b509392505050565b600082601f830112612c6857612c67612b4c565b5b8135612c78848260208601612c11565b91505092915050565b60008060408385031215612c9857612c97612923565b5b6000612ca685828601612976565b925050602083013567ffffffffffffffff811115612cc757612cc6612928565b5b612cd385828601612c53565b9150509250929050565b600060208284031215612cf357612cf2612923565b5b6000612d0184828501612976565b91505092915050565b60007fff0000000000000000000000000000000000000000000000000000000000000082169050919050565b612d3f81612d0a565b82525050565b612d4e8161294d565b82525050565b600081519050919050565b600082825260208201905092915050565b6000819050602082019050919050565b612d898161298b565b82525050565b6000612d9b8383612d80565b60208301905092915050565b6000602082019050919050565b6000612dbf82612d54565b612dc98185612d5f565b9350612dd483612d70565b8060005b83811015612e05578151612dec8882612d8f565b9750612df783612da7565b925050600181019050612dd8565b5085935050505092915050565b600060e082019050612e27600083018a612d36565b8181036020830152612e3981896128be565b90508181036040830152612e4d81886128be565b9050612e5c6060830187612a37565b612e696080830186612d45565b612e7660a0830185612af5565b81810360c0830152612e888184612db4565b905098975050505050505050565b6000602082019050612eab6000830184612d45565b92915050565b612eba81612ab4565b8114612ec557600080fd5b50565b600081359050612ed781612eb1565b92915050565b612ee681612aeb565b8114612ef157600080fd5b50565b600081359050612f0381612edd565b92915050565b600080600080600080600060e0888a031215612f2857612f27612923565b5b6000612f368a828b01612976565b9750506020612f478a828b01612976565b9650506040612f588a828b016129ac565b9550506060612f698a828b016129ac565b9450506080612f7a8a828b01612ec8565b93505060a0612f8b8a828b01612ef4565b92505060c0612f9c8a828b01612ef4565b91505092959891949750929550565b60008060408385031215612fc257612fc1612923565b5b6000612fd085828601612976565b9250506020612fe185828601612976565b9150509250929050565b7f4e487b7100000000000000000000000000000000000000000000000000000000600052602260045260246000fd5b6000600282049050600182168061303257607f821691505b60208210810361304557613044612feb565b5b50919050565b7f4549503731323a20556e696e697469616c697a65640000000000000000000000600082015250565b6000613081601583612872565b915061308c8261304b565b602082019050919050565b600060208201905081810360008301526130b081613074565b9050919050565b6000819050919050565b600067ffffffffffffffff82169050919050565b6000819050919050565b60006130fa6130f56130f0846130b7565b6130d5565b6130c1565b9050919050565b61310a816130df565b82525050565b60006020820190506131256000830184613101565b92915050565b600060c0820190506131406000830189612af5565b61314d6020830188612d45565b61315a6040830187612d45565b6131676060830186612a37565b6131746080830185612a37565b61318160a0830184612a37565b979650505050505050565b60006040820190506131a16000830185612d45565b6131ae6020830184612d45565b9392505050565b60006060820190506131ca6000830186612d45565b6131d76020830185612a37565b6131e46040830184612a37565b949350505050565b6000815190506131fb81612edd565b92915050565b60006020828403121561321757613216612923565b5b6000613225848285016131ec565b91505092915050565b600060a0820190506132436000830188612af5565b6132506020830187612af5565b61325d6040830186612af5565b61326a6060830185612a37565b6132776080830184612d45565b9695505050505050565b60008190508160005260206000209050919050565b60006020601f8301049050919050565b600082821b905092915050565b6000600883026132e37fffffffffffffffffffffffffffffffffffffffffffffffffffffffffffffffff826132a6565b6132ed86836132a6565b95508019841693508086168417925050509392505050565b600061332061331b6133168461298b565b6130d5565b61298b565b9050919050565b6000819050919050565b61333a83613305565b61334e61334682613327565b8484546132b3565b825550505050565b600090565b613363613356565b61336e818484613331565b505050565b5b818110156133925761338760008261335b565b600181019050613374565b5050565b601f8211156133d7576133a881613281565b6133b184613296565b810160208510156133c0578190505b6133d46133cc85613296565b830182613373565b50505b505050565b600082821c905092915050565b60006133fa600019846008026133dc565b1980831691505092915050565b600061341383836133e9565b9150826002028217905092915050565b61342c82612867565b67ffffffffffffffff81111561344557613444612b56565b5b61344f825461301a565b61345a828285613396565b600060209050601f83116001811461348d576000841561347b578287015190505b6134858582613407565b8655506134ed565b601f19841661349b86613281565b60005b828110156134c35784890151825560018201915060208501945060208101905061349e565b868310156134e057848901516134dc601f8916826133e9565b8355505b6001600288020188555050505b505050505050565b600060808201905061350a6000830187612af5565b6135176020830186612ac1565b6135246040830185612af5565b6135316060830184612af5565b95945050505050565b7f4e487b7100000000000000000000000000000000000000000000000000000000600052602160045260246000fd5b600081519050919050565b600081905092915050565b600061358a82613569565b6135948185613574565b93506135a4818560208601612883565b80840191505092915050565b60006135bc828461357f565b915081905092915050565b7f4e487b7100000000000000000000000000000000000000000000000000000000600052601160045260246000fd5b60006136018261298b565b915061360c8361298b565b9250828201905080821115613624576136236135c7565b5b9291505056fea26469706673582212202ddd6d42a0d182cee86492044b9082663fcbda416dec35093a7aa248766d4b2564736f6c634300081c0033",
  "linkReferences": {},
  "deployedLinkReferences": {}
}