{
  "_format": "hh-sol-artifact-1",
  "contractName": "FlameBornEngine",
  "sourceName": "contracts/FlameBornEngine.sol",
  "abi": [
    {
      "inputs": [
        {
          "internalType": "address",
          "name": "admin",
          "type": "address"
        },
        {
          "internalType": "contract IFlameBornToken",
          "name": "_token",
          "type": "address"
        },
        {
          "internalType": "contract IHealthIDNFT",
          "name": "_credentialNFT",
          "type": "address"
        },
        {
          "internalType": "uint256",
          "name": "_actorReward",
          "type": "uint256"
        },
        {
          "internalType": "uint256",
          "name": "_donationRewardRate",
          "type": "uint256"
        }
      ],
      "stateMutability": "nonpayable",
      "type": "constructor"
    },
    {
      "inputs": [],
      "name": "AccessControlBadConfirmation",
      "type": "error"
    },
    {
      "inputs": [
        {
          "internalType": "address",
          "name": "account",
          "type": "address"
        },
        {
          "internalType": "bytes32",
          "name": "neededRole",
          "type": "bytes32"
        }
      ],
      "name": "AccessControlUnauthorizedAccount",
      "type": "error"
    },
    {
      "inputs": [],
      "name": "FailedCall",
      "type": "error"
    },
    {
      "inputs": [
        {
          "internalType": "uint256",
          "name": "balance",
          "type": "uint256"
        },
        {
          "internalType": "uint256",
          "name": "needed",
          "type": "uint256"
        }
      ],
      "name": "InsufficientBalance",
      "type": "error"
    },
    {
      "anonymous": false,
      "inputs": [
        {
          "indexed": true,
          "internalType": "address",
          "name": "actor",
          "type": "address"
        },
        {
          "indexed": false,
          "internalType": "enum FlameBornEngine.ActorRole",
          "name": "role",
          "type": "uint8"
        },
        {
          "indexed": false,
          "internalType": "string",
          "name": "name",
          "type": "string"
        }
      ],
      "name": "ActorVerified",
      "type": "event"
    },
    {
      "anonymous": false,
      "inputs": [
        {
          "indexed": true,
          "internalType": "address",
          "name": "donor",
          "type": "address"
        },
        {
          "indexed": false,
          "internalType": "uint256",
          "name": "amountETH",
          "type": "uint256"
        },
        {
          "indexed": false,
          "internalType": "uint256",
          "name": "rewardFLB",
          "type": "uint256"
        }
      ],
      "name": "DonationReceived",
      "type": "event"
    },
    {
      "anonymous": false,
      "inputs": [
        {
          "indexed": true,
          "internalType": "address",
          "name": "user",
          "type": "address"
        },
        {
          "indexed": false,
          "internalType": "string",
          "name": "questId",
          "type": "string"
        },
        {
          "indexed": false,
          "internalType": "uint256",
          "name": "reward",
          "type": "uint256"
        }
      ],
      "name": "QuestRewarded",
      "type": "event"
    },
    {
      "anonymous": false,
      "inputs": [
        {
          "indexed": true,
          "internalType": "bytes32",
          "name": "role",
          "type": "bytes32"
        },
        {
          "indexed": true,
          "internalType": "bytes32",
          "name": "previousAdminRole",
          "type": "bytes32"
        },
        {
          "indexed": true,
          "internalType": "bytes32",
          "name": "newAdminRole",
          "type": "bytes32"
        }
      ],
      "name": "RoleAdminChanged",
      "type": "event"
    },
    {
      "anonymous": false,
      "inputs": [
        {
          "indexed": true,
          "internalType": "bytes32",
          "name": "role",
          "type": "bytes32"
        },
        {
          "indexed": true,
          "internalType": "address",
          "name": "account",
          "type": "address"
        },
        {
          "indexed": true,
          "internalType": "address",
          "name": "sender",
          "type": "address"
        }
      ],
      "name": "RoleGranted",
      "type": "event"
    },
    {
      "anonymous": false,
      "inputs": [
        {
          "indexed": true,
          "internalType": "bytes32",
          "name": "role",
          "type": "bytes32"
        },
        {
          "indexed": true,
          "internalType": "address",
          "name": "account",
          "type": "address"
        },
        {
          "indexed": true,
          "internalType": "address",
          "name": "sender",
          "type": "address"
        }
      ],
      "name": "RoleRevoked",
      "type": "event"
    },
    {
      "inputs": [],
      "name": "DEFAULT_ADMIN_ROLE",
      "outputs": [
        {
          "internalType": "bytes32",
          "name": "",
          "type": "bytes32"
        }
      ],
      "stateMutability": "view",
      "type": "function"
    },
    {
      "inputs": [],
      "name": "QUEST_ADMIN_ROLE",
      "outputs": [
        {
          "internalType": "bytes32",
          "name": "",
          "type": "bytes32"
        }
      ],
      "stateMutability": "view",
      "type": "function"
    },
    {
      "inputs": [],
      "name": "REGISTRAR_ROLE",
      "outputs": [
        {
          "internalType": "bytes32",
          "name": "",
          "type": "bytes32"
        }
      ],
      "stateMutability": "view",
      "type": "function"
    },
    {
      "inputs": [],
      "name": "actorReward",
      "outputs": [
        {
          "internalType": "uint256",
          "name": "",
          "type": "uint256"
        }
      ],
      "stateMutability": "view",
      "type": "function"
    },
    {
      "inputs": [
        {
          "internalType": "address",
          "name": "",
          "type": "address"
        }
      ],
      "name": "actors",
      "outputs": [
        {
          "internalType": "bool",
          "name": "verified",
          "type": "bool"
        },
        {
          "internalType": "enum FlameBornEngine.ActorRole",
          "name": "role",
          "type": "uint8"
        },
        {
          "internalType": "string",
          "name": "name",
          "type": "string"
        },
        {
          "internalType": "string",
          "name": "licenseId",
          "type": "string"
        },
        {
          "internalType": "string",
          "name": "phone",
          "type": "string"
        }
      ],
      "stateMutability": "view",
      "type": "function"
    },
    {
      "inputs": [
        {
          "internalType": "address",
          "name": "user",
          "type": "address"
        },
        {
          "internalType": "uint256",
          "name": "reward",
          "type": "uint256"
        },
        {
          "internalType": "string",
          "name": "questId",
          "type": "string"
        }
      ],
      "name": "awardQuest",
      "outputs": [],
      "stateMutability": "nonpayable",
      "type": "function"
    },
    {
      "inputs": [],
      "name": "credentialNFT",
      "outputs": [
        {
          "internalType": "contract IHealthIDNFT",
          "name": "",
          "type": "address"
        }
      ],
      "stateMutability": "view",
      "type": "function"
    },
    {
      "inputs": [],
      "name": "donate",
      "outputs": [],
      "stateMutability": "payable",
      "type": "function"
    },
    {
      "inputs": [],
      "name": "donationRewardRate",
      "outputs": [
        {
          "internalType": "uint256",
          "name": "",
          "type": "uint256"
        }
      ],
      "stateMutability": "view",
      "type": "function"
    },
    {
      "inputs": [
        {
          "internalType": "address",
          "name": "",
          "type": "address"
        }
      ],
      "name": "donorBalances",
      "outputs": [
        {
          "internalType": "uint256",
          "name": "",
          "type": "uint256"
        }
      ],
      "stateMutability": "view",
      "type": "function"
    },
    {
      "inputs": [
        {
          "internalType": "address",
          "name": "actor",
          "type": "address"
        }
      ],
      "name": "getActor",
      "outputs": [
        {
          "internalType": "bool",
          "name": "verified",
          "type": "bool"
        },
        {
          "internalType": "enum FlameBornEngine.ActorRole",
          "name": "role",
          "type": "uint8"
        },
        {
          "internalType": "string",
          "name": "name",
          "type": "string"
        },
        {
          "internalType": "string",
          "name": "licenseId",
          "type": "string"
        },
        {
          "internalType": "string",
          "name": "phone",
          "type": "string"
        }
      ],
      "stateMutability": "view",
      "type": "function"
    },
    {
      "inputs": [
        {
          "internalType": "bytes32",
          "name": "role",
          "type": "bytes32"
        }
      ],
      "name": "getRoleAdmin",
      "outputs": [
        {
          "internalType": "bytes32",
          "name": "",
          "type": "bytes32"
        }
      ],
      "stateMutability": "view",
      "type": "function"
    },
    {
      "inputs": [
        {
          "internalType": "bytes32",
          "name": "role",
          "type": "bytes32"
        },
        {
          "internalType": "address",
          "name": "account",
          "type": "address"
        }
      ],
      "name": "grantRole",
      "outputs": [],
      "stateMutability": "nonpayable",
      "type": "function"
    },
    {
      "inputs": [
        {
          "internalType": "bytes32",
          "name": "role",
          "type": "bytes32"
        },
        {
          "internalType": "address",
          "name": "account",
          "type": "address"
        }
      ],
      "name": "hasRole",
      "outputs": [
        {
          "internalType": "bool",
          "name": "",
          "type": "bool"
        }
      ],
      "stateMutability": "view",
      "type": "function"
    },
    {
      "inputs": [
        {
          "internalType": "address",
          "name": "actor",
          "type": "address"
        }
      ],
      "name": "isVerifiedActor",
      "outputs": [
        {
          "internalType": "bool",
          "name": "",
          "type": "bool"
        }
      ],
      "stateMutability": "view",
      "type": "function"
    },
    {
      "inputs": [
        {
          "internalType": "address",
          "name": "",
          "type": "address"
        }
      ],
      "name": "questRewards",
      "outputs": [
        {
          "internalType": "uint256",
          "name": "",
          "type": "uint256"
        }
      ],
      "stateMutability": "view",
      "type": "function"
    },
    {
      "inputs": [
        {
          "internalType": "bytes32",
          "name": "role",
          "type": "bytes32"
        },
        {
          "internalType": "address",
          "name": "callerConfirmation",
          "type": "address"
        }
      ],
      "name": "renounceRole",
      "outputs": [],
      "stateMutability": "nonpayable",
      "type": "function"
    },
    {
      "inputs": [
        {
          "internalType": "bytes32",
          "name": "role",
          "type": "bytes32"
        },
        {
          "internalType": "address",
          "name": "account",
          "type": "address"
        }
      ],
      "name": "revokeRole",
      "outputs": [],
      "stateMutability": "nonpayable",
      "type": "function"
    },
    {
      "inputs": [
        {
          "internalType": "bytes4",
          "name": "interfaceId",
          "type": "bytes4"
        }
      ],
      "name": "supportsInterface",
      "outputs": [
        {
          "internalType": "bool",
          "name": "",
          "type": "bool"
        }
      ],
      "stateMutability": "view",
      "type": "function"
    },
    {
      "inputs": [],
      "name": "token",
      "outputs": [
        {
          "internalType": "contract IFlameBornToken",
          "name": "",
          "type": "address"
        }
      ],
      "stateMutability": "view",
      "type": "function"
    },
    {
      "inputs": [
        {
          "internalType": "string",
          "name": "name",
          "type": "string"
        }
      ],
      "name": "tokenURIForActor",
      "outputs": [
        {
          "internalType": "string",
          "name": "",
          "type": "string"
        }
      ],
      "stateMutability": "pure",
      "type": "function"
    },
    {
      "inputs": [],
      "name": "totalDonations",
      "outputs": [
        {
          "internalType": "uint256",
          "name": "",
          "type": "uint256"
        }
      ],
      "stateMutability": "view",
      "type": "function"
    },
    {
      "inputs": [
        {
          "internalType": "address",
          "name": "actorAddress",
          "type": "address"
        },
        {
          "internalType": "enum FlameBornEngine.ActorRole",
          "name": "role",
          "type": "uint8"
        },
        {
          "internalType": "string",
          "name": "name",
          "type": "string"
        },
        {
          "internalType": "string",
          "name": "licenseId",
          "type": "string"
        },
        {
          "internalType": "string",
          "name": "phone",
          "type": "string"
        }
      ],
      "name": "verifyActor",
      "outputs": [],
      "stateMutability": "nonpayable",
      "type": "function"
    },
    {
      "inputs": [
        {
          "internalType": "address payable",
          "name": "recipient",
          "type": "address"
        }
      ],
      "name": "withdrawDonations",
      "outputs": [],
      "stateMutability": "nonpayable",
      "type": "function"
    }
  ],
  "bytecode": "0x61010060405234801561001157600080fd5b50604051611e02380380611e02833981016040819052610030916102d4565b6001600160a01b03851661008b5760405162461bcd60e51b815260206004820152601660248201527f41646d696e20616464726573732072657175697265640000000000000000000060448201526064015b60405180910390fd5b6001600160a01b0384166100e15760405162461bcd60e51b815260206004820152601660248201527f546f6b656e2061646472657373207265717569726564000000000000000000006044820152606401610082565b6001600160a01b0383166101375760405162461bcd60e51b815260206004820152601760248201527f43726564656e7469616c204e46542072657175697265640000000000000000006044820152606401610082565b600081116101875760405162461bcd60e51b815260206004820181905260248201527f446f6e6174696f6e207265776172642072617465206d757374206265203e20306044820152606401610082565b6001600160a01b03808516608052831660a05260c082905260e08190526101af600086610210565b506101da7fedcc084d3dcd65a1f7f23c65c46722faca6953d28e43150a467cf43e5c30923886610210565b506102057fd9fa870f425abcc65e9f66291fd387e7d8e4b1a8019d84df97822b1a0643f58586610210565b505050505050610332565b6000828152602081815260408083206001600160a01b038516845290915281205460ff166102b2576000838152602081815260408083206001600160a01b03861684529091529020805460ff1916600117905561026a3390565b6001600160a01b0316826001600160a01b0316847f2f8788117e7eff1d82e926ec794901d17c78024a50270940304540a733656f0d60405160405180910390a45060016102b6565b5060005b92915050565b6001600160a01b03811681146102d157600080fd5b50565b600080600080600060a086880312156102ec57600080fd5b85516102f7816102bc565b6020870151909550610308816102bc565b6040870151909450610319816102bc565b6060870151608090970151959894975095949392505050565b60805160a05160c05160e051611a6d610395600039600081816102e901526111040152600081816104380152610cab0152600081816103970152610c210152600081816105170152818161092f01528181610cd101526111480152611a6d6000f3fe60806040526004361061014b5760003560e01c806391d14854116100b6578063de2ed8931161006f578063de2ed8931461045a578063eaa66a3c14610470578063ed88c68e14610490578063f5c515be14610498578063f68e9553146104d1578063fc0c546a1461050557600080fd5b806391d1485414610365578063934fcd1b14610385578063a217fddf146103d1578063a56f5b53146103e6578063d547741f14610406578063d78360bc1461042657600080fd5b80634138d167116101085780634138d1671461026657806362158c7514610297578063624c6722146102b7578063678f9350146102d75780637b8c8de11461030b57806384d49d821461033857600080fd5b806301ffc9a714610150578063096428411461018557806314e02500146101c7578063248a9ca3146101f45780632f2ff15d1461022457806336568abe14610246575b600080fd5b34801561015c57600080fd5b5061017061016b3660046113e9565b610539565b60405190151581526020015b60405180910390f35b34801561019157600080fd5b506101b97fd9fa870f425abcc65e9f66291fd387e7d8e4b1a8019d84df97822b1a0643f58581565b60405190815260200161017c565b3480156101d357600080fd5b506101b96101e236600461142f565b60046020526000908152604090205481565b34801561020057600080fd5b506101b961020f36600461144c565b60009081526020819052604090206001015490565b34801561023057600080fd5b5061024461023f366004611465565b610570565b005b34801561025257600080fd5b50610244610261366004611465565b61059b565b34801561027257600080fd5b5061028661028136600461142f565b6105d3565b60405161017c95949392919061151d565b3480156102a357600080fd5b506102446102b23660046115c0565b610823565b3480156102c357600080fd5b506102446102d236600461161c565b6109d7565b3480156102e357600080fd5b506101b97f000000000000000000000000000000000000000000000000000000000000000081565b34801561031757600080fd5b506101b961032636600461142f565b60016020526000908152604090205481565b34801561034457600080fd5b50610358610353366004611701565b610d80565b60405161017c91906117ba565b34801561037157600080fd5b50610170610380366004611465565b610da9565b34801561039157600080fd5b506103b97f000000000000000000000000000000000000000000000000000000000000000081565b6040516001600160a01b03909116815260200161017c565b3480156103dd57600080fd5b506101b9600081565b3480156103f257600080fd5b5061024461040136600461142f565b610dd2565b34801561041257600080fd5b50610244610421366004611465565b610e7e565b34801561043257600080fd5b506101b97f000000000000000000000000000000000000000000000000000000000000000081565b34801561046657600080fd5b506101b960025481565b34801561047c57600080fd5b5061028661048b36600461142f565b610ea3565b610244611071565b3480156104a457600080fd5b506101706104b336600461142f565b6001600160a01b031660009081526003602052604090205460ff1690565b3480156104dd57600080fd5b506101b97fedcc084d3dcd65a1f7f23c65c46722faca6953d28e43150a467cf43e5c30923881565b34801561051157600080fd5b506103b97f000000000000000000000000000000000000000000000000000000000000000081565b60006001600160e01b03198216637965db0b60e01b148061056a57506301ffc9a760e01b6001600160e01b03198316145b92915050565b60008281526020819052604090206001015461058b816111ea565b61059583836111f7565b50505050565b6001600160a01b03811633146105c45760405163334bd91960e11b815260040160405180910390fd5b6105ce8282611289565b505050565b6001600160a01b0381166000908152600360209081526040808320815160a08101909252805460ff808216151584528594606094859485948894929391929184019161010090910416600581111561062d5761062d611495565b600581111561063e5761063e611495565b8152602001600182018054610652906117cd565b80601f016020809104026020016040519081016040528092919081815260200182805461067e906117cd565b80156106cb5780601f106106a0576101008083540402835291602001916106cb565b820191906000526020600020905b8154815290600101906020018083116106ae57829003601f168201915b505050505081526020016002820180546106e4906117cd565b80601f0160208091040260200160405190810160405280929190818152602001828054610710906117cd565b801561075d5780601f106107325761010080835404028352916020019161075d565b820191906000526020600020905b81548152906001019060200180831161074057829003601f168201915b50505050508152602001600382018054610776906117cd565b80601f01602080910402602001604051908101604052809291908181526020018280546107a2906117cd565b80156107ef5780601f106107c4576101008083540402835291602001916107ef565b820191906000526020600020905b8154815290600101906020018083116107d257829003601f168201915b5050509190925250508151602083015160408401516060850151608090950151929c919b5099509297509550909350505050565b7fd9fa870f425abcc65e9f66291fd387e7d8e4b1a8019d84df97822b1a0643f58561084d816111ea565b6001600160a01b0385166108975760405162461bcd60e51b815260206004820152600c60248201526b24b73b30b634b2103ab9b2b960a11b60448201526064015b60405180910390fd5b600084116108dc5760405162461bcd60e51b81526020600482015260126024820152710526577617264206d757374206265203e20360741b604482015260640161088e565b6001600160a01b0385166000908152600460205260408120805486929061090490849061181d565b90915550506040516340c10f1960e01b81526001600160a01b038681166004830152602482018690527f000000000000000000000000000000000000000000000000000000000000000016906340c10f1990604401600060405180830381600087803b15801561097357600080fd5b505af1158015610987573d6000803e3d6000fd5b50505050846001600160a01b03167ff746c75ab19937d58b2a3e0406d8d5fcd1e8ae5545a89c47e88e53497787182c8484876040516109c893929190611859565b60405180910390a25050505050565b7fedcc084d3dcd65a1f7f23c65c46722faca6953d28e43150a467cf43e5c309238610a01816111ea565b6001600160a01b038916610a4f5760405162461bcd60e51b8152602060048201526015602482015274496e76616c6964206163746f72206164647265737360581b604482015260640161088e565b6040518060a00160405280600115158152602001896005811115610a7557610a75611495565b815260200188888080601f016020809104026020016040519081016040528093929190818152602001838380828437600092019190915250505090825250604080516020601f890181900481028201810190925287815291810191908890889081908401838280828437600092019190915250505090825250604080516020601f87018190048102820181019092528581529181019190869086908190840183828082843760009201829052509390945250506001600160a01b038c1681526003602090815260409091208351815490151560ff19821681178355928501519193509091839161ff001990911661ffff1990911617610100836005811115610b7f57610b7f611495565b021790555060408201516001820190610b9890826118cb565b5060608201516002820190610bad90826118cb565b5060808201516003820190610bc290826118cb565b509050506000610c0788888080601f016020809104026020016040519081016040528093929190818152602001838380828437600092019190915250610d8092505050565b604051631153ebfb60e21b81529091506001600160a01b037f000000000000000000000000000000000000000000000000000000000000000081169163454fafec91610c5c918e91821690869060040161198a565b600060405180830381600087803b158015610c7657600080fd5b505af1158015610c8a573d6000803e3d6000fd5b50506040516340c10f1960e01b81526001600160a01b038d811660048301527f000000000000000000000000000000000000000000000000000000000000000060248301527f00000000000000000000000000000000000000000000000000000000000000001692506340c10f199150604401600060405180830381600087803b158015610d1757600080fd5b505af1158015610d2b573d6000803e3d6000fd5b50505050896001600160a01b03167fa8c194a0bb99fe5563599cd2f9a5c005a12a87ad542c02dd32d07fd57c1134258a8a8a604051610d6c939291906119ba565b60405180910390a250505050505050505050565b606081604051602001610d9391906119db565b6040516020818303038152906040529050919050565b6000918252602082815260408084206001600160a01b0393909316845291905290205460ff1690565b6000610ddd816111ea565b4780610e205760405162461bcd60e51b81526020600482015260126024820152714e6f2066756e647320617661696c61626c6560701b604482015260640161088e565b6001600160a01b038316610e6b5760405162461bcd60e51b8152602060048201526012602482015271149958da5c1a595b9d081c995c5d5a5c995960721b604482015260640161088e565b6105ce6001600160a01b038416826112f4565b600082815260208190526040902060010154610e99816111ea565b6105958383611289565b6003602052600090815260409020805460018201805460ff8084169461010090940416929190610ed2906117cd565b80601f0160208091040260200160405190810160405280929190818152602001828054610efe906117cd565b8015610f4b5780601f10610f2057610100808354040283529160200191610f4b565b820191906000526020600020905b815481529060010190602001808311610f2e57829003601f168201915b505050505090806002018054610f60906117cd565b80601f0160208091040260200160405190810160405280929190818152602001828054610f8c906117cd565b8015610fd95780601f10610fae57610100808354040283529160200191610fd9565b820191906000526020600020905b815481529060010190602001808311610fbc57829003601f168201915b505050505090806003018054610fee906117cd565b80601f016020809104026020016040519081016040528092919081815260200182805461101a906117cd565b80156110675780601f1061103c57610100808354040283529160200191611067565b820191906000526020600020905b81548152906001019060200180831161104a57829003601f168201915b5050505050905085565b600034116110c15760405162461bcd60e51b815260206004820152601f60248201527f446f6e6174696f6e206d7573742062652067726561746572207468616e203000604482015260640161088e565b34600260008282546110d3919061181d565b909155505033600090815260016020526040812080543492906110f790849061181d565b90915550600090506111297f000000000000000000000000000000000000000000000000000000000000000034611a20565b6040516340c10f1960e01b8152336004820152602481018290529091507f00000000000000000000000000000000000000000000000000000000000000006001600160a01b0316906340c10f1990604401600060405180830381600087803b15801561119457600080fd5b505af11580156111a8573d6000803e3d6000fd5b505060408051348152602081018590523393507f4b0304ab2f313234b1cea012339c8f8c3bf2c8bb357d81a579cfdb35d2e3d03092500160405180910390a250565b6111f48133611384565b50565b60006112038383610da9565b611281576000838152602081815260408083206001600160a01b03861684529091529020805460ff191660011790556112393390565b6001600160a01b0316826001600160a01b0316847f2f8788117e7eff1d82e926ec794901d17c78024a50270940304540a733656f0d60405160405180910390a450600161056a565b50600061056a565b60006112958383610da9565b15611281576000838152602081815260408083206001600160a01b0386168085529252808320805460ff1916905551339286917ff6391f5c32d9c69d2a47ea670b442974b53935d1edc7fd64eb21e047a839171b9190a450600161056a565b8047101561131e5760405163cf47918160e01b81524760048201526024810182905260440161088e565b600080836001600160a01b03168360405160006040518083038185875af1925050503d806000811461136c576040519150601f19603f3d011682016040523d82523d6000602084013e611371565b606091505b50915091508161059557610595816113c1565b61138e8282610da9565b6113bd5760405163e2517d3f60e01b81526001600160a01b03821660048201526024810183905260440161088e565b5050565b8051156113d057805160208201fd5b60405163d6bda27560e01b815260040160405180910390fd5b6000602082840312156113fb57600080fd5b81356001600160e01b03198116811461141357600080fd5b9392505050565b6001600160a01b03811681146111f457600080fd5b60006020828403121561144157600080fd5b81356114138161141a565b60006020828403121561145e57600080fd5b5035919050565b6000806040838503121561147857600080fd5b82359150602083013561148a8161141a565b809150509250929050565b634e487b7160e01b600052602160045260246000fd5b600681106114c957634e487b7160e01b600052602160045260246000fd5b9052565b60005b838110156114e85781810151838201526020016114d0565b50506000910152565b600081518084526115098160208601602086016114cd565b601f01601f19169290920160200192915050565b851515815261152f60208201866114ab565b60a06040820152600061154560a08301866114f1565b828103606084015261155781866114f1565b9050828103608084015261156b81856114f1565b98975050505050505050565b60008083601f84011261158957600080fd5b50813567ffffffffffffffff8111156115a157600080fd5b6020830191508360208285010111156115b957600080fd5b9250929050565b600080600080606085870312156115d657600080fd5b84356115e18161141a565b935060208501359250604085013567ffffffffffffffff81111561160457600080fd5b61161087828801611577565b95989497509550505050565b60008060008060008060008060a0898b03121561163857600080fd5b88356116438161141a565b975060208901356006811061165757600080fd5b9650604089013567ffffffffffffffff81111561167357600080fd5b61167f8b828c01611577565b909750955050606089013567ffffffffffffffff81111561169f57600080fd5b6116ab8b828c01611577565b909550935050608089013567ffffffffffffffff8111156116cb57600080fd5b6116d78b828c01611577565b999c989b5096995094979396929594505050565b634e487b7160e01b600052604160045260246000fd5b60006020828403121561171357600080fd5b813567ffffffffffffffff81111561172a57600080fd5b8201601f8101841361173b57600080fd5b803567ffffffffffffffff811115611755576117556116eb565b604051601f8201601f19908116603f0116810167ffffffffffffffff81118282101715611784576117846116eb565b60405281815282820160200186101561179c57600080fd5b81602084016020830137600091810160200191909152949350505050565b60208152600061141360208301846114f1565b600181811c908216806117e157607f821691505b60208210810361180157634e487b7160e01b600052602260045260246000fd5b50919050565b634e487b7160e01b600052601160045260246000fd5b8082018082111561056a5761056a611807565b81835281816020850137506000828201602090810191909152601f909101601f19169091010190565b60408152600061186d604083018587611830565b9050826020830152949350505050565b601f8211156105ce57806000526020600020601f840160051c810160208510156118a45750805b601f840160051c820191505b818110156118c457600081556001016118b0565b5050505050565b815167ffffffffffffffff8111156118e5576118e56116eb565b6118f9816118f384546117cd565b8461187d565b6020601f82116001811461192d57600083156119155750848201515b600019600385901b1c1916600184901b1784556118c4565b600084815260208120601f198516915b8281101561195d578785015182556020948501946001909201910161193d565b508482101561197b5786840151600019600387901b60f8161c191681555b50505050600190811b01905550565b60018060a01b03841681528260208201526060604082015260006119b160608301846114f1565b95945050505050565b6119c481856114ab565b6040602082015260006119b1604083018486611830565b7f68747470733a2f2f6578616d706c652e636f6d2f6d657461646174612f000000815260008251611a1381601d8501602087016114cd565b91909101601d0192915050565b808202811582820484141761056a5761056a61180756fea264697066735822122067e8b33ab2772e5a90c979d5de7b755094d12600edf74e4d29a0a23e81f7d56c64736f6c634300081c0033",
  "linkReferences": {},
  "deployedLinkReferences": {}
}