{
  "_format": "hh-sol-artifact-1",
  "contractName": "FlameBornEngine",
  "sourceName": "contracts/FlameBornEngine.sol",
  "abi": [
    {
      "inputs": [],
      "stateMutability": "nonpayable",
      "type": "constructor"
    },
    {
      "inputs": [],
      "name": "AccessControlBadConfirmation",
      "type": "error"
    },
    {
      "inputs": [
        {
          "internalType": "address",
          "name": "account",
          "type": "address"
        },
        {
          "internalType": "bytes32",
          "name": "neededRole",
          "type": "bytes32"
        }
      ],
      "name": "AccessControlUnauthorizedAccount",
      "type": "error"
    },
    {
      "inputs": [
        {
          "internalType": "address",
          "name": "target",
          "type": "address"
        }
      ],
      "name": "AddressEmptyCode",
      "type": "error"
    },
    {
      "inputs": [
        {
          "internalType": "address",
          "name": "implementation",
          "type": "address"
        }
      ],
      "name": "ERC1967InvalidImplementation",
      "type": "error"
    },
    {
      "inputs": [],
      "name": "ERC1967NonPayable",
      "type": "error"
    },
    {
      "inputs": [],
      "name": "FailedCall",
      "type": "error"
    },
    {
      "inputs": [],
      "name": "InvalidInitialization",
      "type": "error"
    },
    {
      "inputs": [],
      "name": "NotInitializing",
      "type": "error"
    },
    {
      "inputs": [],
      "name": "ReentrancyGuardReentrantCall",
      "type": "error"
    },
    {
      "inputs": [],
      "name": "UUPSUnauthorizedCallContext",
      "type": "error"
    },
    {
      "inputs": [
        {
          "internalType": "bytes32",
          "name": "slot",
          "type": "bytes32"
        }
      ],
      "name": "UUPSUnsupportedProxiableUUID",
      "type": "error"
    },
    {
      "anonymous": false,
      "inputs": [
        {
          "indexed": true,
          "internalType": "address",
          "name": "actor",
          "type": "address"
        },
        {
          "indexed": false,
          "internalType": "enum FlameBornEngine.ActorRole",
          "name": "role",
          "type": "uint8"
        },
        {
          "indexed": false,
          "internalType": "string",
          "name": "name",
          "type": "string"
        }
      ],
      "name": "ActorVerified",
      "type": "event"
    },
    {
      "anonymous": false,
      "inputs": [
        {
          "indexed": true,
          "internalType": "address",
          "name": "donor",
          "type": "address"
        },
        {
          "indexed": false,
          "internalType": "uint256",
          "name": "amountETH",
          "type": "uint256"
        },
        {
          "indexed": false,
          "internalType": "uint256",
          "name": "rewardFLB",
          "type": "uint256"
        }
      ],
      "name": "DonationReceived",
      "type": "event"
    },
    {
      "anonymous": false,
      "inputs": [
        {
          "indexed": false,
          "internalType": "uint64",
          "name": "version",
          "type": "uint64"
        }
      ],
      "name": "Initialized",
      "type": "event"
    },
    {
      "anonymous": false,
      "inputs": [
        {
          "indexed": true,
          "internalType": "address",
          "name": "user",
          "type": "address"
        },
        {
          "indexed": false,
          "internalType": "string",
          "name": "questId",
          "type": "string"
        },
        {
          "indexed": false,
          "internalType": "uint256",
          "name": "reward",
          "type": "uint256"
        }
      ],
      "name": "QuestRewarded",
      "type": "event"
    },
    {
      "anonymous": false,
      "inputs": [
        {
          "indexed": true,
          "internalType": "bytes32",
          "name": "role",
          "type": "bytes32"
        },
        {
          "indexed": true,
          "internalType": "bytes32",
          "name": "previousAdminRole",
          "type": "bytes32"
        },
        {
          "indexed": true,
          "internalType": "bytes32",
          "name": "newAdminRole",
          "type": "bytes32"
        }
      ],
      "name": "RoleAdminChanged",
      "type": "event"
    },
    {
      "anonymous": false,
      "inputs": [
        {
          "indexed": true,
          "internalType": "bytes32",
          "name": "role",
          "type": "bytes32"
        },
        {
          "indexed": true,
          "internalType": "address",
          "name": "account",
          "type": "address"
        },
        {
          "indexed": true,
          "internalType": "address",
          "name": "sender",
          "type": "address"
        }
      ],
      "name": "RoleGranted",
      "type": "event"
    },
    {
      "anonymous": false,
      "inputs": [
        {
          "indexed": true,
          "internalType": "bytes32",
          "name": "role",
          "type": "bytes32"
        },
        {
          "indexed": true,
          "internalType": "address",
          "name": "account",
          "type": "address"
        },
        {
          "indexed": true,
          "internalType": "address",
          "name": "sender",
          "type": "address"
        }
      ],
      "name": "RoleRevoked",
      "type": "event"
    },
    {
      "anonymous": false,
      "inputs": [
        {
          "indexed": true,
          "internalType": "address",
          "name": "implementation",
          "type": "address"
        }
      ],
      "name": "Upgraded",
      "type": "event"
    },
    {
      "inputs": [],
      "name": "DEFAULT_ADMIN_ROLE",
      "outputs": [
        {
          "internalType": "bytes32",
          "name": "",
          "type": "bytes32"
        }
      ],
      "stateMutability": "view",
      "type": "function"
    },
    {
      "inputs": [],
      "name": "QUEST_ADMIN_ROLE",
      "outputs": [
        {
          "internalType": "bytes32",
          "name": "",
          "type": "bytes32"
        }
      ],
      "stateMutability": "view",
      "type": "function"
    },
    {
      "inputs": [],
      "name": "REGISTRAR_ROLE",
      "outputs": [
        {
          "internalType": "bytes32",
          "name": "",
          "type": "bytes32"
        }
      ],
      "stateMutability": "view",
      "type": "function"
    },
    {
      "inputs": [],
      "name": "UPGRADE_INTERFACE_VERSION",
      "outputs": [
        {
          "internalType": "string",
          "name": "",
          "type": "string"
        }
      ],
      "stateMutability": "view",
      "type": "function"
    },
    {
      "inputs": [],
      "name": "actorReward",
      "outputs": [
        {
          "internalType": "uint256",
          "name": "",
          "type": "uint256"
        }
      ],
      "stateMutability": "view",
      "type": "function"
    },
    {
      "inputs": [
        {
          "internalType": "address",
          "name": "",
          "type": "address"
        }
      ],
      "name": "actors",
      "outputs": [
        {
          "internalType": "bool",
          "name": "verified",
          "type": "bool"
        },
        {
          "internalType": "enum FlameBornEngine.ActorRole",
          "name": "role",
          "type": "uint8"
        },
        {
          "internalType": "string",
          "name": "name",
          "type": "string"
        },
        {
          "internalType": "string",
          "name": "licenseId",
          "type": "string"
        },
        {
          "internalType": "string",
          "name": "phone",
          "type": "string"
        }
      ],
      "stateMutability": "view",
      "type": "function"
    },
    {
      "inputs": [
        {
          "internalType": "address",
          "name": "user",
          "type": "address"
        },
        {
          "internalType": "uint256",
          "name": "reward",
          "type": "uint256"
        },
        {
          "internalType": "string",
          "name": "questId",
          "type": "string"
        }
      ],
      "name": "awardQuest",
      "outputs": [],
      "stateMutability": "nonpayable",
      "type": "function"
    },
    {
      "inputs": [],
      "name": "donate",
      "outputs": [],
      "stateMutability": "payable",
      "type": "function"
    },
    {
      "inputs": [],
      "name": "donationRewardRate",
      "outputs": [
        {
          "internalType": "uint256",
          "name": "",
          "type": "uint256"
        }
      ],
      "stateMutability": "view",
      "type": "function"
    },
    {
      "inputs": [
        {
          "internalType": "address",
          "name": "",
          "type": "address"
        }
      ],
      "name": "donorBalances",
      "outputs": [
        {
          "internalType": "uint256",
          "name": "",
          "type": "uint256"
        }
      ],
      "stateMutability": "view",
      "type": "function"
    },
    {
      "inputs": [
        {
          "internalType": "address",
          "name": "actor",
          "type": "address"
        }
      ],
      "name": "getActor",
      "outputs": [
        {
          "internalType": "bool",
          "name": "verified",
          "type": "bool"
        },
        {
          "internalType": "enum FlameBornEngine.ActorRole",
          "name": "role",
          "type": "uint8"
        },
        {
          "internalType": "string",
          "name": "name",
          "type": "string"
        },
        {
          "internalType": "string",
          "name": "licenseId",
          "type": "string"
        },
        {
          "internalType": "string",
          "name": "phone",
          "type": "string"
        }
      ],
      "stateMutability": "view",
      "type": "function"
    },
    {
      "inputs": [
        {
          "internalType": "bytes32",
          "name": "role",
          "type": "bytes32"
        }
      ],
      "name": "getRoleAdmin",
      "outputs": [
        {
          "internalType": "bytes32",
          "name": "",
          "type": "bytes32"
        }
      ],
      "stateMutability": "view",
      "type": "function"
    },
    {
      "inputs": [
        {
          "internalType": "bytes32",
          "name": "role",
          "type": "bytes32"
        },
        {
          "internalType": "address",
          "name": "account",
          "type": "address"
        }
      ],
      "name": "grantRole",
      "outputs": [],
      "stateMutability": "nonpayable",
      "type": "function"
    },
    {
      "inputs": [
        {
          "internalType": "bytes32",
          "name": "role",
          "type": "bytes32"
        },
        {
          "internalType": "address",
          "name": "account",
          "type": "address"
        }
      ],
      "name": "hasRole",
      "outputs": [
        {
          "internalType": "bool",
          "name": "",
          "type": "bool"
        }
      ],
      "stateMutability": "view",
      "type": "function"
    },
    {
      "inputs": [],
      "name": "healthIDNFT",
      "outputs": [
        {
          "internalType": "contract IHealthIDNFT",
          "name": "",
          "type": "address"
        }
      ],
      "stateMutability": "view",
      "type": "function"
    },
    {
      "inputs": [
        {
          "internalType": "address",
          "name": "admin",
          "type": "address"
        },
        {
          "internalType": "address",
          "name": "_token",
          "type": "address"
        },
        {
          "internalType": "address",
          "name": "_healthIDNFT",
          "type": "address"
        },
        {
          "internalType": "uint256",
          "name": "_actorReward",
          "type": "uint256"
        },
        {
          "internalType": "uint256",
          "name": "_donationRewardRate",
          "type": "uint256"
        }
      ],
      "name": "initialize",
      "outputs": [],
      "stateMutability": "nonpayable",
      "type": "function"
    },
    {
      "inputs": [
        {
          "internalType": "address",
          "name": "actor",
          "type": "address"
        }
      ],
      "name": "isVerifiedActor",
      "outputs": [
        {
          "internalType": "bool",
          "name": "",
          "type": "bool"
        }
      ],
      "stateMutability": "view",
      "type": "function"
    },
    {
      "inputs": [],
      "name": "proxiableUUID",
      "outputs": [
        {
          "internalType": "bytes32",
          "name": "",
          "type": "bytes32"
        }
      ],
      "stateMutability": "view",
      "type": "function"
    },
    {
      "inputs": [
        {
          "internalType": "address",
          "name": "",
          "type": "address"
        }
      ],
      "name": "questRewards",
      "outputs": [
        {
          "internalType": "uint256",
          "name": "",
          "type": "uint256"
        }
      ],
      "stateMutability": "view",
      "type": "function"
    },
    {
      "inputs": [
        {
          "internalType": "bytes32",
          "name": "role",
          "type": "bytes32"
        },
        {
          "internalType": "address",
          "name": "callerConfirmation",
          "type": "address"
        }
      ],
      "name": "renounceRole",
      "outputs": [],
      "stateMutability": "nonpayable",
      "type": "function"
    },
    {
      "inputs": [
        {
          "internalType": "bytes32",
          "name": "role",
          "type": "bytes32"
        },
        {
          "internalType": "address",
          "name": "account",
          "type": "address"
        }
      ],
      "name": "revokeRole",
      "outputs": [],
      "stateMutability": "nonpayable",
      "type": "function"
    },
    {
      "inputs": [
        {
          "internalType": "bytes4",
          "name": "interfaceId",
          "type": "bytes4"
        }
      ],
      "name": "supportsInterface",
      "outputs": [
        {
          "internalType": "bool",
          "name": "",
          "type": "bool"
        }
      ],
      "stateMutability": "view",
      "type": "function"
    },
    {
      "inputs": [],
      "name": "token",
      "outputs": [
        {
          "internalType": "contract IFlameBornToken",
          "name": "",
          "type": "address"
        }
      ],
      "stateMutability": "view",
      "type": "function"
    },
    {
      "inputs": [
        {
          "internalType": "string",
          "name": "name",
          "type": "string"
        }
      ],
      "name": "tokenURIForActor",
      "outputs": [
        {
          "internalType": "string",
          "name": "",
          "type": "string"
        }
      ],
      "stateMutability": "pure",
      "type": "function"
    },
    {
      "inputs": [],
      "name": "totalDonations",
      "outputs": [
        {
          "internalType": "uint256",
          "name": "",
          "type": "uint256"
        }
      ],
      "stateMutability": "view",
      "type": "function"
    },
    {
      "inputs": [
        {
          "internalType": "address",
          "name": "newImplementation",
          "type": "address"
        },
        {
          "internalType": "bytes",
          "name": "data",
          "type": "bytes"
        }
      ],
      "name": "upgradeToAndCall",
      "outputs": [],
      "stateMutability": "payable",
      "type": "function"
    },
    {
      "inputs": [
        {
          "internalType": "address",
          "name": "actorAddress",
          "type": "address"
        },
        {
          "internalType": "enum FlameBornEngine.ActorRole",
          "name": "role",
          "type": "uint8"
        },
        {
          "internalType": "string",
          "name": "name",
          "type": "string"
        },
        {
          "internalType": "string",
          "name": "licenseId",
          "type": "string"
        },
        {
          "internalType": "string",
          "name": "phone",
          "type": "string"
        }
      ],
      "name": "verifyActor",
      "outputs": [],
      "stateMutability": "nonpayable",
      "type": "function"
    },
    {
      "inputs": [
        {
          "internalType": "address payable",
          "name": "recipient",
          "type": "address"
        }
      ],
      "name": "withdrawDonations",
      "outputs": [],
      "stateMutability": "nonpayable",
      "type": "function"
    }
  ],
  "bytecode": "0x60a06040523060805234801561001457600080fd5b5061001d610022565b6100d4565b7ff0c57e16840df040f15088dc2f81fe391c3923bec73e23a9662efc9c229c6a00805468010000000000000000900460ff16156100725760405163f92ee8a960e01b815260040160405180910390fd5b80546001600160401b03908116146100d15780546001600160401b0319166001600160401b0390811782556040519081527fc7f505b2f371ae2175ee4913f4499e1f2633a7b5936321eed1cdaeb6115181d29060200160405180910390a15b50565b6080516122636100fd6000396000818161163e0152818161166701526117ad01526122636000f3fe6080604052600436106101b75760003560e01c806384d49d82116100ec578063d78360bc1161008a578063ed88c68e11610064578063ed88c68e14610515578063f5c515be1461051d578063f68e955314610556578063fc0c546a1461058a57600080fd5b8063d78360bc146104c9578063de2ed893146104df578063eaa66a3c146104f557600080fd5b8063a56f5b53116100c6578063a56f5b5314610438578063a6b63eb814610458578063ad3cb1cc14610478578063d547741f146104a957600080fd5b806384d49d82146103d657806391d1485414610403578063a217fddf1461042357600080fd5b80634f1ef2861161015957806362158c751161013357806362158c7514610353578063624c672214610373578063678f9350146103935780637b8c8de1146103a957600080fd5b80634f1ef286146102f357806352d1902d146103065780635a21ce241461031b57600080fd5b8063248a9ca311610195578063248a9ca3146102605780632f2ff15d1461028057806336568abe146102a25780634138d167146102c257600080fd5b806301ffc9a7146101bc57806309642841146101f157806314e0250014610233575b600080fd5b3480156101c857600080fd5b506101dc6101d7366004611aa9565b6105aa565b60405190151581526020015b60405180910390f35b3480156101fd57600080fd5b506102257fd9fa870f425abcc65e9f66291fd387e7d8e4b1a8019d84df97822b1a0643f58581565b6040519081526020016101e8565b34801561023f57600080fd5b5061022561024e366004611ae8565b60076020526000908152604090205481565b34801561026c57600080fd5b5061022561027b366004611b05565b6105e1565b34801561028c57600080fd5b506102a061029b366004611b1e565b610603565b005b3480156102ae57600080fd5b506102a06102bd366004611b1e565b610625565b3480156102ce57600080fd5b506102e26102dd366004611ae8565b61065d565b6040516101e8959493929190611bd6565b6102a0610301366004611cc0565b6108ad565b34801561031257600080fd5b506102256108cc565b34801561032757600080fd5b5060015461033b906001600160a01b031681565b6040516001600160a01b0390911681526020016101e8565b34801561035f57600080fd5b506102a061036e366004611d6d565b6108e9565b34801561037f57600080fd5b506102a061038e366004611dc9565b610a81565b34801561039f57600080fd5b5061022560035481565b3480156103b557600080fd5b506102256103c4366004611ae8565b60056020526000908152604090205481565b3480156103e257600080fd5b506103f66103f1366004611e98565b610dcd565b6040516101e89190611ee9565b34801561040f57600080fd5b506101dc61041e366004611b1e565b610df6565b34801561042f57600080fd5b50610225600081565b34801561044457600080fd5b506102a0610453366004611ae8565b610e2e565b34801561046457600080fd5b506102a0610473366004611efc565b610f5c565b34801561048457600080fd5b506103f6604051806040016040528060058152602001640352e302e360dc1b81525081565b3480156104b557600080fd5b506102a06104c4366004611b1e565b6111dd565b3480156104d557600080fd5b5061022560025481565b3480156104eb57600080fd5b5061022560045481565b34801561050157600080fd5b506102e2610510366004611ae8565b6111f9565b6102a06113c7565b34801561052957600080fd5b506101dc610538366004611ae8565b6001600160a01b031660009081526006602052604090205460ff1690565b34801561056257600080fd5b506102257fedcc084d3dcd65a1f7f23c65c46722faca6953d28e43150a467cf43e5c30923881565b34801561059657600080fd5b5060005461033b906001600160a01b031681565b60006001600160e01b03198216637965db0b60e01b14806105db57506301ffc9a760e01b6001600160e01b03198316145b92915050565b600090815260008051602061220e833981519152602052604090206001015490565b61060c826105e1565b61061581611505565b61061f8383611512565b50505050565b6001600160a01b038116331461064e5760405163334bd91960e11b815260040160405180910390fd5b61065882826115b7565b505050565b6001600160a01b0381166000908152600660209081526040808320815160a08101909252805460ff80821615158452859460609485948594889492939192918401916101009091041660058111156106b7576106b7611b4e565b60058111156106c8576106c8611b4e565b81526020016001820180546106dc90611f57565b80601f016020809104026020016040519081016040528092919081815260200182805461070890611f57565b80156107555780601f1061072a57610100808354040283529160200191610755565b820191906000526020600020905b81548152906001019060200180831161073857829003601f168201915b5050505050815260200160028201805461076e90611f57565b80601f016020809104026020016040519081016040528092919081815260200182805461079a90611f57565b80156107e75780601f106107bc576101008083540402835291602001916107e7565b820191906000526020600020905b8154815290600101906020018083116107ca57829003601f168201915b5050505050815260200160038201805461080090611f57565b80601f016020809104026020016040519081016040528092919081815260200182805461082c90611f57565b80156108795780601f1061084e57610100808354040283529160200191610879565b820191906000526020600020905b81548152906001019060200180831161085c57829003601f168201915b5050509190925250508151602083015160408401516060850151608090950151929c919b5099509297509550909350505050565b6108b5611633565b6108be826116da565b6108c882826116e5565b5050565b60006108d66117a2565b506000805160206121ee83398151915290565b7fd9fa870f425abcc65e9f66291fd387e7d8e4b1a8019d84df97822b1a0643f58561091381611505565b6001600160a01b03851661095d5760405162461bcd60e51b815260206004820152600c60248201526b24b73b30b634b2103ab9b2b960a11b60448201526064015b60405180910390fd5b600084116109a25760405162461bcd60e51b81526020600482015260126024820152710526577617264206d757374206265203e20360741b6044820152606401610954565b6001600160a01b038516600090815260076020526040812080548692906109ca908490611fa7565b90915550506000546040516340c10f1960e01b81526001600160a01b03878116600483015260248201879052909116906340c10f1990604401600060405180830381600087803b158015610a1d57600080fd5b505af1158015610a31573d6000803e3d6000fd5b50505050846001600160a01b03167ff746c75ab19937d58b2a3e0406d8d5fcd1e8ae5545a89c47e88e53497787182c848487604051610a7293929190611fe3565b60405180910390a25050505050565b7fedcc084d3dcd65a1f7f23c65c46722faca6953d28e43150a467cf43e5c309238610aab81611505565b6001600160a01b038916610af15760405162461bcd60e51b815260206004820152600d60248201526c24b73b30b634b21030b1ba37b960991b6044820152606401610954565b6040518060a00160405280600115158152602001896005811115610b1757610b17611b4e565b815260200188888080601f016020809104026020016040519081016040528093929190818152602001838380828437600092019190915250505090825250604080516020601f890181900481028201810190925287815291810191908890889081908401838280828437600092019190915250505090825250604080516020601f87018190048102820181019092528581529181019190869086908190840183828082843760009201829052509390945250506001600160a01b038c1681526006602090815260409091208351815490151560ff19821681178355928501519193509091839161ff001990911661ffff1990911617610100836005811115610c2157610c21611b4e565b021790555060408201516001820190610c3a9082612055565b5060608201516002820190610c4f9082612055565b5060808201516003820190610c649082612055565b509050506000610ca988888080601f016020809104026020016040519081016040528093929190818152602001838380828437600092019190915250610dcd92505050565b600154604051631153ebfb60e21b81529192506001600160a01b039081169163454fafec91610ce1918e918216908690600401612114565b600060405180830381600087803b158015610cfb57600080fd5b505af1158015610d0f573d6000803e3d6000fd5b50506000546002546040516340c10f1960e01b81526001600160a01b038f811660048301526024820192909252911692506340c10f199150604401600060405180830381600087803b158015610d6457600080fd5b505af1158015610d78573d6000803e3d6000fd5b50505050896001600160a01b03167fa8c194a0bb99fe5563599cd2f9a5c005a12a87ad542c02dd32d07fd57c1134258a8a8a604051610db99392919061213b565b60405180910390a250505050505050505050565b606081604051602001610de0919061215c565b6040516020818303038152906040529050919050565b600091825260008051602061220e833981519152602090815260408084206001600160a01b0393909316845291905290205460ff1690565b6000610e3981611505565b4780610e7c5760405162461bcd60e51b81526020600482015260126024820152714e6f2066756e647320617661696c61626c6560701b6044820152606401610954565b6001600160a01b038316610ec75760405162461bcd60e51b8152602060048201526012602482015271149958da5c1a595b9d081c995c5d5a5c995960721b6044820152606401610954565b6000836001600160a01b03168260405160006040518083038185875af1925050503d8060008114610f14576040519150601f19603f3d011682016040523d82523d6000602084013e610f19565b606091505b505090508061061f5760405162461bcd60e51b815260206004820152600f60248201526e151c985b9cd9995c8819985a5b1959608a1b6044820152606401610954565b6000610f666117eb565b805490915060ff600160401b820416159067ffffffffffffffff16600081158015610f8e5750825b905060008267ffffffffffffffff166001148015610fab5750303b155b905081158015610fb9575080155b15610fd75760405163f92ee8a960e01b815260040160405180910390fd5b845467ffffffffffffffff19166001178555831561100157845460ff60401b1916600160401b1785555b6001600160a01b038a166110485760405162461bcd60e51b815260206004820152600e60248201526d10591b5a5b881c995c5d5a5c995960921b6044820152606401610954565b6001600160a01b03891661108f5760405162461bcd60e51b815260206004820152600e60248201526d151bdad95b881c995c5d5a5c995960921b6044820152606401610954565b6001600160a01b0388166110dc5760405162461bcd60e51b81526020600482015260146024820152731219585b1d1a1251139195081c995c5d5a5c995960621b6044820152606401610954565b6110e4611814565b6110ec611814565b6110f461181c565b600080546001600160a01b03808c166001600160a01b031992831617835560018054918c169190921617905560028890556003879055611134908b611512565b5061115f7fedcc084d3dcd65a1f7f23c65c46722faca6953d28e43150a467cf43e5c3092388b611512565b5061118a7fd9fa870f425abcc65e9f66291fd387e7d8e4b1a8019d84df97822b1a0643f5858b611512565b5083156111d157845460ff60401b19168555604051600181527fc7f505b2f371ae2175ee4913f4499e1f2633a7b5936321eed1cdaeb6115181d29060200160405180910390a15b50505050505050505050565b6111e6826105e1565b6111ef81611505565b61061f83836115b7565b6006602052600090815260409020805460018201805460ff808416946101009094041692919061122890611f57565b80601f016020809104026020016040519081016040528092919081815260200182805461125490611f57565b80156112a15780601f10611276576101008083540402835291602001916112a1565b820191906000526020600020905b81548152906001019060200180831161128457829003601f168201915b5050505050908060020180546112b690611f57565b80601f01602080910402602001604051908101604052809291908181526020018280546112e290611f57565b801561132f5780601f106113045761010080835404028352916020019161132f565b820191906000526020600020905b81548152906001019060200180831161131257829003601f168201915b50505050509080600301805461134490611f57565b80601f016020809104026020016040519081016040528092919081815260200182805461137090611f57565b80156113bd5780601f10611392576101008083540402835291602001916113bd565b820191906000526020600020905b8154815290600101906020018083116113a057829003601f168201915b5050505050905085565b600034116114175760405162461bcd60e51b815260206004820152601f60248201527f446f6e6174696f6e206d7573742062652067726561746572207468616e2030006044820152606401610954565b34600460008282546114299190611fa7565b9091555050336000908152600560205260408120805434929061144d908490611fa7565b909155505060035460009061146290346121a1565b6000546040516340c10f1960e01b8152336004820152602481018390529192506001600160a01b0316906340c10f1990604401600060405180830381600087803b1580156114af57600080fd5b505af11580156114c3573d6000803e3d6000fd5b505060408051348152602081018590523393507f4b0304ab2f313234b1cea012339c8f8c3bf2c8bb357d81a579cfdb35d2e3d03092500160405180910390a250565b61150f813361182c565b50565b600060008051602061220e83398151915261152d8484610df6565b6115ad576000848152602082815260408083206001600160a01b03871684529091529020805460ff191660011790556115633390565b6001600160a01b0316836001600160a01b0316857f2f8788117e7eff1d82e926ec794901d17c78024a50270940304540a733656f0d60405160405180910390a460019150506105db565b60009150506105db565b600060008051602061220e8339815191526115d28484610df6565b156115ad576000848152602082815260408083206001600160a01b0387168085529252808320805460ff1916905551339287917ff6391f5c32d9c69d2a47ea670b442974b53935d1edc7fd64eb21e047a839171b9190a460019150506105db565b306001600160a01b037f00000000000000000000000000000000000000000000000000000000000000001614806116ba57507f00000000000000000000000000000000000000000000000000000000000000006001600160a01b03166116ae6000805160206121ee833981519152546001600160a01b031690565b6001600160a01b031614155b156116d85760405163703e46dd60e11b815260040160405180910390fd5b565b60006108c881611505565b816001600160a01b03166352d1902d6040518163ffffffff1660e01b8152600401602060405180830381865afa92505050801561173f575060408051601f3d908101601f1916820190925261173c918101906121b8565b60015b61176757604051634c9c8ce360e01b81526001600160a01b0383166004820152602401610954565b6000805160206121ee833981519152811461179857604051632a87526960e21b815260048101829052602401610954565b6106588383611865565b306001600160a01b037f000000000000000000000000000000000000000000000000000000000000000016146116d85760405163703e46dd60e11b815260040160405180910390fd5b6000807ff0c57e16840df040f15088dc2f81fe391c3923bec73e23a9662efc9c229c6a006105db565b6116d86118bb565b6118246118bb565b6116d86118e0565b6118368282610df6565b6108c85760405163e2517d3f60e01b81526001600160a01b038216600482015260248101839052604401610954565b61186e8261190e565b6040516001600160a01b038316907fbc7cd75a20ee27fd9adebab32041f755214dbc6bffa90cc0225b39da2e5c2d3b90600090a28051156118b3576106588282611973565b6108c86119e9565b6118c3611a08565b6116d857604051631afcd79f60e31b815260040160405180910390fd5b6118e86118bb565b60017f9b779b17422d0df92223018b32b4d1fa46e071723d6817e2486d003becc55f0055565b806001600160a01b03163b60000361194457604051634c9c8ce360e01b81526001600160a01b0382166004820152602401610954565b6000805160206121ee83398151915280546001600160a01b0319166001600160a01b0392909216919091179055565b6060600080846001600160a01b03168460405161199091906121d1565b600060405180830381855af49150503d80600081146119cb576040519150601f19603f3d011682016040523d82523d6000602084013e6119d0565b606091505b50915091506119e0858383611a22565b95945050505050565b34156116d85760405163b398979f60e01b815260040160405180910390fd5b6000611a126117eb565b54600160401b900460ff16919050565b606082611a3757611a3282611a81565b611a7a565b8151158015611a4e57506001600160a01b0384163b155b15611a7757604051639996b31560e01b81526001600160a01b0385166004820152602401610954565b50805b9392505050565b805115611a9057805160208201fd5b60405163d6bda27560e01b815260040160405180910390fd5b600060208284031215611abb57600080fd5b81356001600160e01b031981168114611a7a57600080fd5b6001600160a01b038116811461150f57600080fd5b600060208284031215611afa57600080fd5b8135611a7a81611ad3565b600060208284031215611b1757600080fd5b5035919050565b60008060408385031215611b3157600080fd5b823591506020830135611b4381611ad3565b809150509250929050565b634e487b7160e01b600052602160045260246000fd5b60068110611b8257634e487b7160e01b600052602160045260246000fd5b9052565b60005b83811015611ba1578181015183820152602001611b89565b50506000910152565b60008151808452611bc2816020860160208601611b86565b601f01601f19169290920160200192915050565b8515158152611be86020820186611b64565b60a060408201526000611bfe60a0830186611baa565b8281036060840152611c108186611baa565b90508281036080840152611c248185611baa565b98975050505050505050565b634e487b7160e01b600052604160045260246000fd5b60008067ffffffffffffffff841115611c6157611c61611c30565b50604051601f19601f85018116603f0116810181811067ffffffffffffffff82111715611c9057611c90611c30565b604052838152905080828401851015611ca857600080fd5b83836020830137600060208583010152509392505050565b60008060408385031215611cd357600080fd5b8235611cde81611ad3565b9150602083013567ffffffffffffffff811115611cfa57600080fd5b8301601f81018513611d0b57600080fd5b611d1a85823560208401611c46565b9150509250929050565b60008083601f840112611d3657600080fd5b50813567ffffffffffffffff811115611d4e57600080fd5b602083019150836020828501011115611d6657600080fd5b9250929050565b60008060008060608587031215611d8357600080fd5b8435611d8e81611ad3565b935060208501359250604085013567ffffffffffffffff811115611db157600080fd5b611dbd87828801611d24565b95989497509550505050565b60008060008060008060008060a0898b031215611de557600080fd5b8835611df081611ad3565b9750602089013560068110611e0457600080fd5b9650604089013567ffffffffffffffff811115611e2057600080fd5b611e2c8b828c01611d24565b909750955050606089013567ffffffffffffffff811115611e4c57600080fd5b611e588b828c01611d24565b909550935050608089013567ffffffffffffffff811115611e7857600080fd5b611e848b828c01611d24565b999c989b5096995094979396929594505050565b600060208284031215611eaa57600080fd5b813567ffffffffffffffff811115611ec157600080fd5b8201601f81018413611ed257600080fd5b611ee184823560208401611c46565b949350505050565b602081526000611a7a6020830184611baa565b600080600080600060a08688031215611f1457600080fd5b8535611f1f81611ad3565b94506020860135611f2f81611ad3565b93506040860135611f3f81611ad3565b94979396509394606081013594506080013592915050565b600181811c90821680611f6b57607f821691505b602082108103611f8b57634e487b7160e01b600052602260045260246000fd5b50919050565b634e487b7160e01b600052601160045260246000fd5b808201808211156105db576105db611f91565b81835281816020850137506000828201602090810191909152601f909101601f19169091010190565b604081526000611ff7604083018587611fba565b9050826020830152949350505050565b601f82111561065857806000526020600020601f840160051c8101602085101561202e5750805b601f840160051c820191505b8181101561204e576000815560010161203a565b5050505050565b815167ffffffffffffffff81111561206f5761206f611c30565b6120838161207d8454611f57565b84612007565b6020601f8211600181146120b7576000831561209f5750848201515b600019600385901b1c1916600184901b17845561204e565b600084815260208120601f198516915b828110156120e757878501518255602094850194600190920191016120c7565b50848210156121055786840151600019600387901b60f8161c191681555b50505050600190811b01905550565b60018060a01b03841681528260208201526060604082015260006119e06060830184611baa565b6121458185611b64565b6040602082015260006119e0604083018486611fba565b7f68747470733a2f2f6578616d706c652e636f6d2f6d657461646174612f00000081526000825161219481601d850160208701611b86565b91909101601d0192915050565b80820281158282048414176105db576105db611f91565b6000602082840312156121ca57600080fd5b5051919050565b600082516121e3818460208701611b86565b919091019291505056fe360894a13ba1a3210667c828492db98dca3e2076cc3735a920a3ca505d382bbc02dd7bc7dec4dceedda775e58dd541e08a116c6c53815c0bd028192f7b626800a2646970667358221220c4a5cbdaa72bf61b63c6e8d2313b9d81e289a6f255f3d7a3cc85bc3cdc2ece2664736f6c634300081c0033",
  "linkReferences": {},
  "deployedLinkReferences": {}
}