{
  "_format": "hh-sol-artifact-1",
  "contractName": "FlameBornEngine",
  "sourceName": "contracts/FlameBornEngine.sol",
  "abi": [
    {
      "inputs": [],
      "stateMutability": "nonpayable",
      "type": "constructor"
    },
    {
      "inputs": [],
      "name": "AccessControlBadConfirmation",
      "type": "error"
    },
    {
      "inputs": [
        {
          "internalType": "address",
          "name": "account",
          "type": "address"
        },
        {
          "internalType": "bytes32",
          "name": "neededRole",
          "type": "bytes32"
        }
      ],
      "name": "AccessControlUnauthorizedAccount",
      "type": "error"
    },
    {
      "inputs": [
        {
          "internalType": "address",
          "name": "actor",
          "type": "address"
        }
      ],
      "name": "ActorAlreadyVerified",
      "type": "error"
    },
    {
      "inputs": [
        {
          "internalType": "address",
          "name": "target",
          "type": "address"
        }
      ],
      "name": "AddressEmptyCode",
      "type": "error"
    },
    {
      "inputs": [
        {
          "internalType": "address",
          "name": "implementation",
          "type": "address"
        }
      ],
      "name": "ERC1967InvalidImplementation",
      "type": "error"
    },
    {
      "inputs": [],
      "name": "ERC1967NonPayable",
      "type": "error"
    },
    {
      "inputs": [],
      "name": "FailedCall",
      "type": "error"
    },
    {
      "inputs": [],
      "name": "InvalidInitialization",
      "type": "error"
    },
    {
      "inputs": [],
      "name": "NotInitializing",
      "type": "error"
    },
    {
      "inputs": [],
      "name": "ReentrancyGuardReentrantCall",
      "type": "error"
    },
    {
      "inputs": [],
      "name": "UUPSUnauthorizedCallContext",
      "type": "error"
    },
    {
      "inputs": [
        {
          "internalType": "bytes32",
          "name": "slot",
          "type": "bytes32"
        }
      ],
      "name": "UUPSUnsupportedProxiableUUID",
      "type": "error"
    },
    {
      "anonymous": false,
      "inputs": [
        {
          "indexed": true,
          "internalType": "address",
          "name": "actor",
          "type": "address"
        },
        {
          "indexed": false,
          "internalType": "enum FlameBornEngine.ActorRole",
          "name": "role",
          "type": "uint8"
        },
        {
          "indexed": false,
          "internalType": "string",
          "name": "name",
          "type": "string"
        }
      ],
      "name": "ActorVerified",
      "type": "event"
    },
    {
      "anonymous": false,
      "inputs": [
        {
          "indexed": true,
          "internalType": "address",
          "name": "donor",
          "type": "address"
        },
        {
          "indexed": false,
          "internalType": "uint256",
          "name": "amountETH",
          "type": "uint256"
        },
        {
          "indexed": false,
          "internalType": "uint256",
          "name": "rewardFLB",
          "type": "uint256"
        }
      ],
      "name": "DonationReceived",
      "type": "event"
    },
    {
      "anonymous": false,
      "inputs": [
        {
          "indexed": false,
          "internalType": "uint64",
          "name": "version",
          "type": "uint64"
        }
      ],
      "name": "Initialized",
      "type": "event"
    },
    {
      "anonymous": false,
      "inputs": [
        {
          "indexed": true,
          "internalType": "address",
          "name": "user",
          "type": "address"
        },
        {
          "indexed": false,
          "internalType": "string",
          "name": "questId",
          "type": "string"
        },
        {
          "indexed": false,
          "internalType": "uint256",
          "name": "reward",
          "type": "uint256"
        }
      ],
      "name": "QuestRewarded",
      "type": "event"
    },
    {
      "anonymous": false,
      "inputs": [
        {
          "indexed": true,
          "internalType": "bytes32",
          "name": "role",
          "type": "bytes32"
        },
        {
          "indexed": true,
          "internalType": "bytes32",
          "name": "previousAdminRole",
          "type": "bytes32"
        },
        {
          "indexed": true,
          "internalType": "bytes32",
          "name": "newAdminRole",
          "type": "bytes32"
        }
      ],
      "name": "RoleAdminChanged",
      "type": "event"
    },
    {
      "anonymous": false,
      "inputs": [
        {
          "indexed": true,
          "internalType": "bytes32",
          "name": "role",
          "type": "bytes32"
        },
        {
          "indexed": true,
          "internalType": "address",
          "name": "account",
          "type": "address"
        },
        {
          "indexed": true,
          "internalType": "address",
          "name": "sender",
          "type": "address"
        }
      ],
      "name": "RoleGranted",
      "type": "event"
    },
    {
      "anonymous": false,
      "inputs": [
        {
          "indexed": true,
          "internalType": "bytes32",
          "name": "role",
          "type": "bytes32"
        },
        {
          "indexed": true,
          "internalType": "address",
          "name": "account",
          "type": "address"
        },
        {
          "indexed": true,
          "internalType": "address",
          "name": "sender",
          "type": "address"
        }
      ],
      "name": "RoleRevoked",
      "type": "event"
    },
    {
      "anonymous": false,
      "inputs": [
        {
          "indexed": true,
          "internalType": "address",
          "name": "implementation",
          "type": "address"
        }
      ],
      "name": "Upgraded",
      "type": "event"
    },
    {
      "inputs": [],
      "name": "DEFAULT_ADMIN_ROLE",
      "outputs": [
        {
          "internalType": "bytes32",
          "name": "",
          "type": "bytes32"
        }
      ],
      "stateMutability": "view",
      "type": "function"
    },
    {
      "inputs": [],
      "name": "MIN_DONATION",
      "outputs": [
        {
          "internalType": "uint256",
          "name": "",
          "type": "uint256"
        }
      ],
      "stateMutability": "view",
      "type": "function"
    },
    {
      "inputs": [],
      "name": "QUEST_ADMIN_ROLE",
      "outputs": [
        {
          "internalType": "bytes32",
          "name": "",
          "type": "bytes32"
        }
      ],
      "stateMutability": "view",
      "type": "function"
    },
    {
      "inputs": [],
      "name": "REGISTRAR_ROLE",
      "outputs": [
        {
          "internalType": "bytes32",
          "name": "",
          "type": "bytes32"
        }
      ],
      "stateMutability": "view",
      "type": "function"
    },
    {
      "inputs": [],
      "name": "UPGRADE_INTERFACE_VERSION",
      "outputs": [
        {
          "internalType": "string",
          "name": "",
          "type": "string"
        }
      ],
      "stateMutability": "view",
      "type": "function"
    },
    {
      "inputs": [],
      "name": "actorReward",
      "outputs": [
        {
          "internalType": "uint256",
          "name": "",
          "type": "uint256"
        }
      ],
      "stateMutability": "view",
      "type": "function"
    },
    {
      "inputs": [
        {
          "internalType": "address",
          "name": "",
          "type": "address"
        }
      ],
      "name": "actors",
      "outputs": [
        {
          "internalType": "bool",
          "name": "verified",
          "type": "bool"
        },
        {
          "internalType": "enum FlameBornEngine.ActorRole",
          "name": "role",
          "type": "uint8"
        },
        {
          "internalType": "string",
          "name": "name",
          "type": "string"
        },
        {
          "internalType": "string",
          "name": "licenseId",
          "type": "string"
        },
        {
          "internalType": "string",
          "name": "phone",
          "type": "string"
        }
      ],
      "stateMutability": "view",
      "type": "function"
    },
    {
      "inputs": [
        {
          "internalType": "address",
          "name": "user",
          "type": "address"
        },
        {
          "internalType": "uint256",
          "name": "reward",
          "type": "uint256"
        },
        {
          "internalType": "string",
          "name": "questId",
          "type": "string"
        }
      ],
      "name": "awardQuest",
      "outputs": [],
      "stateMutability": "nonpayable",
      "type": "function"
    },
    {
      "inputs": [],
      "name": "donate",
      "outputs": [],
      "stateMutability": "payable",
      "type": "function"
    },
    {
      "inputs": [],
      "name": "donationRewardRate",
      "outputs": [
        {
          "internalType": "uint256",
          "name": "",
          "type": "uint256"
        }
      ],
      "stateMutability": "view",
      "type": "function"
    },
    {
      "inputs": [
        {
          "internalType": "address",
          "name": "",
          "type": "address"
        }
      ],
      "name": "donorBalances",
      "outputs": [
        {
          "internalType": "uint256",
          "name": "",
          "type": "uint256"
        }
      ],
      "stateMutability": "view",
      "type": "function"
    },
    {
      "inputs": [
        {
          "internalType": "address",
          "name": "actor",
          "type": "address"
        }
      ],
      "name": "getActor",
      "outputs": [
        {
          "internalType": "bool",
          "name": "verified",
          "type": "bool"
        },
        {
          "internalType": "enum FlameBornEngine.ActorRole",
          "name": "role",
          "type": "uint8"
        },
        {
          "internalType": "string",
          "name": "name",
          "type": "string"
        },
        {
          "internalType": "string",
          "name": "licenseId",
          "type": "string"
        },
        {
          "internalType": "string",
          "name": "phone",
          "type": "string"
        }
      ],
      "stateMutability": "view",
      "type": "function"
    },
    {
      "inputs": [
        {
          "internalType": "bytes32",
          "name": "role",
          "type": "bytes32"
        }
      ],
      "name": "getRoleAdmin",
      "outputs": [
        {
          "internalType": "bytes32",
          "name": "",
          "type": "bytes32"
        }
      ],
      "stateMutability": "view",
      "type": "function"
    },
    {
      "inputs": [
        {
          "internalType": "bytes32",
          "name": "role",
          "type": "bytes32"
        },
        {
          "internalType": "address",
          "name": "account",
          "type": "address"
        }
      ],
      "name": "grantRole",
      "outputs": [],
      "stateMutability": "nonpayable",
      "type": "function"
    },
    {
      "inputs": [
        {
          "internalType": "bytes32",
          "name": "role",
          "type": "bytes32"
        },
        {
          "internalType": "address",
          "name": "account",
          "type": "address"
        }
      ],
      "name": "hasRole",
      "outputs": [
        {
          "internalType": "bool",
          "name": "",
          "type": "bool"
        }
      ],
      "stateMutability": "view",
      "type": "function"
    },
    {
      "inputs": [],
      "name": "healthIDNFT",
      "outputs": [
        {
          "internalType": "contract IHealthIDNFT",
          "name": "",
          "type": "address"
        }
      ],
      "stateMutability": "view",
      "type": "function"
    },
    {
      "inputs": [
        {
          "internalType": "address",
          "name": "admin",
          "type": "address"
        },
        {
          "internalType": "address",
          "name": "_token",
          "type": "address"
        },
        {
          "internalType": "address",
          "name": "_healthIDNFT",
          "type": "address"
        },
        {
          "internalType": "uint256",
          "name": "_actorReward",
          "type": "uint256"
        },
        {
          "internalType": "uint256",
          "name": "_donationRewardRate",
          "type": "uint256"
        }
      ],
      "name": "initialize",
      "outputs": [],
      "stateMutability": "nonpayable",
      "type": "function"
    },
    {
      "inputs": [
        {
          "internalType": "address",
          "name": "actor",
          "type": "address"
        }
      ],
      "name": "isVerifiedActor",
      "outputs": [
        {
          "internalType": "bool",
          "name": "",
          "type": "bool"
        }
      ],
      "stateMutability": "view",
      "type": "function"
    },
    {
      "inputs": [],
      "name": "proxiableUUID",
      "outputs": [
        {
          "internalType": "bytes32",
          "name": "",
          "type": "bytes32"
        }
      ],
      "stateMutability": "view",
      "type": "function"
    },
    {
      "inputs": [
        {
          "internalType": "address",
          "name": "",
          "type": "address"
        }
      ],
      "name": "questRewards",
      "outputs": [
        {
          "internalType": "uint256",
          "name": "",
          "type": "uint256"
        }
      ],
      "stateMutability": "view",
      "type": "function"
    },
    {
      "inputs": [
        {
          "internalType": "bytes32",
          "name": "role",
          "type": "bytes32"
        },
        {
          "internalType": "address",
          "name": "callerConfirmation",
          "type": "address"
        }
      ],
      "name": "renounceRole",
      "outputs": [],
      "stateMutability": "nonpayable",
      "type": "function"
    },
    {
      "inputs": [
        {
          "internalType": "bytes32",
          "name": "role",
          "type": "bytes32"
        },
        {
          "internalType": "address",
          "name": "account",
          "type": "address"
        }
      ],
      "name": "revokeRole",
      "outputs": [],
      "stateMutability": "nonpayable",
      "type": "function"
    },
    {
      "inputs": [
        {
          "internalType": "bytes4",
          "name": "interfaceId",
          "type": "bytes4"
        }
      ],
      "name": "supportsInterface",
      "outputs": [
        {
          "internalType": "bool",
          "name": "",
          "type": "bool"
        }
      ],
      "stateMutability": "view",
      "type": "function"
    },
    {
      "inputs": [],
      "name": "token",
      "outputs": [
        {
          "internalType": "contract IFlameBornToken",
          "name": "",
          "type": "address"
        }
      ],
      "stateMutability": "view",
      "type": "function"
    },
    {
      "inputs": [
        {
          "internalType": "string",
          "name": "name",
          "type": "string"
        }
      ],
      "name": "tokenURIForActor",
      "outputs": [
        {
          "internalType": "string",
          "name": "",
          "type": "string"
        }
      ],
      "stateMutability": "pure",
      "type": "function"
    },
    {
      "inputs": [],
      "name": "totalDonations",
      "outputs": [
        {
          "internalType": "uint256",
          "name": "",
          "type": "uint256"
        }
      ],
      "stateMutability": "view",
      "type": "function"
    },
    {
      "inputs": [
        {
          "internalType": "address",
          "name": "newImplementation",
          "type": "address"
        },
        {
          "internalType": "bytes",
          "name": "data",
          "type": "bytes"
        }
      ],
      "name": "upgradeToAndCall",
      "outputs": [],
      "stateMutability": "payable",
      "type": "function"
    },
    {
      "inputs": [
        {
          "internalType": "address",
          "name": "actorAddress",
          "type": "address"
        },
        {
          "internalType": "enum FlameBornEngine.ActorRole",
          "name": "role",
          "type": "uint8"
        },
        {
          "internalType": "string",
          "name": "name",
          "type": "string"
        },
        {
          "internalType": "string",
          "name": "licenseId",
          "type": "string"
        },
        {
          "internalType": "string",
          "name": "phone",
          "type": "string"
        }
      ],
      "name": "verifyActor",
      "outputs": [],
      "stateMutability": "nonpayable",
      "type": "function"
    },
    {
      "inputs": [
        {
          "internalType": "address payable",
          "name": "recipient",
          "type": "address"
        }
      ],
      "name": "withdrawDonations",
      "outputs": [],
      "stateMutability": "nonpayable",
      "type": "function"
    }
  ],
  "bytecode": "0x60a06040523060805234801561001457600080fd5b5061001d610022565b6100d4565b7ff0c57e16840df040f15088dc2f81fe391c3923bec73e23a9662efc9c229c6a00805468010000000000000000900460ff16156100725760405163f92ee8a960e01b815260040160405180910390fd5b80546001600160401b03908116146100d15780546001600160401b0319166001600160401b0390811782556040519081527fc7f505b2f371ae2175ee4913f4499e1f2633a7b5936321eed1cdaeb6115181d29060200160405180910390a15b50565b6080516122ca6100fd600039600081816116a5015281816116ce015261181401526122ca6000f3fe6080604052600436106101c25760003560e01c806384d49d82116100f7578063d78360bc11610095578063ed88c68e11610064578063ed88c68e1461053b578063f5c515be14610543578063f68e95531461057c578063fc0c546a146105b057600080fd5b8063d78360bc146104d4578063db45810e146104ea578063de2ed89314610505578063eaa66a3c1461051b57600080fd5b8063a56f5b53116100d1578063a56f5b5314610443578063a6b63eb814610463578063ad3cb1cc14610483578063d547741f146104b457600080fd5b806384d49d82146103e157806391d148541461040e578063a217fddf1461042e57600080fd5b80634f1ef2861161016457806362158c751161013e57806362158c751461035e578063624c67221461037e578063678f93501461039e5780637b8c8de1146103b457600080fd5b80634f1ef286146102fe57806352d1902d146103115780635a21ce241461032657600080fd5b8063248a9ca3116101a0578063248a9ca31461026b5780632f2ff15d1461028b57806336568abe146102ad5780634138d167146102cd57600080fd5b806301ffc9a7146101c757806309642841146101fc57806314e025001461023e575b600080fd5b3480156101d357600080fd5b506101e76101e2366004611b10565b6105d0565b60405190151581526020015b60405180910390f35b34801561020857600080fd5b506102307fd9fa870f425abcc65e9f66291fd387e7d8e4b1a8019d84df97822b1a0643f58581565b6040519081526020016101f3565b34801561024a57600080fd5b50610230610259366004611b4f565b60076020526000908152604090205481565b34801561027757600080fd5b50610230610286366004611b6c565b610607565b34801561029757600080fd5b506102ab6102a6366004611b85565b610629565b005b3480156102b957600080fd5b506102ab6102c8366004611b85565b61064b565b3480156102d957600080fd5b506102ed6102e8366004611b4f565b610683565b6040516101f3959493929190611c3d565b6102ab61030c366004611d27565b6108d3565b34801561031d57600080fd5b506102306108f2565b34801561033257600080fd5b50600154610346906001600160a01b031681565b6040516001600160a01b0390911681526020016101f3565b34801561036a57600080fd5b506102ab610379366004611dd4565b61090f565b34801561038a57600080fd5b506102ab610399366004611e30565b610aa7565b3480156103aa57600080fd5b5061023060035481565b3480156103c057600080fd5b506102306103cf366004611b4f565b60056020526000908152604090205481565b3480156103ed57600080fd5b506104016103fc366004611eff565b610e38565b6040516101f39190611f50565b34801561041a57600080fd5b506101e7610429366004611b85565b610e61565b34801561043a57600080fd5b50610230600081565b34801561044f57600080fd5b506102ab61045e366004611b4f565b610e99565b34801561046f57600080fd5b506102ab61047e366004611f63565b610fc7565b34801561048f57600080fd5b50610401604051806040016040528060058152602001640352e302e360dc1b81525081565b3480156104c057600080fd5b506102ab6104cf366004611b85565b611248565b3480156104e057600080fd5b5061023060025481565b3480156104f657600080fd5b50610230662386f26fc1000081565b34801561051157600080fd5b5061023060045481565b34801561052757600080fd5b506102ed610536366004611b4f565b611264565b6102ab611432565b34801561054f57600080fd5b506101e761055e366004611b4f565b6001600160a01b031660009081526006602052604090205460ff1690565b34801561058857600080fd5b506102307fedcc084d3dcd65a1f7f23c65c46722faca6953d28e43150a467cf43e5c30923881565b3480156105bc57600080fd5b50600054610346906001600160a01b031681565b60006001600160e01b03198216637965db0b60e01b148061060157506301ffc9a760e01b6001600160e01b03198316145b92915050565b6000908152600080516020612275833981519152602052604090206001015490565b61063282610607565b61063b8161156c565b6106458383611579565b50505050565b6001600160a01b03811633146106745760405163334bd91960e11b815260040160405180910390fd5b61067e828261161e565b505050565b6001600160a01b0381166000908152600660209081526040808320815160a08101909252805460ff80821615158452859460609485948594889492939192918401916101009091041660058111156106dd576106dd611bb5565b60058111156106ee576106ee611bb5565b815260200160018201805461070290611fbe565b80601f016020809104026020016040519081016040528092919081815260200182805461072e90611fbe565b801561077b5780601f106107505761010080835404028352916020019161077b565b820191906000526020600020905b81548152906001019060200180831161075e57829003601f168201915b5050505050815260200160028201805461079490611fbe565b80601f01602080910402602001604051908101604052809291908181526020018280546107c090611fbe565b801561080d5780601f106107e25761010080835404028352916020019161080d565b820191906000526020600020905b8154815290600101906020018083116107f057829003601f168201915b5050505050815260200160038201805461082690611fbe565b80601f016020809104026020016040519081016040528092919081815260200182805461085290611fbe565b801561089f5780601f106108745761010080835404028352916020019161089f565b820191906000526020600020905b81548152906001019060200180831161088257829003601f168201915b5050509190925250508151602083015160408401516060850151608090950151929c919b5099509297509550909350505050565b6108db61169a565b6108e482611741565b6108ee828261174c565b5050565b60006108fc611809565b5060008051602061225583398151915290565b7fd9fa870f425abcc65e9f66291fd387e7d8e4b1a8019d84df97822b1a0643f5856109398161156c565b6001600160a01b0385166109835760405162461bcd60e51b815260206004820152600c60248201526b24b73b30b634b2103ab9b2b960a11b60448201526064015b60405180910390fd5b600084116109c85760405162461bcd60e51b81526020600482015260126024820152710526577617264206d757374206265203e20360741b604482015260640161097a565b6001600160a01b038516600090815260076020526040812080548692906109f090849061200e565b90915550506000546040516340c10f1960e01b81526001600160a01b03878116600483015260248201879052909116906340c10f1990604401600060405180830381600087803b158015610a4357600080fd5b505af1158015610a57573d6000803e3d6000fd5b50505050846001600160a01b03167ff746c75ab19937d58b2a3e0406d8d5fcd1e8ae5545a89c47e88e53497787182c848487604051610a989392919061204a565b60405180910390a25050505050565b7fedcc084d3dcd65a1f7f23c65c46722faca6953d28e43150a467cf43e5c309238610ad18161156c565b6001600160a01b038916610b175760405162461bcd60e51b815260206004820152600d60248201526c24b73b30b634b21030b1ba37b960991b604482015260640161097a565b6001600160a01b03891660009081526006602052604090205460ff1615610b5c57604051635a01047360e01b81526001600160a01b038a16600482015260240161097a565b6040518060a00160405280600115158152602001896005811115610b8257610b82611bb5565b815260200188888080601f016020809104026020016040519081016040528093929190818152602001838380828437600092019190915250505090825250604080516020601f890181900481028201810190925287815291810191908890889081908401838280828437600092019190915250505090825250604080516020601f87018190048102820181019092528581529181019190869086908190840183828082843760009201829052509390945250506001600160a01b038c1681526006602090815260409091208351815490151560ff19821681178355928501519193509091839161ff001990911661ffff1990911617610100836005811115610c8c57610c8c611bb5565b021790555060408201516001820190610ca590826120bc565b5060608201516002820190610cba90826120bc565b5060808201516003820190610ccf90826120bc565b509050506000610d1488888080601f016020809104026020016040519081016040528093929190818152602001838380828437600092019190915250610e3892505050565b600154604051631153ebfb60e21b81529192506001600160a01b039081169163454fafec91610d4c918e91821690869060040161217b565b600060405180830381600087803b158015610d6657600080fd5b505af1158015610d7a573d6000803e3d6000fd5b50506000546002546040516340c10f1960e01b81526001600160a01b038f811660048301526024820192909252911692506340c10f199150604401600060405180830381600087803b158015610dcf57600080fd5b505af1158015610de3573d6000803e3d6000fd5b50505050896001600160a01b03167fa8c194a0bb99fe5563599cd2f9a5c005a12a87ad542c02dd32d07fd57c1134258a8a8a604051610e24939291906121a2565b60405180910390a250505050505050505050565b606081604051602001610e4b91906121c3565b6040516020818303038152906040529050919050565b6000918252600080516020612275833981519152602090815260408084206001600160a01b0393909316845291905290205460ff1690565b6000610ea48161156c565b4780610ee75760405162461bcd60e51b81526020600482015260126024820152714e6f2066756e647320617661696c61626c6560701b604482015260640161097a565b6001600160a01b038316610f325760405162461bcd60e51b8152602060048201526012602482015271149958da5c1a595b9d081c995c5d5a5c995960721b604482015260640161097a565b6000836001600160a01b03168260405160006040518083038185875af1925050503d8060008114610f7f576040519150601f19603f3d011682016040523d82523d6000602084013e610f84565b606091505b50509050806106455760405162461bcd60e51b815260206004820152600f60248201526e151c985b9cd9995c8819985a5b1959608a1b604482015260640161097a565b6000610fd1611852565b805490915060ff600160401b820416159067ffffffffffffffff16600081158015610ff95750825b905060008267ffffffffffffffff1660011480156110165750303b155b905081158015611024575080155b156110425760405163f92ee8a960e01b815260040160405180910390fd5b845467ffffffffffffffff19166001178555831561106c57845460ff60401b1916600160401b1785555b6001600160a01b038a166110b35760405162461bcd60e51b815260206004820152600e60248201526d10591b5a5b881c995c5d5a5c995960921b604482015260640161097a565b6001600160a01b0389166110fa5760405162461bcd60e51b815260206004820152600e60248201526d151bdad95b881c995c5d5a5c995960921b604482015260640161097a565b6001600160a01b0388166111475760405162461bcd60e51b81526020600482015260146024820152731219585b1d1a1251139195081c995c5d5a5c995960621b604482015260640161097a565b61114f61187b565b61115761187b565b61115f611883565b600080546001600160a01b03808c166001600160a01b031992831617835560018054918c16919092161790556002889055600387905561119f908b611579565b506111ca7fedcc084d3dcd65a1f7f23c65c46722faca6953d28e43150a467cf43e5c3092388b611579565b506111f57fd9fa870f425abcc65e9f66291fd387e7d8e4b1a8019d84df97822b1a0643f5858b611579565b50831561123c57845460ff60401b19168555604051600181527fc7f505b2f371ae2175ee4913f4499e1f2633a7b5936321eed1cdaeb6115181d29060200160405180910390a15b50505050505050505050565b61125182610607565b61125a8161156c565b610645838361161e565b6006602052600090815260409020805460018201805460ff808416946101009094041692919061129390611fbe565b80601f01602080910402602001604051908101604052809291908181526020018280546112bf90611fbe565b801561130c5780601f106112e15761010080835404028352916020019161130c565b820191906000526020600020905b8154815290600101906020018083116112ef57829003601f168201915b50505050509080600201805461132190611fbe565b80601f016020809104026020016040519081016040528092919081815260200182805461134d90611fbe565b801561139a5780601f1061136f5761010080835404028352916020019161139a565b820191906000526020600020905b81548152906001019060200180831161137d57829003601f168201915b5050505050908060030180546113af90611fbe565b80601f01602080910402602001604051908101604052809291908181526020018280546113db90611fbe565b80156114285780601f106113fd57610100808354040283529160200191611428565b820191906000526020600020905b81548152906001019060200180831161140b57829003601f168201915b5050505050905085565b662386f26fc1000034101561147e5760405162461bcd60e51b8152602060048201526012602482015271111bdb985d1a5bdb881d1bdbc81cdb585b1b60721b604482015260640161097a565b3460046000828254611490919061200e565b909155505033600090815260056020526040812080543492906114b490849061200e565b90915550506003546000906114c99034612208565b6000546040516340c10f1960e01b8152336004820152602481018390529192506001600160a01b0316906340c10f1990604401600060405180830381600087803b15801561151657600080fd5b505af115801561152a573d6000803e3d6000fd5b505060408051348152602081018590523393507f4b0304ab2f313234b1cea012339c8f8c3bf2c8bb357d81a579cfdb35d2e3d03092500160405180910390a250565b6115768133611893565b50565b60006000805160206122758339815191526115948484610e61565b611614576000848152602082815260408083206001600160a01b03871684529091529020805460ff191660011790556115ca3390565b6001600160a01b0316836001600160a01b0316857f2f8788117e7eff1d82e926ec794901d17c78024a50270940304540a733656f0d60405160405180910390a46001915050610601565b6000915050610601565b60006000805160206122758339815191526116398484610e61565b15611614576000848152602082815260408083206001600160a01b0387168085529252808320805460ff1916905551339287917ff6391f5c32d9c69d2a47ea670b442974b53935d1edc7fd64eb21e047a839171b9190a46001915050610601565b306001600160a01b037f000000000000000000000000000000000000000000000000000000000000000016148061172157507f00000000000000000000000000000000000000000000000000000000000000006001600160a01b0316611715600080516020612255833981519152546001600160a01b031690565b6001600160a01b031614155b1561173f5760405163703e46dd60e11b815260040160405180910390fd5b565b60006108ee8161156c565b816001600160a01b03166352d1902d6040518163ffffffff1660e01b8152600401602060405180830381865afa9250505080156117a6575060408051601f3d908101601f191682019092526117a39181019061221f565b60015b6117ce57604051634c9c8ce360e01b81526001600160a01b038316600482015260240161097a565b60008051602061225583398151915281146117ff57604051632a87526960e21b81526004810182905260240161097a565b61067e83836118cc565b306001600160a01b037f0000000000000000000000000000000000000000000000000000000000000000161461173f5760405163703e46dd60e11b815260040160405180910390fd5b6000807ff0c57e16840df040f15088dc2f81fe391c3923bec73e23a9662efc9c229c6a00610601565b61173f611922565b61188b611922565b61173f611947565b61189d8282610e61565b6108ee5760405163e2517d3f60e01b81526001600160a01b03821660048201526024810183905260440161097a565b6118d582611975565b6040516001600160a01b038316907fbc7cd75a20ee27fd9adebab32041f755214dbc6bffa90cc0225b39da2e5c2d3b90600090a280511561191a5761067e82826119da565b6108ee611a50565b61192a611a6f565b61173f57604051631afcd79f60e31b815260040160405180910390fd5b61194f611922565b60017f9b779b17422d0df92223018b32b4d1fa46e071723d6817e2486d003becc55f0055565b806001600160a01b03163b6000036119ab57604051634c9c8ce360e01b81526001600160a01b038216600482015260240161097a565b60008051602061225583398151915280546001600160a01b0319166001600160a01b0392909216919091179055565b6060600080846001600160a01b0316846040516119f79190612238565b600060405180830381855af49150503d8060008114611a32576040519150601f19603f3d011682016040523d82523d6000602084013e611a37565b606091505b5091509150611a47858383611a89565b95945050505050565b341561173f5760405163b398979f60e01b815260040160405180910390fd5b6000611a79611852565b54600160401b900460ff16919050565b606082611a9e57611a9982611ae8565b611ae1565b8151158015611ab557506001600160a01b0384163b155b15611ade57604051639996b31560e01b81526001600160a01b038516600482015260240161097a565b50805b9392505050565b805115611af757805160208201fd5b60405163d6bda27560e01b815260040160405180910390fd5b600060208284031215611b2257600080fd5b81356001600160e01b031981168114611ae157600080fd5b6001600160a01b038116811461157657600080fd5b600060208284031215611b6157600080fd5b8135611ae181611b3a565b600060208284031215611b7e57600080fd5b5035919050565b60008060408385031215611b9857600080fd5b823591506020830135611baa81611b3a565b809150509250929050565b634e487b7160e01b600052602160045260246000fd5b60068110611be957634e487b7160e01b600052602160045260246000fd5b9052565b60005b83811015611c08578181015183820152602001611bf0565b50506000910152565b60008151808452611c29816020860160208601611bed565b601f01601f19169290920160200192915050565b8515158152611c4f6020820186611bcb565b60a060408201526000611c6560a0830186611c11565b8281036060840152611c778186611c11565b90508281036080840152611c8b8185611c11565b98975050505050505050565b634e487b7160e01b600052604160045260246000fd5b60008067ffffffffffffffff841115611cc857611cc8611c97565b50604051601f19601f85018116603f0116810181811067ffffffffffffffff82111715611cf757611cf7611c97565b604052838152905080828401851015611d0f57600080fd5b83836020830137600060208583010152509392505050565b60008060408385031215611d3a57600080fd5b8235611d4581611b3a565b9150602083013567ffffffffffffffff811115611d6157600080fd5b8301601f81018513611d7257600080fd5b611d8185823560208401611cad565b9150509250929050565b60008083601f840112611d9d57600080fd5b50813567ffffffffffffffff811115611db557600080fd5b602083019150836020828501011115611dcd57600080fd5b9250929050565b60008060008060608587031215611dea57600080fd5b8435611df581611b3a565b935060208501359250604085013567ffffffffffffffff811115611e1857600080fd5b611e2487828801611d8b565b95989497509550505050565b60008060008060008060008060a0898b031215611e4c57600080fd5b8835611e5781611b3a565b9750602089013560068110611e6b57600080fd5b9650604089013567ffffffffffffffff811115611e8757600080fd5b611e938b828c01611d8b565b909750955050606089013567ffffffffffffffff811115611eb357600080fd5b611ebf8b828c01611d8b565b909550935050608089013567ffffffffffffffff811115611edf57600080fd5b611eeb8b828c01611d8b565b999c989b5096995094979396929594505050565b600060208284031215611f1157600080fd5b813567ffffffffffffffff811115611f2857600080fd5b8201601f81018413611f3957600080fd5b611f4884823560208401611cad565b949350505050565b602081526000611ae16020830184611c11565b600080600080600060a08688031215611f7b57600080fd5b8535611f8681611b3a565b94506020860135611f9681611b3a565b93506040860135611fa681611b3a565b94979396509394606081013594506080013592915050565b600181811c90821680611fd257607f821691505b602082108103611ff257634e487b7160e01b600052602260045260246000fd5b50919050565b634e487b7160e01b600052601160045260246000fd5b8082018082111561060157610601611ff8565b81835281816020850137506000828201602090810191909152601f909101601f19169091010190565b60408152600061205e604083018587612021565b9050826020830152949350505050565b601f82111561067e57806000526020600020601f840160051c810160208510156120955750805b601f840160051c820191505b818110156120b557600081556001016120a1565b5050505050565b815167ffffffffffffffff8111156120d6576120d6611c97565b6120ea816120e48454611fbe565b8461206e565b6020601f82116001811461211e57600083156121065750848201515b600019600385901b1c1916600184901b1784556120b5565b600084815260208120601f198516915b8281101561214e578785015182556020948501946001909201910161212e565b508482101561216c5786840151600019600387901b60f8161c191681555b50505050600190811b01905550565b60018060a01b0384168152826020820152606060408201526000611a476060830184611c11565b6121ac8185611bcb565b604060208201526000611a47604083018486612021565b7f68747470733a2f2f6578616d706c652e636f6d2f6d657461646174612f0000008152600082516121fb81601d850160208701611bed565b91909101601d0192915050565b808202811582820484141761060157610601611ff8565b60006020828403121561223157600080fd5b5051919050565b6000825161224a818460208701611bed565b919091019291505056fe360894a13ba1a3210667c828492db98dca3e2076cc3735a920a3ca505d382bbc02dd7bc7dec4dceedda775e58dd541e08a116c6c53815c0bd028192f7b626800a2646970667358221220c60e44729d2bf2a33e8f3b45e8eff613633c04a32e80c9eab2cd34d220b1238164736f6c634300081c0033",
  "linkReferences": {},
  "deployedLinkReferences": {}
}